S01C00005445414D32204F4E45204D4F4E544820434F44452E73726563CC
S1130000A7C10000CBC10000C9C10000C7C10000E6
S1130010C5C10000C3C10000C1C10000BFC10000D0
S1130020BDC10000BBC10000BAC10000DBC10000BB
S1130030B5C10000B3C10000B1C10000AFC10000F0
S1130040ADC10000ABC10000A9C10000A7C1000000
S1130050A5C10000A3C10000A1C100009FC1000010
S11300609DC100009BC1000099C1000097C1000020
S113007095C1000093C1000091C100008FC1000030
S11300808DC100008BC1000089C1000087C1000040
S113009085C1000083C1000081C1000045C5000086
S11300A080C50000BBC50000F6C5000077C1000094
S11300B075C1000073C1000071C100006FC1000070
S11300C06DC100006BC1000069C1000067C1000080
S11300D065C1000063C1000061C100005FC1000090
S11300E05DC100005BC1000059C1000057C10000A0
S11300F055C1000053C1000051C100004FC10000B0
S11301004DC100004BC1000049C1000047C10000BF
S113011045C1000043C1000041C1000011C40000FA
S11301204CC4000087C40000C2C4000037C10000F2
S113013035C1000033C1000031C100002FC10000EF
S11301402DC100002BC1000029C1000027C10000FF
S113015025C1000023C1000021C100001FC100000F
S11301601DC100001BC1000019C1000017C100001F
S113017015C1000013C1000011C100000FC100002F
S11301800DC100000BC1000009C1000007C100003F
S113019005C1000003C1000001C10000FFC0000050
S11301A0FDC00000FBC00000F9C00000F7C0000063
S11301B0F5C00000F3C00000F1C00000EFC0000073
S11301C0EDC00000EBC00000E9C00000E7C0000083
S11301D0E5C00000E3C00000E1C00000DFC0000093
S11301E0DDC00000DBC00000D9C00000D7C00000A3
S11301F0D5C0000008000000BE922449123EABAAFC
S1130200AA2ABECDCCCC4C3E00000080BEABAAAA2C
S1130210AA3E00000000BF000000803F0000000074
S113022000084178D3BB4387D1133D190E3CC3BDAD
S11302304282AD2B3E68EC8276BED98FE1A93E4C5A
S113024080EFFFBE01C4FF7F3F00000000006E612D
S11302506E00696E660000407A10F35A00A0724E78
S113026018090010A5D4E80000E87648170000E457
S11302700B54020000CA9A3B000000E1F50500009F
S113028080969800000040420F000000A086010004
S11302900000102700000000E803000000006400D4
S11302A0000000000A00000000000100000000003F
S11302B02C76D888DC674F0823DFC1DFAE59E1B163
S11302C0B796E5E3E453C63AE651997696E8E6C272
S11302D08426EB898C9B62ED407C6FFCEFBC9C9F79
S11302E040F2BAA56FA5F490055A2AF75C936B6C9B
S11302F0F9676DC11BFCE0E40D47FEF520E6B5008F
S1130300D0ED902E0300943577050080841E0800FC
S113031000204E0A000000C80C333333330F986EAC
S113032012831141EF8D2114893BE65516CFFEE669
S1130330DB18D1844B381BF77C1D901DA4BBE4242F
S1130340203284725E228100C9F124ECA1E53D27AC
S113035011241FBECFEFCDBFDFE3DEBF00E00CBF33
S113036018BE19BE1ABE1BBE10E2A0E0B0E2E0ED5A
S1130370F5E300E00BBF02C007900D92AC31B1076A
S1130380D9F71BBE20E2ACE1B0E201C01D92A23558
S1130390B207E1F70E9442100C94E61A31CE1F9284
S11303A00F920FB60F92112408B60F9218BE0BB617
S11303B00F921BBE8F939F93EF93FF93ECE1F0E2B8
S11303C080819181019680839183FF91EF919F9128
S11303D08F910F900BBE0F9008BE0F900FBE0F9021
S11303E01F9018951F920F920FB60F92112408B602
S11303F00F9218BE09B60F9219BE0BB60F921BBE10
S1130400CF92DF92EF92FF920F931F932F933F931C
S11304104F935F936F937F938F939F93AF93BF9308
S1130420EF93FF93ECE1F0E28081918122813381AB
S113043082179307F0F121E020930204E091222037
S1130440F09123203097A9F1609108047091090478
S1130450A0E0B0E0DC0199278827AB0160E070E000
S11304608C019D01042B152B262B372BC901B801B8
S1130470ACE1B0E212960D911C91139720E030E0AC
S11304809801112700271496CD90DC901597E12C44
S1130490F12C0C291D292E293F2906171707280797
S11304A0390730F0C901B8016F5F7F4F8F4F9F4FFD
S11304B01995FF91EF91BF91AF919F918F917F918A
S11304C06F915F914F913F912F911F910F91FF90E9
S11304D0EF90DF90CF900F900BBE0F9009BE0F905E
S11304E008BE0F900FBE0F901F9018958F929F9289
S11304F0AF92BF92CF92DF92EF92FF920E94E80BED
S11305004B015C01B0D70E94A9119B01AC0160E8CA
S113051076EE85EC97E40E9413110E945E126B0143
S11305207C0120E030E84FE853E4C501B4010E94A7
S11305309E122AE038EE4CE151E40E941311A70107
S113054096010E949E12FF90EF90DF90CF90BF9093
S1130550AF909F908F9008952F923F924F925F9209
S11305606F927F928F929F92AF92BF92CF92DF92BF
S1130570EF92FF920F931F93CF93DF93CDB7DEB724
S1130580C459D140CDBFDEBFE0E0FBE020A131A1E2
S113059086A197A128173907C9F7A8DF2B013C01C9
S11305A08E010F5F1F4F5E0189ECA80EB11C4E0136
S11305B0A5E68A0E911C68010F2EE12CFBE0FF2EAC
S11305C0F02DF70120A131A186A197A128173907A1
S11305D0C1F78CDF9B01AC01C301B2010E94AA10D8
S11305E0D6016D937D938D939D936D01F70160A169
S11305F071A180E090E00E94A71128E33FEF47E457
S113060050E40E94131120E030E040E251E40E94E3
S1130610AB10D5016D937D938D939D935D0166DF42
S11306202B013C01C814D90461F64E01BDEC8B0EBC
S1130630911C5E01E9E6AE0EB11C1E01F1E62F0E1F
S1130640311C25010F2EFDE06F2EF0E27F2EF02DE0
S1130650F8010C5F1F4FD401CD90DD90ED90FD901B
S11306604D0120813181428153816085718582856C
S113067093850E94AA10CF56DE4F688379838A83BC
S11306809B83C159D140A7019601C701B6010E94BD
S1130690AB109B01AC01CF56DE4F688179818A8112
S11306A09B81C159D1400E941311262F372F462F09
S11306B0572F682F792FF2014193519361937193CE
S11306C02F019F938F933F932F937F926F920E945A
S11306D027190F900F900F900F900F900F90021505
S11306E0130509F0B5CFC753DF4F288139814A81FB
S11306F05B81C95CD04069817A818B819C810E9435
S11307001311A9966CAF7DAF8EAF9FAFA997C35D50
S1130710DE4F688379838A839B83CD52D1408E01D7
S1130720035D1E4F7E01F3E7EF1AFEEFFF0AD501CA
S11307306D917D918D919D915D01F8014190519054
S1130740619071908F0120E030E040E05FE30E940F
S11307509E12CF56DE4F688379838A839B83C15967
S1130760D14020E030E040E05FE3C301B2010E94E9
S11307709E129B01AC01CF56DE4F688179818A813C
S11307809B81C159D1400E94AB10D8016D937D93D8
S11307908D939C9313970E151F0549F68E010F5CDC
S11307A01E4F7E01BFE6EB1ABEEFFB0A60E070E06D
S11307B0CB01F80121913191419151918F010E9416
S11307C0AB100E151F05A9F720E030E040EC51E412
S11307D00E941311CC56DE4FCDBFDEBFDF91CF9107
S11307E01F910F91FF90EF90DF90CF90BF90AF904B
S11307F09F908F907F906F905F904F903F902F903D
S113080008959C01E0E0F9E086E08083A0E6B6E08C
S113081014969C911497986014969C9326A337A3DE
S113082086A197A186A797A708959C01E0E6F6E024
S1130830948192609483E0E0F9E026A337A326A193
S113084037A186A197A170E00E94B616261B370B2C
S113085022A733A708959C01E0E0F9E086E08083B5
S1130860A0E6B6E014969C911497946014969C9319
S113087026A337A386A197A184A795A708958FEFF0
S11308808093700080937100809372008093730052
S11308908093740080937500809376009FB7F894DA
S11308A0E0E5F0E08081826080839FBF818181FFE9
S11308B0FDCF61E080E490E02BD29FB7F894E0E5AF
S11308C0F0E080818E7F80839FBF81E0809343002E
S11308D008959FB7F894E82FF0E0E059FF4F609532
S11308E08081682360839FBF0895CF93DF931F9215
S11308F0CDB7DEB78091282090912920E091242063
S1130900F0912520BE016F5F7F4F19958981082ED4
S1130910000C990B0F90DF91CF910895682F80916F
S1130920282090912920E0912620F09127201995E4
S113093099231CF081E090E008958FEF9FEF0895D4
S11309401F920F920FB60F92112408B60F9218BE81
S113095009B60F9219BE0BB60F921BBE2F933F938D
S11309604F935F936F937F938F939F93AF93BF93B3
S1130970EF93FF934091240250912502E0912C20A3
S1130980F0912D2061E080E092E01995FF91EF91C4
S1130990BF91AF919F918F917F916F915F914F9193
S11309A03F912F910F900BBE0F9009BE0F9008BE80
S11309B00F900FBE0F901F9018951F920F920FB6B5
S11309C00F92112408B60F9218BE09B60F9219BEE1
S11309D00BB60F921BBE2F933F934F935F936F936E
S11309E07F938F939F93AF93BF93EF93FF93409124
S11309F02C0250912D02E0912C20F0912D2062E0E8
S1130A0080E092E01995FF91EF91BF91AF919F9192
S1130A108F917F916F915F914F913F912F910F90A3
S1130A200BBE0F9009BE0F9008BE0F900FBE0F9023
S1130A301F9018951F920F920FB60F92112408B6AB
S1130A400F9218BE09B60F9219BE0BB60F921BBEB9
S1130A502F933F934F935F936F937F938F939F93C2
S1130A60AF93BF93EF93FF934091340250913502BB
S1130A70E0912C20F0912D2064E080E092E0199523
S1130A80FF91EF91BF91AF919F918F917F916F9162
S1130A905F914F913F912F910F900BBE0F9009BE24
S1130AA00F9008BE0F900FBE0F901F9018951F92C5
S1130AB00F920FB60F92112408B60F9218BE09B602
S1130AC00F9219BE0BB60F921BBE2F933F934F93F9
S1130AD05F936F937F938F939F93AF93BF93EF93A2
S1130AE0FF9340913C0250913D02E0912C20F09103
S1130AF02D2068E080E092E01995FF91EF91BF917D
S1130B00AF919F918F917F916F915F914F913F91A1
S1130B102F910F900BBE0F9009BE0F9008BE0F903F
S1130B200FBE0F901F9018951F920F920FB60F9241
S1130B30112408B60F9218BE09B60F9219BE0BB64F
S1130B400F921BBE2F933F934F935F936F937F93AB
S1130B508F939F93AF93BF93EF93FF93409164025E
S1130B6050916502E0912A20F0912B2061E080E40D
S1130B7092E01995FF91EF91BF91AF919F918F9161
S1130B807F916F915F914F913F912F910F900BBE89
S1130B900F9009BE0F9008BE0F900FBE0F901F90CC
S1130BA018951F920F920FB60F92112408B60F9248
S1130BB018BE09B60F9219BE0BB60F921BBE2F9327
S1130BC03F934F935F936F937F938F939F93AF93D1
S1130BD0BF93EF93FF9340916C0250916D02E091AB
S1130BE02A20F0912B2062E080E492E01995FF9195
S1130BF0EF91BF91AF919F918F917F916F915F9191
S1130C004F913F912F910F900BBE0F9009BE0F9003
S1130C1008BE0F900FBE0F901F9018951F920F9251
S1130C200FB60F92112408B60F9218BE09B60F9290
S1130C3019BE0BB60F921BBE2F933F934F935F9336
S1130C406F937F938F939F93AF93BF93EF93FF9390
S1130C504091740250917502E0912A20F0912B206A
S1130C6064E080E492E01995FF91EF91BF91AF9118
S1130C709F918F917F916F915F914F913F912F91B0
S1130C800F900BBE0F9009BE0F9008BE0F900FBEC1
S1130C900F901F9018951F920F920FB60F92112468
S1130CA008B60F9218BE09B60F9219BE0BB60F9272
S1130CB01BBE2F933F934F935F936F937F938F93B9
S1130CC09F93AF93BF93EF93FF9340917C02509116
S1130CD07D02E0912A20F0912B2068E080E492E0EC
S1130CE01995FF91EF91BF91AF919F918F917F9152
S1130CF06F915F914F913F912F910F900BBE0F9089
S1130D0009BE0F9008BE0F900FBE0F901F9018954C
S1130D101BBEFC0128ED24BF60830895E0ECF1E0E4
S1130D2087858823ECF38091CF0181FF07C086E398
S1130D308093CA0161E08BEC91E0EACF0895E0EC86
S1130D40F1E097859923ECF3ACECB1E09C919860C9
S1130D509C93E82FF0E0F05F60838C91877F8C9305
S1130D600895FF920F931F93CF93DF93182FF92EBB
S1130D70C62F0091CA01D2DFE0ECF1E027852223DF
S1130D80ECF36C2F812FDBDFC0ECD1E01A82F98207
S1130D90188385E38A8761E08BEC91E0B9DF0A87E9
S1130DA0DF91CF911F910F91FF9008954091CA0157
S1130DB0E62FF72F8093CA0184914093CA010895C6
S1130DC0FC01918195FFFDCF608380E090E0089560
S1130DD0FC0191819923ECF7808108952F923F9231
S1130DE04F925F926F927F928F929F92AF92BF9237
S1130DF0CF92DF92EF92FF920F931F93CF931C0138
S1130E002A013B0148015901D901C801689412F82B
S1130E10B695A795979587951694D1F7B901A8012A
S1130E20032E36E176956795579547953A95D1F710
S1130E30302DF101248122FD08C0B695A795979520
S1130E408795769567955795479584159505A605D5
S1130E50B70508F4AEC0441655066606770608F4CE
S1130E60AAC0F101848182FD04C0440C551C661C97
S1130E70771CC501B401A30192010E94CA162F3F39
S1130E8031054105510508F498C0C12CD12C7601D7
S1130E90CA94C9EF05C02C153D054E055F0568F0E1
S1130EA0CC0CDD1CEE1CFF1CCD3F14F46894C0F880
S1130EB0CF5FC73081F78C2F56C08C2FCC230CF01A
S1130EC052C0D301C201880F991FAA1FBB1F880FEC
S1130ED0991FAA1FBB1F880F991FAA1FBB1F85013B
S1130EE07401E81AF90A0A0B1B0BD801C701CE3F9B
S1130EF0F4F42DEF3FEF2C1B3109C7FD339504C0EB
S1130F00880F991FAA1FBB1F2A95D2F7730162018C
S1130F10F694E794D794C794BC01CD016C0D7D1D64
S1130F208E1D9F1DA30192010E94CA1638C023E0A2
S1130F302C0F8301720104C0EE0CFF1C001F111F53
S1130F402A95D2F7A801970167017801F694E794EE
S1130F50D794C794BC01CD016C0D7D1D8E1D9F1DC2
S1130F600E94CA161CC08D5FA301920104C0220F07
S1130F70331F441F551F8A95D2F7DA01C901B6956C
S1130F80A79597958795BC01CD01680D791D8A1D9C
S1130F909B1D0E94CA162150310941095109832F12
S1130FA08F70C295C07FC82BF101C783268381E06F
S1130FB01CC080E01AC080E018C0D301C201880FB1
S1130FC0991FAA1FBB1F880F991FAA1FBB1F880F39
S1130FD0991FAA1FBB1F85017401E81AF90A0A0B9D
S1130FE01B0BD801C701C9EF84CFCF911F910F917B
S1130FF0FF90EF90DF90CF90BF90AF909F908F9035
S11310007F906F905F904F903F902F9008950F9333
S11310101F93CF93DF93EC018B01009709F436C142
S1131020803C910521F460E180E053DC2FC1C034A1
S113103084E0D80721F468E080E04BDC27C1C115C7
S1131040E4E0DE0721F464E080E043DC1FC1C03843
S1131050F1E0DF0721F462E080E03BDC17C1C11559
S113106081E0D80721F461E080E033DC0FC1C038AF
S1131070E3E0DE0721F461E081E02BDC07C1C03945
S1131080F3E0DF0721F461E082E023DCFFC0C11557
S113109082E0D80721F462E081E01BDCF7C0C034B1
S11310A0E2E0DE0721F462E082E013DCEFC0C11568
S11310B0F3E0DF0721F464E081E00BDCE7C0C03239
S11310C083E0D80721F464E082E003DCDFC0C115CB
S11310D0E8E0DE0721F461E083E0FBDBD7C0C11563
S11310E0F9E0DF0721F461E084E0F3DBCFC0C11550
S11310F08AE0D80721F461E085E0EBDBC7C0C115C5
S1131100EBE0DE0721F461E086E0E3DBBFC0C0343E
S1131110F8E0DF0721F462E083E0DBDBB7C0C03432
S113112089E0D80721F462E084E0D3DBAFC0C034A7
S1131130EAE0DE0721F462E085E0CBDBA7C0C0343F
S1131140FBE0DF0721F462E086E0C3DB9FC0C03927
S113115088E0D80721F464E083E0BBDB97C0C039A2
S1131160E9E0DE0721F464E084E0B3DB8FC0C0393A
S1131170FAE0DF0721F464E085E0ABDB87C0C03927
S11311808BE0D80721F464E086E0A3DB7FC0C03C99
S1131190E8E0DE0721F468E083E09BDB77C0C03C35
S11311A0F9E0DF0721F468E084E093DB6FC0C03C22
S11311B08AE0D80721F468E085E08BDB67C0C03C97
S11311C0EBE0DE0721F468E086E083DB5FC0C03A31
S11311D0F8E0DF0721F460E183E07BDB57C0C03A2D
S11311E089E0D80721F460E184E073DB4FC0C03AA2
S11311F0EAE0DE0721F460E185E06BDB47C0C03A3A
S1131200FBE0DF0721F460E186E063DB3FC0C03B25
S113121088E0D80721F460E283E05BDB37C0C03BA1
S1131220E9E0DE0721F460E284E053DB2FC0C03B39
S1131230FAE0DF0721F460E285E04BDB27C0C03B26
S11312408BE0D80721F460E286E043DB1FC0C0389E
S1131250E4E0DE0721F460E483E03BDB17C0C0393F
S1131260F4E0DF0721F460E484E033DB0FC0C03A2C
S113127084E0D80721F460E485E02BDB07C0C03BA1
S1131280E4E0DE0719F460E486E023DB8D818F73EC
S11312908D83F80194818581892B9681911198E041
S11312A0892B8D83F801408151816281738100E033
S11312B018E428EE31E0CE0191DD9C8198609C8396
S11312C09C8190619C83DF91CF911F910F91089530
S11312D0FF920F931F93CF93DF93C0E0D2E0FF24DC
S11312E0F394F882198280E18A8385E08C8361E239
S11312F070E082E05BDD082F10E0102F002760E231
S113130070E082E053DD082B0C871D87F8A219A238
S1131310DF91CF911F910F91FF900895E0E4F6E0E3
S113132084818F7E84830895E0E4F6E08481806183
S1131330848308958FEF8093C308E0ECF8E0828102
S11313408823ECF78091C30808958093C308E0ECE8
S1131350F8E082818823ECF70895E0DF82EAF5DF84
S1131360E9DF1092322080933320E4DF2091322091
S113137030913320280F311D2093322030933320B5
S1131380D3DFCCDF84EAE1DFD5DF1092362080930F
S11313903720D0DF2091362030913720280F311D9F
S11313A02093362030933720BFDFB8DF86EACDDFC5
S11313B0C1DF1092302080933120BCDF2091302097
S11313C030913120280F311D20933020309331206B
S11313D0ABDFA4DF88EAB9DFADDF1092342080935D
S11313E03520A8DF2091342030913520280F311D7D
S11313F0209334203093352097DF90DF8AEAA5DFED
S113140099DF10922E2080932F2094DF20912E209C
S113141030912F20280F311D20932E2030932F2020
S113142083DF7CDF8CEA91DF85DF109238208093A4
S1131430392080DF2091382030913920280F311D48
S113144020933820309339206FCF0895E0E4F6E0FC
S11314508081806B808380818F7B808380E5809313
S1131460C0087BCF08952F923F924F925F926F9264
S11314707F928F929F92AF92BF92CF92DF92EF9220
S1131480FF920F931F93CF93DF93CDB7DEB76F9780
S1131490CDBFDEBF43DF88E458DF46DF80E090E065
S11314A00196853500ED9007D9F738DF80E04DDFF0
S11314B041DFC82ED12CE12CF12C7601DD24CC2483
S11314C039DF90E0A0E0B0E0BA2FA92F982F882749
S11314D0C80ED91EEA1EFB1E2DDFA7019601280F98
S11314E0311D411D511D2D833E834F8358871CDFC1
S11314F015DF88E52ADF18DF80E090E00196853566
S113150030ED9307D9F70ADF80E01FDF13DF082FE0
S113151011DFF82E0FDF182F07DFA0912E20B091D6
S11315202F2020E03FEF4FEF5FEF0E94EC162B01DE
S11315303C01410E511C611C711C402F50E060E0C5
S113154070E0BA0155274427D301C201840F951FC7
S1131550A61FB71F4F2C512C612C712C762C652C97
S1131560542C4424480E591E6A1E7B1ED301C2010A
S1131570BB0F880B982FDC0189839A83AB83BC83D0
S113158080913220909133204C01282F392D40E056
S113159050E060E070E080E090E00FE00E944717C8
S11315A0222E3D874E875F87688B798B8A8B9B8B36
S11315B00091302010913120A02EB12EC12CD12CBD
S11315C0E12CF12C00E010E0242D352D462D572D73
S11315D06981762F862F962F0E94F616322E832E3F
S11315E0942EE52F6D8B7C8BA82EB92EA0E00E9443
S11315F09C1784F421503F4F4F4F5F4F6F4F7F4FE5
S11316008F4F9F4F322E832E942EE52F6D8B7C8B24
S1131610A82EB92E232D382D492D5E2F6D897C8956
S11316208A2D9B2D08E00E946017A22EB32EC42E93
S1131630D52EE62EF72E082F192F222D3D854E8507
S11316405F85688979898A899B890E947E1705E16B
S11316500E946217CD80DE80EF80F8845601670116
S1131660E12CF12C8701AD82BE82CF82D886E98637
S1131670FA860B871C87E12CF12C00E010E00E9415
S1131680F6162D833D874E875F87688B798B8A8B0F
S11316909B8B80913620909137204C01282F392D37
S11316A040E050E060E070E080E090E000E10E9403
S11316B04717222E332E842E952E6C8B7D8B8E8B8A
S11316C09F8B40913420509135205A01C12CD12C4C
S11316D0E12CF12C8701488FB98ECA8EDB8EEC8EFB
S11316E0FD8E0E8F1F8FA42CB52CC62CD72CE98011
S11316F0FE2C0E2D1E2D288D398D40E050E060E02B
S113170070E080E090E00E94F616E22F732E642EC3
S1131710552E462E7983A82EB92EA0E00E949C1740
S11317205CF4AFE70E948717E22F732E642E552EC8
S1131730462E7983A82EB92E2E2F372D462D552DC2
S1131740642D79818A2D9B2D07E00E946017A22EBB
S1131750B32EC42ED52EE62EF72E082F192F222DA8
S1131760332D482D592D6C897D898E899F890E943E
S11317707E17A22EB32EC42ED52EE62EF72E082FBA
S1131780192F2D813D854E855F85688979898A89E0
S11317909B890E9493170FE00E946217622F732F98
S11317A0842F952F6F96CDBFDEBFDF91CF911F9110
S11317B00F91FF90EF90DF90CF90BF90AF909F90EC
S11317C08F907F906F905F904F903F902F900895EF
S11317D08F929F92AF92BF92CF92DF92EF92FF923D
S11317E0E0E0F2E080A1806880A383A18823E9F38C
S11317F0609124027091250280E090E0A8D52CE04D
S11318003BEB43E05AE39AD62CE131E944EC5DE347
S1131810A1D49B01AC0163E373E383E590E49AD420
S11318209B01AC0160E078EE80E097E4FCD420E01A
S113183030E44CE156E48ED420E030E44CE156E44C
S1131840F2D43CD66B017C0121EF3BEB46E859E333
S113185075D62DE03FEC4BE55BE37DD44B015C0199
S11318602AE633E149E853E3C701B60167D69B0191
S1131870AC01C701B60162D69B01AC01C701B60138
S11318805DD69B01AC01C501B40165D49B01AC01DB
S113189060E070E080E89FE3C6D4FF90EF90DF90B3
S11318A0CF90BF90AF909F908F9008958FEF8093CB
S11318B06006E0E0F9E086E0808383EB81830895AD
S11318C0E0E0FBE087E08083118210A211A288E3AC
S11318D091E086A397A30895CF93DF93EB0178DA81
S11318E08883DF91CF9108956BCA0895CF93DF93D6
S11318F0CDB7DEB72797CDBFDEBFE0E4F6E088E0E2
S1131900818385838FEF848380EA98E08093282005
S11319109093292084E79CE08093262090932720AD
S11319208CE69CE08093242090932520E6E0F0E26E
S113193084818D8385818E8386818F83808191814B
S1131940A281B38189839A83AB83BC8360E183E002
S11319500E946904BE016F5F7F4F80EA98E057DB05
S113196065E774E08EE894E00E94A5182796CDBF41
S1131970DEBFDF91CF910895009709F45CC1803CEC
S1131980910529F460E180E00C94690408958034A1
S113199024E0920729F468E080E00C946904089537
S11319A0811524E0920729F464E080E00C94690432
S11319B00895803821E0920729F462E080E00C94D5
S11319C069040895811521E0920729F461E080E01B
S11319D00C9469040895803823E0920729F461E0A7
S11319E081E00C9469040895803923E0920729F476
S11319F061E082E00C9469040895811522E0920765
S1131A0029F462E081E00C9469040895803422E0B2
S1131A10920729F462E082E00C9469040895811528
S1131A2023E0920729F464E081E00C9469040895AA
S1131A30803223E0920729F464E082E00C94690484
S1131A400895811528E0920729F461E083E00C945D
S1131A5069040895811529E0920729F461E084E07E
S1131A600C946904089581152AE0920729F461E031
S1131A7085E00C946904089581152BE0920729F4FC
S1131A8061E086E00C9469040895803428E09207AC
S1131A9029F462E083E00C9469040895803429E019
S1131AA0920729F462E084E00C9469040895803478
S1131AB02AE0920729F462E085E00C946904089511
S1131AC080342BE0920729F462E086E00C946904E8
S1131AD00895803928E0920729F464E083E00C94A7
S1131AE069040895803929E0920729F464E084E0C8
S1131AF00C946904089580392AE0920729F464E07B
S1131B0085E00C946904089580392BE0920729F448
S1131B1064E086E00C9469040895803C28E0920710
S1131B2029F468E083E00C9469040895803C29E07A
S1131B30920729F468E084E00C9469040895803CD9
S1131B402AE0920729F468E085E00C94690408957A
S1131B50803C2BE0920729F468E086E00C94690449
S1131B600895803A28E0920729F460E183E00C9418
S1131B7069040895803A29E0920729F460E184E039
S1131B800C9469040895803A2AE0920729F460E1EC
S1131B9085E00C9469040895803A2BE0920729F4B7
S1131BA060E186E00C9469040895803B28E0920784
S1131BB029F460E283E00C9469040895803B29E0F1
S1131BC0920729F460E284E00C9469040895803B50
S1131BD02AE0920729F460E285E00C9469040895F0
S1131BE0803B2BE0920729F460E286E00C946904C0
S1131BF00895803824E0920729F460E483E00C948B
S1131C0069040895803924E0920729F460E484E0AB
S1131C100C9469040895803A24E0920729F460E45E
S1131C2085E00C9469040895803B944021F460E4B9
S1131C3086E00C9469040895CF92DF92EF92FF92AC
S1131C400F931F93CF93DF9387E08093000965E0A0
S1131C5084E294EF0E94150480913E2060E090E0BD
S1131C6080D880913E208F5F80933E200E94760230
S1131C7020914320309144204091452050914620AA
S1131C8069D260933F2070934020809341209093C9
S1131C9042200AEA11E1D4E0C0E01BC00E947602AF
S1131CA0209143203091442040914520509146207A
S1131CB051D260933F2070934020809341209093B1
S1131CC04220802F912FAD2FBC2F0197A109B1097C
S1131CD0E1F7C0903F20D0904020E0904120F09068
S1131CE042202FE335E34CE052E4C701B60197D21A
S1131CF08823A4F22FEB3EE04CE95EE3C701B60172
S1131D0092D2F9D280913E2090E02BD880913E204F
S1131D108F5F80933E20DF91CF911F910F91FF90B1
S1131D20EF90DF90CF900895CF92DF92EF92FF92E1
S1131D300F931F93CF93DF9387E0809300096AE0AA
S1131D4087EA91E60E94150480913E2061E090E0CC
S1131D5008D80E947602209143203091442040917B
S1131D60452050914620F6D16B017C0160933F20C1
S1131D7070934020809341209093422029E23CE5D7
S1131D8045E553E44CD288230CF03AC005E518E548
S1131D90D4E1C0E02FEB3EE04CE95EE3C701B601BD
S1131DA042D2A9D280913E2090E00E94B106809157
S1131DB03E208F5F80933E20802F912FAD2FBC2F2C
S1131DC00197A109B109E1F70E947602209143200D
S1131DD0309144204091452050914620BBD16B0165
S1131DE07C0160933F207093402080934120909326
S1131DF0422029E23CE545E553E411D2882354F21C
S1131E002FEB3EE04CE95EE3C701B6010CD273D27E
S1131E1080913E2090E00E94B10680913E208F5F29
S1131E2080933E20DF91CF911F910F91FF90EF900F
S1131E30DF90CF90089587E0809300096AE082E103
S1131E409AE70E9415048CE790E00E9401048091B7
S1131E503E2063E090E00E94B1060E947602209149
S1131E60432030914420409145205091462072D126
S1131E7060933F20709340208093412090934220B0
S1131E80C3E0D0E06894EE24E7F80F2EFFE0FF2EC5
S1131E90F02D0EE51FE560913F2070914020809168
S1131EA041209091422027D280913E2090E00E94D0
S1131EB0B10680913E208F5F80933E208E2D9F2D12
S1131EC0A02FB12F0197A109B109E1F70E94760271
S1131ED02091432030914420409145205091462048
S1131EE039D160933F207093402080934120909398
S1131EF04220219781F6FFCF80914720882379F0F3
S1131F0081E08093A4068BEA92ECA2EAB0E0019708
S1131F10A109B109E1F71092A4061092472008958F
S1131F20CF92DF92EF92FF920F931F93CF93DF93A1
S1131F3086E0809300096AE083ED90E30E94150433
S1131F4083ED90E30E942B048BEA92ECA2EAB0E0CA
S1131F500197A109B109E1F782E08093A40685E520
S1131F6091E6A1E5B0E00197A109B109E1F710926A
S1131F70A40680913E2062E090E00E94B1060E9497
S1131F807602209143203091442040914520509185
S1131F904620E0D06B017C0160933F207093402089
S1131FA080934120909342202CEA3CE146E052E4A5
S1131FB036D188230CF04BC005E518E5D4E1C0E028
S1131FC00E94AC022FE632E143EC51EC28D1882385
S1131FD00CF492DF2FEB3EE04CE95EE360913F208E
S1131FE07091402080914120909142201CD183D156
S1131FF080913E2090E00E94B10680913E208F5F48
S113200080933E20802F912FAD2FBC2F0197A109E3
S1132010B109E1F70E9476022091432030914420D7
S1132020409145205091462095D06B017C016093EE
S11320303F207093402080934120909342202CEACB
S11320403CE146E052E4EBD088230CF4B9CF2FEB0B
S11320503EE04CE95EE3C701B601E5D04CD1809186
S11320603E2090E00E94B10680913E208F5F8093D5
S11320703E20DF91CF911F910F91FF90EF90DF9061
S1132080CF9008950E943F0480EA98E075DC80E0D8
S113209092E072DC80E09AE06FDC80E099E06CDC36
S11320A080E098E069DC80E09BE066DC80EC98E00E
S11320B063DC64E085E00E94690464E084E00E94DB
S11320C0690464E086E00E94690468E083E00E9499
S11320D069040CDCBBD9EADBF3DBFAD810923E20AE
S11320E010923F20109240201092412010924220E2
S11320F010923A2010923B2010923C2010923D20E6
S113210010924320109244201092452010924620B1
S1132110109247208FEF80936006E0E8F6E080831A
S113212083E08093A00614828AEA96EEA6E9B1E0E1
S11321300197A109B109E1F70E9476026093432057
S113214070934420809345209093462075DDECDD08
S1132150E7DE71DE5058BB27AA270ED070C161D1CB
S113216030F066D120F031F49F3F11F41EF456C1D3
S11321700EF4E095E7FB4CC1E92F72D180F3BA1756
S1132180620773078407950718F071F49EF58AC1F6
S11321900EF4E0950B2EBA2FA02D0B01B90190017E
S11321A00C01CA01A0011124FF27591B99F0593FC2
S11321B050F4503E68F11A16F040A22F232F342F0A
S11321C04427585FF3CF469537952795A795F04058
S11321D05395C9F77EF41F16BA0B620B730B840B6D
S11321E0BAF09150A1F0FF0FBB1F661F771F881F25
S11321F0C2F70EC0BA0F621F731F841F48F487957D
S113220077956795B795F7959E3F08F0B3CF93956B
S1132210880F08F09927EE0F979587950895D4D0E5
S113222008F481E008950CD00AC102D140F0F9D03D
S113223030F021F45F3F19F0EBC0511134C1EEC00E
S11322400FD198F39923C9F35523B1F3951B550B7B
S1132250BB27AA2762177307840738F09F5F5F4F75
S1132260220F331F441FAA1FA9F333D00E2E3AF0B6
S1132270E0E830D091505040E695001CCAF729D0D0
S1132280FE2F27D0660F771F881FBB1F261737071F
S11322904807AB07B0E809F0BB0B802DBF01FF274F
S11322A093585F4F2AF09E3F510568F0B1C0FBC0C0
S11322B05F3FECF3983EDCF3869577956795B79589
S11322C0F7959F5FC9F7880F911D9695879597F9A4
S11322D00895E1E0660F771F881FBB1F621773071D
S11322E08407BA0720F0621B730B840BBA0BEE1F32
S11322F088F7E0950895BCD088F09F5790F0B92FE7
S11323009927B751A0F0D1F0660F771F881F991F46
S11323101AF0BA95C9F712C0B13081F0C3D0B1E058
S11323200895C0C0672F782F8827B85F39F0B93F68
S1132330CCF3869577956795B395D9F73EF4909548
S11323408095709561957F4F8F4F9F4F0895E894C6
S113235009C097FB3EF490958095709561957F4FE9
S11323608F4F9F4F9923A9F0F92F96E9BB27939597
S1132370F695879577956795B795F111F8CFFAF4A7
S1132380BB0F11F460FF1BC06F5F7F4F8F4F9F4FD8
S113239016C0882311F096E911C0772321F09EE836
S11323A0872F762F05C0662371F096E8862F70E09C
S11323B060E02AF09A95660F771F881FDAF7880F76
S11323C09695879597F90895990F0008550FAA0BCC
S11323D0E0E8FEEF16161706E807F907C0F0121634
S11323E01306E407F50798F0621B730B840B950B37
S11323F039F40A2661F0232B242B252B21F408958C
S11324000A2609F4A140A6958FEF811D811D089528
S113241097F99F6780E870E060E008959FEF80EC93
S1132420089500240A941616170618060906089536
S113243000240A9412161306140605060895092E9C
S11324400394000C11F4882352F0BB0F40F4BF2B0B
S113245011F460FF04C06F5F7F4F8F4F9F4F08954B
S113246057FD9058440F551F59F05F3F71F0479541
S1132470880F97FB991F61F09F3F79F08795089526
S1132480121613061406551FF2CF4695F1DF08C045
S1132490161617061806991FF1CF86957105610562
S11324A008940895E894BB2766277727CB0197F90A
S11324B008950EF0A6C0B2CF6894AACFD9DFC8F3AE
S11324C09923D1F3C6F3DF93CF931F930F93FF9216
S11324D0C92FDD2788232AF02197660F771F881FCD
S11324E0DAF720E030E040E85FEB9FE3883920F042
S11324F0803E30F021968F772EDEE4EFF1E003C0CA
S11325002ADEE1E2F2E08BD08B01BE01EC01FB2E6E
S11325106F5771097595771F880B990B1ADF28E19E
S113252032E741E35FE316D0AF2D9801AE01FF908F
S11325300F911F91CF91DF911FDE81CF0BD07FCF01
S113254070DF28F075DF18F0952309F061CF66CFAE
S11325501124A9CF85DFA0F3959FD1F3950F50E007
S1132560551F629FF001729FBB27F00DB11D639F41
S1132570AA27F00DB11DAA1F649F6627B00DA11DE7
S1132580661F829F2227B00DA11D621F739FB00D8D
S1132590A11D621F839FA00D611D221F749F3327FD
S11325A0A00D611D231F849F600D211D822F762F96
S11325B06A2F11249F5750408AF0E1F088234AF093
S11325C0EE0FFF1FBB1F661F771F881F91505040DF
S11325D0A9F79E3F510570F01BCF65CF5F3FECF329
S11325E0983EDCF3869577956795B795F795E795CB
S11325F09F5FC1F7FE2B880F911D9695879597F9DC
S113260008959F3F31F0915020F487957795679511
S1132610B795880F911D9695879597F90895DF933F
S1132620CF931F930F93FF92EF92DF927B018C0164
S1132630689405C0DA2EEF018DDFFE01E894A591C0
S11326402591359145915591AEF3EF0195DDFE014C
S11326509701A801DA9479F7DF90EF90FF900F913A
S11326601F91CF91DF9108952F923F924F925F92E5
S11326706F927F928F929F92AF92BF92CF92DF928E
S1132680EF92FF920F931F93CF93DF93CDB7DEB7F3
S11326906397CDBFDEBF6C014B012A01FC0116829A
S11326A01782838181FF29C3AE014F5F5F4F3A01D7
S11326B0F6019381F40193FD859193FF81914F017C
S11326C0882309F416C3853239F493FD859193FF69
S11326D081914F01853231F4B60190E080D55201E9
S11326E02501E6CF10E0F12C20E02032A0F48B325B
S11326F069F030F4803259F0833269F420612CC0DF
S11327008D3239F0803339F4216026C02260246090
S113271023C0286021C027FD27C030ED380F3A3090
S113272078F426FF06C0FAE01F9F300D1124132F02
S113273013C04AE0F49E300D1124F32E20620CC025
S11327408E3221F426FDD5C2206406C08C3611F4E5
S1132750206802C0883641F4F40193FD859193FF0B
S113276081914F018111C1CF9BEB980F933018F4E5
S11327702061805E06C09BE9980F933008F064C125
S11327802F7E26FF16E02F73322E853619F420642F
S1132790322E08C0863621F4F22FF0683F2E02C094
S11327A01111115037FE07C01C3350F4EE24E3948A
S11327B0E10E27E00BC0183038F027E017E005C021
S11327C027E04CE3E42E02C0212FE12C520144E027
S11327D0A40EB11CF20160817181828193810E2D5E
S11327E0A301C5D32C01098100FF02C003FF07C068
S11327F031FC08C032FE09C030E2232E07C02DE2AE
S1132800222E04C09BE2292E01C0212C802F8C7023
S113281019F0211051C28DC237FE0FC0E40C04FF21
S113282004C08A81813309F4EA941E1474F5F8E033
S1132830FE1578F588E0E82E2CC036FC2AC0812FDE
S113284090E0841595059CF02CEF42162FEF52066C
S113285074F0432D4068342E0AC0E2E0F0E0EC0F3F
S1132860FD1FE10FF11D8081803319F41150111106
S1132870F4CF37FE0EC0EE24E394E10E812F90E0F6
S1132880481659062CF4141904C0EE24E39401C02C
S113289010E037FE06C01414150434F4C201019686
S11328A005C085E090E002C081E090E0211001962F
S11328B0112331F0212F30E02F5F3F4F820F931F00
S11328C02F2D30E08217930714F4F81A01C0F12C6D
S11328D0832D897041F4FF2031F0B60180E290E04D
S11328E07ED4FA94F8CF222021F0B601822D90E014
S11328F076D433FC08C0FF2031F0B60180E390E0C9
S11329006ED4FA94F8CF37FE58C0942D852D57FE17
S113291002C090E080E0292E382E20E030E0A201B1
S11329204E1951094C875D87A201421953094E87FC
S11329305F87612F70E044275527461B570B488B50
S1132940598B5FEF2516350641F4B6018EE290E00F
S11329502A8B3B8B44D43B892A89421453046CF060
S11329604C855D854215530544F4EE85FF85E20FE1
S1132970F31FE60DF71D818101C080E351E0251AA4
S113298031082F5F3F4F488959892416350644F092
S1132990B60190E02A8B3B8B22D42A893B89D1CF84
S11329A02414350439F49A81963318F4953311F4C8
S11329B004FF81E3B60190E045C08A81813309F0C8
S11329C00F7EB60190E00BD4111105C034FC16C083
S11329D085E690E015C0B6018EE290E000D482E076
S11329E0EE24E394E80EF301E80FF11D8081B601B3
S11329F090E0F5D311508E2D99F7E8CF85E490E05F
S1132A00B601EDD357FC05C04114510439F404FF59
S1132A1005C05194419451088DE201C08BE2B60186
S1132A2090E0DDD380E39AE0491651042CF08F5FE7
S1132A305AE0451A5108F7CFB60190E0D0D3B60159
S1132A40C201C096CCD34CC1833631F0833779F0C0
S1132A50833509F054C020C05201E2E0AE0EB11C2F
S1132A60F2018081898301E010E0230113C0520147
S1132A70F2E0AF0EB11CF2014080518026FF03C08A
S1132A80612F70E002C06FEF7FEFC2012A8B52D337
S1132A908C012A892F7714C05201F2E0AF0EB11CC9
S1132AA0F2014080518026FF03C0612F70E002C014
S1132AB06FEF7FEFC2012A8B32D38C012A89206801
S1132AC0322E23FD18C08F2D90E00817190798F4B3
S1132AD0B60180E290E083D3FA94F5CFF20137FC9B
S1132AE0859137FE81912F01B60190E078D3F110E2
S1132AF0FA94015011090115110581F7F1C08436CA
S1132B0011F0893651F5520127FF09C0F4E0AF0EE8
S1132B10B11CF20160817181828193810AC0F2E06B
S1132B20AF0EB11CF20160817181072E000C880B7D
S1132B30990B2F76322E97FF09C09095809570954A
S1132B4061957F4F8F4F9F4F2068322E2AE030E0EF
S1132B50A30190D3E82EE6183EC0022F853721F456
S1132B600F7E2AE030E01DC0097F8F3691F018F403
S1132B70883559F0BEC0803719F0883711F0B9C0D4
S1132B80006104FF09C0046007C024FF08C0066098
S1132B9006C028E030E005C020E130E002C020E1BA
S1132BA032E0520107FF09C0F4E0AF0EB11CF2019C
S1132BB0608171818281938108C0F2E0AF0EB11C03
S1132BC0F2016081718180E090E0A30153D3E82E8B
S1132BD0E6180F77302E36FE0BC0332D3E7FE116FC
S1132BE050F434FE0AC032FC08C0332D3E7E05C0CA
S1132BF00E2D332D03C00E2D01C0012F34FF0CC048
S1132C00FE01EE0DF11D8081803311F4397E08C080
S1132C1032FF05C00E5F04C0832F867809F00F5F72
S1132C2033FD12C030FF06C01E2D0F1518F41F0D02
S1132C30101B0F2D0F1560F4B60180E290E03B8B62
S1132C40CED20F5F3B89F6CF0F1510F4F01A01C0F6
S1132C50F12C34FF11C0B60180E390E03B8BBFD26E
S1132C603B8932FF16C031FD03C088E790E002C003
S1132C7088E590E0B6010CC0832F867851F031FFCF
S1132C8002C08BE201C080E237FD8DE2B60190E024
S1132C90A6D2E11630F4B60180E390E0A0D2115040
S1132CA0F8CFEA94F301EE0DF11D8081B60190E0B6
S1132CB096D2E110F6CF14C0F4E0FF1548F584E095
S1132CC0F81A33FE1DC0211024C003FF27C00EE4F0
S1132CD012E0F32DF0713F2EF8018491811121C08F
S1132CE0FF2009F4FDCCB60180E290E078D2FA949A
S1132CF0F7CFF6018681978123C08FEF9FEF20C025
S1132D00B60180E290E06BD2FA94F110F9CFDBCFF8
S1132D10F12CB601822D90E062D2D7CF02E512E009
S1132D20D8CF31108052B60190E059D20F5F1F4FB7
S1132D30D3CF23E02F1510F483E0C2CFF12CC5CFFD
S1132D406396CDBFDEBFDF91CF911F910F91FF90AE
S1132D50EF90DF90CF90BF90AF909F908F907F9037
S1132D606F905F904F903F902F900895AA1BBB1BCC
S1132D7051E107C0AA1FBB1FA617B70710F0A61B77
S1132D80B70B881F991F5A95A9F780959095BC0198
S1132D90CD010895A1E21A2EAA1BBB1BFD010DC093
S1132DA0AA1FBB1FEE1FFF1FA217B307E407F507F7
S1132DB020F0A21BB30BE40BF50B661F771F881FD3
S1132DC0991F1A9469F760957095809590959B0169
S1132DD0AC01BD01CF010895BBD0A59F900DB49F58
S1132DE0900DA49F800D911D11240895DF93CF931E
S1132DF01F930F939A9DF02D219FF00D8B9DF00D45
S1132E008A9DE02DF10D039FF00D029FE00DF11D51
S1132E104E9DE00DF11D5E9DF00D4F9DF00D7F93D5
S1132E206F93BF92AF925F934F93D50191D08B0173
S1132E30AC01D7018DD0EB01E80FF91FD6011FD0EB
S1132E402F913F91D60184D0C60FD71FE81FF91FD9
S1132E50AF91BF9114D02F913F917AD0C60FD71F55
S1132E60E81FF91FD60174D0E60FF71F9801BE01C1
S1132E70CF0111240F911F91CF91DF91089568D054
S1132E80460F571FC81FD91F08F4319608950F9392
S1132E90083090F0982F872F762F652F542F432FCB
S1132EA0322F22270850F4CF220F331F441F551FFF
S1132EB0661F771F881F991F0A95B2F70F9108950F
S1132EC097FB10F8169400080F93083098F00850F8
S1132ED0232F342F452F562F672F782F892F902D8E
S1132EE0F4CF05949795879577956795579547956A
S1132EF0379527950A95AAF70F9108952A0D3B1D3A
S1132F004C1D5D1D6E1D7F1D801F911F08950024A3
S1132F10A7FD00942A0F301D401D501D601D701D1B
S1132F20801D901D08952A193B094C095D096E09FD
S1132F307F09800B910B08950024A7FD00942A17A4
S1132F40300540055005600570058005900508951D
S1132F50A29FB001B39FC001A39F700D811D1124D6
S1132F60911DB29F700D811D1124911D089528306B
S1132F7008F027E03327DA01990F311D87FD9160AE
S1132F8000966105710539F432602E5F3D9330E39C
S1132F902A95E1F708959F3F30F080387105610567
S1132FA009F03C5F3C5F3D93913008F08068911DCF
S1132FB0DF93CF931F930F93FF92EF92192F987F74
S1132FC09695E92F96959695E90FFF27E055FD4FC5
S1132FD099273327EE24FF24A701E70105900894DD
S1132FE0079428F4360FE71EF81E491F511D660F7B
S1132FF0771F881F991F0694A1F70590079428F45A
S1133000E70EF81E491F561FC11D770F881F991F11
S1133010661F0694A1F70590079428F4F80E491F3B
S1133020561FC71FD11D880F991F661F771F06944F
S1133030A1F70590079420F4490F561FC71FD81F06
S1133040990F661F771F881F0694A9F7849110951E
S1133050177041F0D695C79557954795F794E7941F
S11330601A95C1F7E6E5F2E068941590159135914B
S11330706591959105907FE27395E118F10A430BF0
S1133080560BC90BD009C0F7E10CF11E431F561FA4
S1133090C91FD01D7EF4703311F48A95E6CFE894ED
S11330A0015030F0080F0AF40027021708F4202F0B
S11330B02395022F7A3328F079E37D932A95E9F753
S11330C010C07D932A9589F6069497956795379550
S11330D017951794E118F10A430B560BC90BD00945
S11330E098F023957E9173957A3308F070E37C937E
S11330F02013B8F77E9170617D9330F0839571E36E
S11331007D9370E32A95E1F71124EF90FF900F91DE
S11331101F91CF91DF91992787FD90950895FC0128
S11331200590615070400110D8F7809590958E0FEE
S11331309F1F0895FC016150704001900110D8F761
S1133140809590958E0F9F1F08950F931F93CF9393
S1133150DF93009731F46115710519F480E090E074
S113316039C08B01EC016EE070E081E090E0E0D0CA
S1133170FC01892B99F380E883830115110571F013
S11331800287138781E883838091482090914920A6
S1133190892B21F4E0934820F09349202097C9F02B
S11331A0C087D18783818260838380914A209091F4
S11331B04B20892B71F4E0934A20F0934B208091AB
S11331C04C2090914D20892B21F4E0934C20F093D6
S11331D04D20CF01DF91CF911F910F9108950F934F
S11331E01F93CF93DF93FB01238121FD03C08FEF56
S11331F09FEF28C022FF16C0468157812481358164
S11332004217530744F4A081B1819D012F5F3F4FC2
S1133210208331838C93268137812F5F3F4F268310
S1133220378310C0EB01092F182F0084F185E02D9E
S11332301995892BE1F68E819F8101968E839F8358
S1133240812F902FDF91CF911F910F910895CF93EC
S1133250DF93CDB7DEB7AE014A5F5F4FFA016191EC
S11332607191AF0180914A2090914B20FDD9DF915B
S1133270CF910895FA01AA27283051F1203181F124
S1133280E8946F936E7F6E5F7F4F8F4F9F4FAF4F6A
S1133290B1E03ED0B4E03CD0670F781F891F9A1F7D
S11332A0A11D680F791F8A1F911DA11D6A0F711D31
S11332B0811D911DA11D20D009F468943F912AE03D
S11332C0269F11243019305D3193DEF6CF01089525
S11332D0462F4770405D4193B3E00FD0C9F7F6CF56
S11332E0462F4F70405D4A3318F0495D31FD40521E
S11332F0419302D0A9F7EACFB4E0A69597958795B4
S113330077956795BA95C9F7009761057105089592
S11333109B01AC010A2E069457954795379527953E
S1133320BA95C9F7620F731F841F951FA01D0895D6
S11333300F931F93CF93DF93869F8001879F100D78
S1133340969F100D1124C8010DD0EC01009721F0B7
S1133350A80160E070E033D1CE01DF91CF911F91DD
S11333600F910895CF93DF938230910510F482E09A
S113337090E0E0915020F091512020E030E0C0E056
S1133380D0E0309711F14081518148175907C0F0BE
S11333904817590761F482819381209719F08A8331
S11333A09B832BC0809350209093512026C02115DD
S11333B0310519F04217530718F49A01BE01DF01D1
S11333C0EF010280F381E02DDCCF2115310509F1F5
S11333D0281B390B2430310590F412968D919C9161
S11333E013976115710521F0FB018283938304C057
S11333F08093502090935120FD01329644C0FD01EA
S1133400E20FF31F81939193225031092D933C9342
S11334103AC020914E2030914F20232B41F420912B
S113342002203091032020934E2030934F2020918E
S11334300020309101202115310541F42DB73EB70C
S11334404091042050910520241B350BE0914E201F
S1133450F0914F20E217F307A0F42E1B3F0B28171F
S1133460390778F0AC014E5F5F4F2417350748F0F9
S11334704E0F5F1F40934E2050934F2081939193A2
S113348002C0E0E0F0E0CF01DF91CF9108950F9307
S11334901F93CF93DF93009709F48CC0FC013297FC
S11334A012821382009150201091512001151105B0
S11334B081F420813181820F931F20914E2030911D
S11334C04F202817390779F5E0934E20F0934F20C9
S11334D071C0D80140E050E0AE17BF0750F4129617
S11334E02D913C911397AD012115310509F1D901B5
S11334F0F3CF9D01DA012283338360817181860FCA
S1133500971F8217930769F4EC0128813981260FEC
S1133510371F2E5F3F4F208331838A819B818283B3
S11335209383452B29F4E0935020F093512042C01B
S11335301296ED93FC931397ED01499159919E01D5
S1133540240F351FE217F30771F480819181840FF2
S1133550951F02968D939C93119782819381129665
S11335608D939C931397E0E0F0E0D80112968D912F
S11335709C911397009719F0F8018C01F6CF8D9167
S11335809C9198012E5F3F4F820F931F20914E20F4
S113359030914F202817390769F4309729F4109295
S11335A050201092512002C01282138200934E20A8
S11335B010934F20DF91CF911F910F910895DC015B
S11335C001C06D9341505040E0F70895F894FFCF47
S11335D000005220200000C2010003000161727249
S10F35E05F76656C3A20252E32660A00E6
S9030000FC
