:10000000F9C000001CC100001AC1000018C10000A6
:1000100016C1000014C1000012C1000010C1000090
:100020000EC100000CC1000025C1000046C1000047
:1000300006C1000004C1000002C1000000C10000B0
:10004000FEC00000FCC00000FAC00000F8C00000C4
:10005000F6C00000F4C00000F2C00000F0C00000D4
:10006000EEC00000ECC00000EAC00000E8C00000E4
:10007000E6C00000E4C00000E2C00000E0C00000F4
:10008000DEC00000DCC00000DAC00000D8C0000004
:10009000D6C00000D4C00000D2C00000EEC20000F4
:1000A00029C3000064C300009FC30000C8C0000053
:1000B000C6C00000C4C00000C2C00000C0C0000034
:1000C000BEC00000BCC00000BAC00000B8C0000044
:1000D000B6C00000B4C00000B2C00000B0C0000054
:1000E000AEC00000ACC00000AAC00000A8C0000064
:1000F000A6C00000A4C00000A2C00000A0C0000074
:100100009EC000009CC000009AC0000098C0000083
:1001100096C0000094C0000092C00000BAC1000068
:10012000F5C1000030C200006BC2000088C00000B2
:1001300086C0000084C0000082C0000080C00000B3
:100140007EC000007CC000007AC0000078C00000C3
:1001500076C0000074C0000072C0000070C00000D3
:100160006EC000006CC000006AC0000068C00000E3
:1001700066C0000064C0000062C0000060C00000F3
:100180005EC000005CC000005AC0000058C0000003
:1001900056C0000054C0000052C0000050C0000013
:1001A0004EC000004CC000004AC0000048C0000023
:1001B00046C0000044C0000042C0000040C0000033
:1001C0003EC000003CC000003AC0000038C0000043
:1001D00036C0000034C0000032C0000030C0000053
:1001E0002EC000002CC000002AC0000028C0000063
:1001F00026C0000011241FBECFEFCDBFDFE3DEBF5E
:1002000000E00CBF18BE19BE1ABE1BBE10E2A0E073
:10021000B0E2EAEBF4E100E00BBF02C007900D9200
:10022000AE30B107D9F71BBE20E2AEE0B0E201C0AC
:100230001D92A033B207E1F75FD70C945B0AE0CEC2
:1002400064E080E0EFD0E0E0F4E08FEF9FEF8287A2
:100250009387108611869FB7F894A6E1B0E21396B3
:100260008C9113978F5F13968C939FBF81E082834D
:10027000808308951F920F920FB60F92112408B633
:100280000F9218BE0BB60F921BBE8F939F93EF93E6
:10029000FF93EEE0F0E2808191810196808391836B
:1002A000FF91EF919F918F910F900BBE0F9008BE21
:1002B0000F900FBE0F901F9018951F920F920FB6C0
:1002C0000F92112408B60F9218BE09B60F9219BEEC
:1002D0000BB60F921BBECF92DF92EF92FF920F935D
:1002E0001F932F933F934F935F936F937F938F93BE
:1002F0009F93AF93BF93EF93FF93EEE0F0E2808183
:1003000091812281338182179307F0F121E02093BC
:100310000204E0911420F09115203097A9F160912A
:10032000080470910904A0E0B0E0DC019927882757
:10033000AB0160E070E08C019D01042B152B262B96
:10034000372BC901B801AEE0B0E212960D911C91B5
:10035000139720E030E09801112700271496CD90E4
:10036000DC901597E12CF12C0C291D292E293F2911
:10037000061717072807390730F0C901B8016F5F62
:100380007F4F8F4F9F4F1995FF91EF91BF91AF9185
:100390009F918F917F916F915F914F913F912F919D
:1003A0001F910F91FF90EF90DF90CF900F900BBEB9
:1003B0000F9009BE0F9008BE0F900FBE0F901F90B8
:1003C0001895E0ECF8E080E4808382E08183089572
:1003D0008FEF809370008093710080937200809300
:1003E00073008093740080937500809376009FB7AC
:1003F000F894E0E5F0E08081826080839FBF818196
:1004000081FFFDCF61E080E490E02BD29FB7F894AC
:10041000E0E5F0E080818E7F80839FBF81E0809364
:10042000430008959FB7F894E82FF0E0E059FF4F9C
:1004300060958081682360839FBF0895CF93DF9389
:100440001F92CDB7DEB78091202090912120E091BE
:100450001C20F0911D20BE016F5F7F4F199589818F
:10046000082E000C990B0F90DF91CF910895682F03
:100470008091202090912120E0911E20F0911F205A
:10048000199599231CF081E090E008958FEF9FEF7C
:1004900008951F920F920FB60F92112408B60F9273
:1004A00018BE09B60F9219BE0BB60F921BBE2F9342
:1004B0003F934F935F936F937F938F939F93AF93EC
:1004C000BF93EF93FF934091240250912502E09156
:1004D0002420F091252061E080E092E01995FF91C1
:1004E000EF91BF91AF919F918F917F916F915F91AC
:1004F0004F913F912F910F900BBE0F9009BE0F901F
:1005000008BE0F900FBE0F901F9018951F920F926C
:100510000FB60F92112408B60F9218BE09B60F92AB
:1005200019BE0BB60F921BBE2F933F934F935F9351
:100530006F937F938F939F93AF93BF93EF93FF93AB
:1005400040912C0250912D02E0912420F091252021
:1005500062E080E092E01995FF91EF91BF91AF9139
:100560009F918F917F916F915F914F913F912F91CB
:100570000F900BBE0F9009BE0F9008BE0F900FBEDC
:100580000F901F9018951F920F920FB60F92112483
:1005900008B60F9218BE09B60F9219BE0BB60F928D
:1005A0001BBE2F933F934F935F936F937F938F93D4
:1005B0009F93AF93BF93EF93FF9340913402509179
:1005C0003502E0912420F091252064E080E092E063
:1005D0001995FF91EF91BF91AF919F918F917F916D
:1005E0006F915F914F913F912F910F900BBE0F90A4
:1005F00009BE0F9008BE0F900FBE0F901F90189568
:100600001F920F920FB60F92112408B60F9218BEC8
:1006100009B60F9219BE0BB60F921BBE2F933F93D4
:100620004F935F936F937F938F939F93AF93BF93FA
:10063000EF93FF9340913C0250913D02E0912420C2
:10064000F091252068E080E092E01995FF91EF910C
:10065000BF91AF919F918F917F916F915F914F91DA
:100660003F912F910F900BBE0F9009BE0F9008BEC7
:100670000F900FBE0F901F9018951F920F920FB6FC
:100680000F92112408B60F9218BE09B60F9219BE28
:100690000BB60F921BBE2F933F934F935F936F93B5
:1006A0007F938F939F93AF93BF93EF93FF9340916B
:1006B000640250916502E0912220F091232061E0D4
:1006C00080E492E01995FF91EF91BF91AF919F91D6
:1006D0008F917F916F915F914F913F912F910F90EB
:1006E0000BBE0F9009BE0F9008BE0F900FBE0F906B
:1006F0001F9018951F920F920FB60F92112408B6F3
:100700000F9218BE09B60F9219BE0BB60F921BBE00
:100710002F933F934F935F936F937F938F939F9309
:10072000AF93BF93EF93FF9340916C0250916D0292
:10073000E0912220F091232062E080E492E019957C
:10074000FF91EF91BF91AF919F918F917F916F91A9
:100750005F914F913F912F910F900BBE0F9009BE6B
:100760000F9008BE0F900FBE0F901F9018951F920C
:100770000F920FB60F92112408B60F9218BE09B649
:100780000F9219BE0BB60F921BBE2F933F934F9340
:100790005F936F937F938F939F93AF93BF93EF93E9
:1007A000FF934091740250917502E0912220F091E4
:1007B000232064E080E492E01995FF91EF91BF91CE
:1007C000AF919F918F917F916F915F914F913F91E9
:1007D0002F910F900BBE0F9009BE0F9008BE0F9087
:1007E0000FBE0F901F9018951F920F920FB60F9289
:1007F000112408B60F9218BE09B60F9219BE0BB697
:100800000F921BBE2F933F934F935F936F937F93F2
:100810008F939F93AF93BF93EF93FF9340917C028D
:1008200050917D02E0912220F091232068E080E445
:1008300092E01995FF91EF91BF91AF919F918F91A8
:100840007F916F915F914F913F912F910F900BBED0
:100850000F9009BE0F9008BE0F900FBE0F901F9013
:1008600018951BBEFC0128ED24BF608308954091BC
:10087000CA01E62FF72F8093CA0184914093CA01E1
:100880000895FC01918195FFFDCF608380E090E0A9
:100890000895FC0191819923ECF7808108952F92AE
:1008A0003F924F925F926F927F928F929F92AF9200
:1008B000BF92CF92DF92EF92FF920F931F93CF934D
:1008C0001C012A013B0148015901D901C801689462
:1008D00012F8B695A795979587951694D1F7B90113
:1008E000A801032E36E176956795579547953A9579
:1008F000D1F7302DF101248122FD08C0B695A795CE
:10090000979587957695679557954795841595059D
:10091000A605B70508F4AAC044165506660677066C
:1009200008F4A6C0F101848182FD04C0440C551C6A
:10093000661C771CC501B401A301920102D42F3FAC
:1009400031054105510508F495C0C12CD12C760123
:10095000CA94C9EF05C02C153D054E055F0568F02A
:10096000CC0CDD1CEE1CFF1CCD3F14F46894C0F8C9
:10097000CF5FC73081F78C2F54C08C2FCC230CF065
:1009800050C0D301C201880F991FAA1FBB1F880F37
:10099000991FAA1FBB1F880F991FAA1FBB1F850184
:1009A0007401E81AF90A0A0B1B0BD801C701CE3FE4
:1009B000ECF42DEF3FEF2C1B3109C7FD339504C03C
:1009C000880F991FAA1FBB1F2A95D2F773016201D6
:1009D000F694E794D794C794BC01CD016C0D7D1DAE
:1009E0008E1D9F1DA3019201ACD336C023E02C0FB6
:1009F0008301720104C0EE0CFF1C001F111F2A9519
:100A0000D2F7A801970167017801F694E794D7948B
:100A1000C794BC01CD016C0D7D1D8E1D9F1D91D312
:100A20001BC08D5FA301920104C0220F331F441F1E
:100A3000551F8A95D2F7DA01C901B695A795979502
:100A40008795BC01CD01680D791D8A1D9B1D79D349
:100A50002150310941095109832F8F70C295C07F00
:100A6000C82BF101C783268381E01CC080E01AC037
:100A700080E018C0D301C201880F991FAA1FBB1FB5
:100A8000880F991FAA1FBB1F880F991FAA1FBB1F82
:100A900085017401E81AF90A0A0B1B0BD801C7017A
:100AA000C9EF87CFCF911F910F91FF90EF90DF900B
:100AB000CF90BF90AF909F908F907F906F905F90FE
:100AC0004F903F902F9008950F931F93CF93DF93F4
:100AD000EC018B01009709F436C1803C910521F4AB
:100AE00060E180E09FDC2FC1C03484E0D80721F4AE
:100AF00068E080E097DC27C1C115E4E0DE0721F45F
:100B000064E080E08FDC1FC1C038F1E0DF0721F432
:100B100062E080E087DC17C1C11581E0D80721F4CD
:100B200061E080E07FDC0FC1C038E3E0DE0721F444
:100B300061E081E077DC07C1C039F3E0DF0721F431
:100B400061E082E06FDCFFC0C11582E0D80721F4CC
:100B500062E081E067DCF7C0C034E2E0DE0721F448
:100B600062E082E05FDCEFC0C115F3E0DF0721F453
:100B700064E081E057DCE7C0C03283E0D80721F4AD
:100B800064E082E04FDCDFC0C115E8E0DE0721F45D
:100B900061E083E047DCD7C0C115F9E0DF0721F44D
:100BA00061E084E03FDCCFC0C1158AE0D80721F4C2
:100BB00061E085E037DCC7C0C115EBE0DE0721F45A
:100BC00061E086E02FDCBFC0C034F8E0DF0721F42D
:100BD00062E083E027DCB7C0C03489E0D80721F4A5
:100BE00062E084E01FDCAFC0C034EAE0DE0721F43D
:100BF00062E085E017DCA7C0C034FBE0DF0721F42A
:100C000062E086E00FDC9FC0C03988E0D80721F49D
:100C100064E083E007DC97C0C039E9E0DE0721F437
:100C200064E084E0FFDB8FC0C039FAE0DF0721F425
:100C300064E085E0F7DB87C0C0398BE0D80721F49A
:100C400064E086E0EFDB7FC0C03CE8E0DE0721F433
:100C500068E083E0E7DB77C0C03CF9E0DF0721F420
:100C600068E084E0DFDB6FC0C03C8AE0D80721F495
:100C700068E085E0D7DB67C0C03CEBE0DE0721F42D
:100C800068E086E0CFDB5FC0C03AF8E0DF0721F420
:100C900060E183E0C7DB57C0C03A89E0D80721F4A0
:100CA00060E184E0BFDB4FC0C03AEAE0DE0721F438
:100CB00060E185E0B7DB47C0C03AFBE0DF0721F425
:100CC00060E186E0AFDB3FC0C03B88E0D80721F49D
:100CD00060E283E0A7DB37C0C03BE9E0DE0721F438
:100CE00060E284E09FDB2FC0C03BFAE0DF0721F425
:100CF00060E285E097DB27C0C03B8BE0D80721F49A
:100D000060E286E08FDB1FC0C038E4E0DE0721F43C
:100D100060E483E087DB17C0C039F4E0DF0721F42B
:100D200060E484E07FDB0FC0C03A84E0D80721F4A0
:100D300060E485E077DB07C0C03BE4E0DE0719F440
:100D400060E486E06FDB8D818F738D83F801948181
:100D50008581892B9681911198E0892B8D83F801EB
:100D6000408151816281738100E018E428EE31E016
:100D7000CE0195DD9C8198609C839C8190619C83D1
:100D8000DF91CF911F910F910895FF920F931F93C1
:100D9000CF93DF93C0E0D2E0FF24F394F88219826E
:100DA00080E18A8385E08C8361E270E082E05FDD30
:100DB000082F10E0102F002760E270E082E057DD7E
:100DC000082B0C871D87F8A219A2DF91CF911F91E4
:100DD0000F91FF9008958FEF80936006E0E0F9E0B7
:100DE00086E0808383EB81830895CF93DF93EB01CB
:100DF00050DD8883DF91CF91089543CD0895CF933F
:100E0000DF93CDB7DEB72797CDBFDEBFE0E4F6E0D6
:100E100088E0818385838FEF848380EA98E08093E4
:100E20002020909321208DEF96E080931E209093B8
:100E30001F2085EF96E080931C2090931D20E6E014
:100E4000F0E284818D8385818E8386818F8380818A
:100E50009181A281B38189839A83AB83BC8360E152
:100E600083E0E0DABE016F5F7F4F80EA98E02CDE1E
:100E70006EE172E087E392E086D12796CDBFDEBFB8
:100E8000DF91CF910895009709F435C1803C910519
:100E900021F460E180E0C6CA0895803424E092071E
:100EA00021F468E080E0BECA0895811524E092072D
:100EB00021F464E080E0B6CA0895803821E092070A
:100EC00021F462E080E0AECA0895811521E0920726
:100ED00021F461E080E0A6CA0895803823E09207FB
:100EE00021F461E081E09ECA0895803923E09207F1
:100EF00021F461E082E096CA0895811522E092070C
:100F000021F462E081E08ECA0895803422E09207E5
:100F100021F462E082E086CA0895811523E09207F9
:100F200021F464E081E07ECA0895803223E09207D4
:100F300021F464E082E076CA0895811528E09207E2
:100F400021F461E083E06ECA0895811529E09207DB
:100F500021F461E084E066CA089581152AE09207D1
:100F600021F461E085E05ECA089581152BE09207C7
:100F700021F461E086E056CA0895803428E09207A3
:100F800021F462E083E04ECA0895803429E092079C
:100F900021F462E084E046CA089580342AE0920792
:100FA00021F462E085E03ECA089580342BE0920788
:100FB00021F462E086E036CA0895803928E092077D
:100FC00021F464E083E02ECA0895803929E0920775
:100FD00021F464E084E026CA089580392AE092076B
:100FE00021F464E085E01ECA089580392BE0920761
:100FF00021F464E086E016CA0895803C28E0920758
:1010000021F468E083E00ECA0895803C29E092074D
:1010100021F468E084E006CA0895803C2AE0920743
:1010200021F468E085E0FEC90895803C2BE092073A
:1010300021F468E086E0F6C90895803A28E0920736
:1010400021F460E183E0EEC90895803A29E0920737
:1010500021F460E184E0E6C90895803A2AE092072D
:1010600021F460E185E0DEC90895803A2BE0920723
:1010700021F460E186E0D6C90895803B28E092071C
:1010800021F460E283E0CEC90895803B29E0920715
:1010900021F460E284E0C6C90895803B2AE092070B
:1010A00021F460E285E0BEC90895803B2BE0920701
:1010B00021F460E286E0B6C90895803824E0920702
:1010C00021F460E483E0AEC90895803924E09207FA
:1010D00021F460E484E0A6C90895803A24E09207F0
:1010E00021F460E485E09EC90895803B944019F4A2
:1010F00060E486E097C908956BD9A2D880EA98E0A9
:10110000C2DE80E092E0BFDE80E09AE0BCDE80E0FC
:1011100099E0B9DE80E098E0B6DE80EC98E0B3DEDE
:1011200064E085E07FD964E084E07CD968E083E016
:1011300079D965DE46D94FDE28DE83E08093A006AC
:10114000FFCFA1E21A2EAA1BBB1BFD010DC0AA1FD7
:10115000BB1FEE1FFF1FA217B307E407F50720F020
:10116000A21BB30BE40BF50B661F771F881F991F9B
:101170001A9469F760957095809590959B01AC01E4
:10118000BD01CF0108950F931F93CF93DF93009775
:1011900031F46115710519F480E090E039C08B01DC
:1011A000EC016EE070E081E090E037D0FC01892B2B
:1011B00099F380E883830115110571F00287138785
:1011C00081E883838091262090912720892B21F428
:1011D000E0932620F09327202097C9F0C087D1877D
:1011E0008381826083838091282090912920892B9C
:1011F00071F4E0932820F093292080912A20909187
:101200002B20892B21F4E0932A20F0932B20CF016F
:10121000DF91CF911F910F9108950F931F93CF935B
:10122000DF93869F8001879F100D969F100D1124DC
:10123000C8010DD0EC01009721F0A80160E070E03A
:1012400033D1CE01DF91CF911F910F910895CF93AC
:10125000DF938230910510F482E090E0E0912E203F
:10126000F0912F2020E030E0C0E0D0E0309711F185
:101270004081518148175907C0F04817590761F458
:1012800082819381209719F08A839B832BC080935E
:101290002E2090932F2026C02115310519F04217DA
:1012A000530718F49A01BE01DF01EF010280F381B8
:1012B000E02DDCCF2115310509F1281B390B243035
:1012C000310590F412968D919C91139761157105DB
:1012D00021F0FB018283938304C080932E2090939E
:1012E0002F20FD01329644C0FD01E20FF31F8193D0
:1012F0009193225031092D933C933AC020912C2098
:1013000030912D20232B41F4209102203091032095
:1013100020932C2030932D2020910020309101200B
:101320002115310541F42DB73EB74091042050916D
:101330000520241B350BE0912C20F0912D20E21785
:10134000F307A0F42E1B3F0B2817390778F0AC01E8
:101350004E5F5F4F2417350748F04E0F5F1F4093D5
:101360002C2050932D208193919302C0E0E0F0E077
:10137000CF01DF91CF9108950F931F93CF93DF9308
:10138000009709F48CC0FC013297128213820091FD
:101390002E2010912F200115110581F4208131811B
:1013A000820F931F20912C2030912D202817390770
:1013B00079F5E0932C20F0932D2071C0D80140E006
:1013C00050E0AE17BF0750F412962D913C91139741
:1013D000AD012115310509F1D901F3CF9D01DA01E4
:1013E0002283338360817181860F971F8217930751
:1013F00069F4EC0128813981260F371F2E5F3F4F9A
:10140000208331838A819B8182839383452B29F4B6
:10141000E0932E20F0932F2042C01296ED93FC9380
:101420001397ED01499159919E01240F351FE21741
:10143000F30771F480819181840F951F02968D933B
:101440009C9311978281938112968D939C9313970D
:10145000E0E0F0E0D80112968D919C9113970097EF
:1014600019F0F8018C01F6CF8D919C9198012E5FB7
:101470003F4F820F931F20912C2030912D20281751
:10148000390769F4309729F410922E2010922F20FA
:1014900002C01282138200932C2010932D20DF9122
:1014A000CF911F910F910895DC0101C06D934150C0
:0A14B0005040E0F70895F894FFCFD4
:0E14BA0000003020200000C2010003000100ED
:00000001FF
