:1000000026C100004AC1000048C1000046C10000EE
:1000100044C1000042C1000040C100003EC10000D8
:100020003CC100003AC100007FC10000A0C1000037
:1000300034C1000032C1000030C100002EC10000F8
:100040002CC100002AC1000028C1000026C1000008
:1000500024C1000022C1000020C100001EC1000018
:100060001CC100001AC1000018C1000016C1000028
:1000700014C1000012C1000010C100000EC1000038
:100080000CC100000AC1000008C1000006C1000048
:1000900004C1000002C1000000C10000B1C50000A1
:1000A000ECC5000027C6000062C60000F6C00000D4
:1000B000F4C00000F2C00000F0C00000EEC000007C
:1000C000ECC00000EAC00000E8C00000E6C000008C
:1000D000E4C00000E2C00000E0C00000DEC000009C
:1000E000DCC00000DAC00000D8C00000D6C00000AC
:1000F000D4C00000D2C00000D0C00000CEC00000BC
:10010000CCC00000CAC00000C8C00000C6C00000CB
:10011000C4C00000C2C00000C0C000007DC4000018
:10012000B8C40000F3C400002EC50000B6C0000033
:10013000B4C00000B2C00000B0C00000AEC00000FB
:10014000ACC00000AAC00000A8C00000A6C000000B
:10015000A4C00000A2C00000A0C000009EC000001B
:100160009CC000009AC0000098C0000096C000002B
:1001700094C0000092C0000090C000008EC000003B
:100180008CC000008AC0000088C0000086C000004B
:1001900084C0000082C0000080C000007EC000005B
:1001A0007CC000007AC0000078C0000076C000006B
:1001B00074C0000072C0000070C000006EC000007B
:1001C0006CC000006AC0000068C0000066C000008B
:1001D00064C0000062C0000060C000005EC000009B
:1001E0005CC000005AC0000058C0000056C00000AB
:1001F00054C0000008000000BE922449123EABAA81
:10020000AA2ABECDCCCC4C3E00000080BEABAAAA30
:10021000AA3E00000000BF000000803F0000000078
:1002200000084178D3BB4387D1133D190E3CC3BDB1
:100230004282AD2B3E68EC8276BED98FE1A93E4C5E
:1002400080EFFFBE01C4FF7F3F00000000001124CB
:100250001FBECFEFCDBFDFE3DEBF00E00CBF18BE97
:1002600019BE1ABE1BBE11E2A0E0B0E2ECE0F8E25B
:1002700000E00BBF02C007900D92A434B107D9F77C
:100280001BBE21E2A4E4B1E201C01D92AD36B2076B
:10029000E1F70E94E40B0C940414B2CE0F931F9369
:1002A000E0E0F4E0818180FDFDCF2FB7F89440912C
:1002B00044215091452180910804909109040097B0
:1002C00031F43091030430FF02C04F5F5F4F2FBF06
:1002D00060E070E0BA0155274427A0E0B0E08A0151
:1002E0009B01082B192B2A2B3B2BC901B8011F910D
:1002F0000F91089564E080E058D3E0E0F4E08FEFE0
:100300009FEF82879387108611869FB7F894A3E5A5
:10031000B1E213968C9113978F5F13968C939FBFC6
:1003200081E08283808308951F920F920FB60F920F
:10033000112408B60F9218BE0BB60F921BBE8F93F6
:100340009F93EF93FF93E4E4F1E280819181019622
:1003500080839183FF91EF919F918F910F900BBEBE
:100360000F9008BE0F900FBE0F901F9018951F9210
:100370000F920FB60F92112408B60F9218BE09B64D
:100380000F9219BE0BB60F921BBECF92DF92EF9267
:10039000FF920F931F932F933F934F935F936F930E
:1003A0007F938F939F93AF93BF93EF93FF93E4E477
:1003B000F1E2808191812281338182179307F0F1EC
:1003C00021E020930204E0914A21F0914B213097E3
:1003D000A9F16091080470910904A0E0B0E0DC018B
:1003E00099278827AB0160E070E08C019D01042B08
:1003F000152B262B372BC901B801A4E4B1E21296C4
:100400000D911C91139720E030E0980111270027EF
:100410001496CD90DC901597E12CF12C0C291D2918
:100420002E293F29061717072807390730F0C90179
:10043000B8016F5F7F4F8F4F9F4F1995FF91EF91DD
:10044000BF91AF919F918F917F916F915F914F91EC
:100450003F912F911F910F91FF90EF90DF90CF90E0
:100460000F900BBE0F9009BE0F9008BE0F900FBEED
:100470000F901F901895E0E6F6E0948198609483C1
:1004800020E030E0382F40E050E060E078E488EE93
:1004900091E00E94190FDA01C9010197A109B10980
:1004A000E0E0F9E086A397A386A197A186A797A786
:1004B0000895CF93DF93CDB7DEB7A197CDBFDEBF51
:1004C0009BE0E7EDF0E2DE01119601900D929A9526
:1004D000E1F796E1E2EEF0E2DE011C9601900D926A
:1004E0009A95E1F79981981741F0FE01329621E043
:1004F00030E0919198130BC002C020E030E0220F51
:10050000331FFE01E20FF31F8485958507C02F5F1F
:100510003F4F2B30310569F780E090E0A196CDBFC9
:10052000DEBFDF91CF9108952F923F924F925F925D
:100530006F927F928F929F92AF92BF92CF92DF92F3
:10054000EF92FF920F931F93CF93DF93CDB7DEB758
:100550002C97CDBFDEBF181619060CF0F6C03A87EF
:1005600029871A013B014C01CA016AE070E00E9430
:10057000E40E262F372F972F990F990BA12C0F2EB2
:10058000F8E4BF2EF02D0F2EF8EECF2EF02DDD2447
:10059000D394E12CF12C00E010E0492F592F692F62
:1005A000792F892F0E94350F29513C4F4F4F5F4FB4
:1005B0006F4F7F4F8F4F9F4F29833A834B835C83CD
:1005C0006D837E838F839887830149845A84880C46
:1005D000991C680C791C0B871C87EB85FC85819125
:1005E0009191EB87FC87829D4001839D900C929DA9
:1005F000900C1124F20181912F01803209F03CC04E
:10060000992D990F990BA12C0F2EF8E4BF2EF02DE8
:100610000F2EF8EECF2EF02DDD24D394E12CF12C0B
:1006200000E010E0282D392D492F592F692F792FFF
:10063000892F0E94350F29513C4F4F4F5F4F6F4F0D
:100640007F4F8F4F9F4F0E94560D20E030E84BEBBD
:1006500055E40E94770C0E94E40CF22FE32F8F2FB9
:100660009E2FA42FB52F2B853C850197A109B10999
:10067000E1F72B873C8745C01CDFFDDE44E661EED9
:1006800074E080E090E0AFD0992D990F990BA12CE8
:100690000F2EF8E4BF2EF02D0F2EF8EECF2EF02DFA
:1006A000DD24D394E12CF12C00E010E0282D392D2D
:1006B000492F592F692F792F892F0E94350F2951E2
:1006C0003C4F4F4F5F4F6F4F7F4F8F4F9F4F0E9459
:1006D000560D20E030E84BEB55E40E94770C0E9469
:1006E000E40CF22FE32F8F2F9E2FA42FB52F2B85F5
:1006F0003C850197A109B109E1F72B873C8710924E
:10070000640629813A814B815C816D817E818F8174
:1007100098850E94560D20E030E84BEB55E40E948E
:10072000770C0E94E40CF22FE32F8F2F9E2FA42F23
:10073000B52F2B853C850197A109B109E1F72B87DE
:100740003C872615370509F048CF2C96CDBFDEBF74
:10075000DF91CF911F910F91FF90EF90DF90CF909D
:10076000BF90AF909F908F907F906F905F904F90D1
:100770003F902F900895409108205091092029EB37
:1007800030E266E670E28091CE209091CF20CCDE00
:100790008AEA90EBA8E2B0E00197A109B109E1F77C
:1007A00040910620509107202AE830E26AE070E28A
:1007B0008091CC209091CD20B7DE8AEA90EBA8E220
:1007C000B0E00197A109B109E1F784EC90E053DEB4
:1007D00080E094E2A4EFB0E00197A109B109E1F74C
:1007E000109264060895E0E6F6E0248122602483F6
:1007F000E0E0F9E066A377A326A137A186A197A13F
:10080000642F70E00E94D00E261B370B22A733A75F
:100810000895AF92BF92CF92DF92EF92FF920F9323
:100820001F93CF93DF9391E090934E21A12C0F2E35
:10083000F8E4BF2EF02D0F2EF8EECF2EF02DDD2494
:10084000D394E12CF12C00E010E0282F30E040E0C0
:1008500050E060E070E080E090E00E94350F2951A8
:100860003C4F4F4F5F4F6F4F7F4F8F4F9F4F0E94B7
:10087000560D20E030E84BEB55E40E94770C0E94C7
:10088000E40C722F632F942F852F542F482F24E0D0
:1008900030E0C0E8D6E0072F162FF92FE82F80911F
:1008A0004E21982F90959C83880F80934E21802F06
:1008B000912FAF2FBE2F0197A109B109E1F7215068
:1008C000310969F780E880934E2124E030E0E0E8C8
:1008D000F6E080914E21982F909594838695809391
:1008E0004E21872F962FA52FB42F0197A109B1096B
:1008F000E1F72150310969F7DF91CF911F910F91F5
:10090000FF90EF90DF90CF90BF90AF90089584E676
:1009100080DF88EF90E20E94F20FC0DC9F938F93FC
:100920007F936F938EEF90E29F938F930E94DF0FE0
:1009300015D59F938F937F936F938BE091E29F9355
:100940008F930E94DF0F84E664DF8DB79EB70C960D
:100950008DBF9EBF08958FEF8093700080937100CC
:10096000809372008093730080937400809375006D
:10097000809376009FB7F894E0E5F0E08081826094
:1009800080839FBF818181FFFDCF61E080E490E0A3
:100990002BD29FB7F894E0E5F0E080818E7F8083D2
:1009A0009FBF81E08093430008959FB7F894E82F9C
:1009B000F0E0E059FF4F60958081682360839FBF1E
:1009C0000895CF93DF931F92CDB7DEB780915D215D
:1009D00090915E21E0915921F0915A21BE016F5F03
:1009E0007F4F19958981082E000C990B0F90DF918C
:1009F000CF910895682F80915D2190915E21E091C3
:100A00005B21F0915C21199599231CF081E090E025
:100A100008958FEF9FEF08951F920F920FB60F92D8
:100A2000112408B60F9218BE09B60F9219BE0BB664
:100A30000F921BBE2F933F934F935F936F937F93C0
:100A40008F939F93AF93BF93EF93FF9340912402B3
:100A500050912502E0916121F091622161E080E0F6
:100A600092E01995FF91EF91BF91AF919F918F9176
:100A70007F916F915F914F913F912F910F900BBE9E
:100A80000F9009BE0F9008BE0F900FBE0F901F90E1
:100A900018951F920F920FB60F92112408B60F925D
:100AA00018BE09B60F9219BE0BB60F921BBE2F933C
:100AB0003F934F935F936F937F938F939F93AF93E6
:100AC000BF93EF93FF9340912C0250912D02E09140
:100AD0006121F091622162E080E092E01995FF913E
:100AE000EF91BF91AF919F918F917F916F915F91A6
:100AF0004F913F912F910F900BBE0F9009BE0F9019
:100B000008BE0F900FBE0F901F9018951F920F9266
:100B10000FB60F92112408B60F9218BE09B60F92A5
:100B200019BE0BB60F921BBE2F933F934F935F934B
:100B30006F937F938F939F93AF93BF93EF93FF93A5
:100B40004091340250913502E0916121F09162218F
:100B500064E080E092E01995FF91EF91BF91AF9131
:100B60009F918F917F916F915F914F913F912F91C5
:100B70000F900BBE0F9009BE0F9008BE0F900FBED6
:100B80000F901F9018951F920F920FB60F9211247D
:100B900008B60F9218BE09B60F9219BE0BB60F9287
:100BA0001BBE2F933F934F935F936F937F938F93CE
:100BB0009F93AF93BF93EF93FF9340913C0250916B
:100BC0003D02E0916121F091622168E080E092E0D5
:100BD0001995FF91EF91BF91AF919F918F917F9167
:100BE0006F915F914F913F912F910F900BBE0F909E
:100BF00009BE0F9008BE0F900FBE0F901F90189562
:100C00001F920F920FB60F92112408B60F9218BEC2
:100C100009B60F9219BE0BB60F921BBE2F933F93CE
:100C20004F935F936F937F938F939F93AF93BF93F4
:100C3000EF93FF934091640250916502E0915F2130
:100C4000F091602161E080E492E01995FF91EF91CD
:100C5000BF91AF919F918F917F916F915F914F91D4
:100C60003F912F910F900BBE0F9009BE0F9008BEC1
:100C70000F900FBE0F901F9018951F920F920FB6F6
:100C80000F92112408B60F9218BE09B60F9219BE22
:100C90000BB60F921BBE2F933F934F935F936F93AF
:100CA0007F938F939F93AF93BF93EF93FF93409165
:100CB0006C0250916D02E0915F21F091602162E041
:100CC00080E492E01995FF91EF91BF91AF919F91D0
:100CD0008F917F916F915F914F913F912F910F90E5
:100CE0000BBE0F9009BE0F9008BE0F900FBE0F9065
:100CF0001F9018951F920F920FB60F92112408B6ED
:100D00000F9218BE09B60F9219BE0BB60F921BBEFA
:100D10002F933F934F935F936F937F938F939F9303
:100D2000AF93BF93EF93FF9340917402509175027C
:100D3000E0915F21F091602164E080E492E01995F8
:100D4000FF91EF91BF91AF919F918F917F916F91A3
:100D50005F914F913F912F910F900BBE0F9009BE65
:100D60000F9008BE0F900FBE0F901F9018951F9206
:100D70000F920FB60F92112408B60F9218BE09B643
:100D80000F9219BE0BB60F921BBE2F933F934F933A
:100D90005F936F937F938F939F93AF93BF93EF93E3
:100DA000FF9340917C0250917D02E0915F21F09190
:100DB000602168E080E492E01995FF91EF91BF9186
:100DC000AF919F918F917F916F915F914F913F91E3
:100DD0002F910F900BBE0F9009BE0F9008BE0F9081
:100DE0000FBE0F901F9018951BBEFC0128ED24BF6D
:100DF000608308954091CA01E62FF72F8093CA01BE
:100E000084914093CA010895FC01918195FFFDCF23
:100E1000608380E090E00895FC0191819923ECF7D4
:100E2000808108952F923F924F925F926F927F92AE
:100E30008F929F92AF92BF92CF92DF92EF92FF92EA
:100E40000F931F93CF931C012A013B0148015901C5
:100E5000D901C801689412F8B695A795979587951A
:100E60001694D1F7B901A801032E36E1769567955E
:100E7000579547953A95D1F7302DF101248122FD00
:100E800008C0B695A79597958795769567955795D8
:100E9000479584159505A605B70508F4AAC044161C
:100EA00055066606770608F4A6C0F101848182FD26
:100EB00004C0440C551C661C771CC501B401A30179
:100EC000920195D72F3F31054105510508F495C092
:100ED000C12CD12C7601CA94C9EF05C02C153D0553
:100EE0004E055F0568F0CC0CDD1CEE1CFF1CCD3FF1
:100EF00014F46894C0F8CF5FC73081F78C2F54C0CA
:100F00008C2FCC230CF050C0D301C201880F991F45
:100F1000AA1FBB1F880F991FAA1FBB1F880F991FED
:100F2000AA1FBB1F85017401E81AF90A0A0B1B0BE3
:100F3000D801C701CE3FECF42DEF3FEF2C1B310958
:100F4000C7FD339504C0880F991FAA1FBB1F2A95A0
:100F5000D2F773016201F694E794D794C794BC0169
:100F6000CD016C0D7D1D8E1D9F1DA30192013FD7EC
:100F700036C023E02C0F8301720104C0EE0CFF1C6D
:100F8000001F111F2A95D2F7A80197016701780168
:100F9000F694E794D794C794BC01CD016C0D7D1DE8
:100FA0008E1D9F1D24D71BC08D5FA301920104C01D
:100FB000220F331F441F551F8A95D2F7DA01C9014A
:100FC000B695A79597958795BC01CD01680D791DBC
:100FD0008A1D9B1D0CD72150310941095109832FCE
:100FE0008F70C295C07FC82BF101C783268381E033
:100FF0001CC080E01AC080E018C0D301C201880F75
:10100000991FAA1FBB1F880F991FAA1FBB1F880FFC
:10101000991FAA1FBB1F85017401E81AF90A0A0B60
:101020001B0BD801C701C9EF87CFCF911F910F913B
:10103000FF90EF90DF90CF90BF90AF909F908F90F8
:101040007F906F905F904F903F902F9008950F93F7
:101050001F93CF93DF93EC018B01009709F436C106
:10106000803C910521F460E180E09FDC2FC1C03419
:1010700084E0D80721F468E080E097DC27C1C1153F
:10108000E4E0DE0721F464E080E08FDC1FC1C038BB
:10109000F1E0DF0721F462E080E087DC17C1C115D1
:1010A00081E0D80721F461E080E07FDC0FC1C03827
:1010B000E3E0DE0721F461E081E077DC07C1C039BD
:1010C000F3E0DF0721F461E082E06FDCFFC0C115CF
:1010D00082E0D80721F462E081E067DCF7C0C03429
:1010E000E2E0DE0721F462E082E05FDCEFC0C115E0
:1010F000F3E0DF0721F464E081E057DCE7C0C032B1
:1011000083E0D80721F464E082E04FDCDFC0C11542
:10111000E8E0DE0721F461E083E047DCD7C0C115D9
:10112000F9E0DF0721F461E084E03FDCCFC0C115C6
:101130008AE0D80721F461E085E037DCC7C0C1153B
:10114000EBE0DE0721F461E086E02FDCBFC0C034B5
:10115000F8E0DF0721F462E083E027DCB7C0C034A9
:1011600089E0D80721F462E084E01FDCAFC0C0341E
:10117000EAE0DE0721F462E085E017DCA7C0C034B6
:10118000FBE0DF0721F462E086E00FDC9FC0C0399E
:1011900088E0D80721F464E083E007DC97C0C03919
:1011A000E9E0DE0721F464E084E0FFDB8FC0C039B2
:1011B000FAE0DF0721F464E085E0F7DB87C0C0399F
:1011C0008BE0D80721F464E086E0EFDB7FC0C03C11
:1011D000E8E0DE0721F468E083E0E7DB77C0C03CAD
:1011E000F9E0DF0721F468E084E0DFDB6FC0C03C9A
:1011F0008AE0D80721F468E085E0D7DB67C0C03C0F
:10120000EBE0DE0721F468E086E0CFDB5FC0C03AA8
:10121000F8E0DF0721F460E183E0C7DB57C0C03AA4
:1012200089E0D80721F460E184E0BFDB4FC0C03A19
:10123000EAE0DE0721F460E185E0B7DB47C0C03AB1
:10124000FBE0DF0721F460E186E0AFDB3FC0C03B9D
:1012500088E0D80721F460E283E0A7DB37C0C03B19
:10126000E9E0DE0721F460E284E09FDB2FC0C03BB1
:10127000FAE0DF0721F460E285E097DB27C0C03B9E
:101280008BE0D80721F460E286E08FDB1FC0C03816
:10129000E4E0DE0721F460E483E087DB17C0C039B7
:1012A000F4E0DF0721F460E484E07FDB0FC0C03AA4
:1012B00084E0D80721F460E485E077DB07C0C03B19
:1012C000E4E0DE0719F460E486E06FDB8D818F7364
:1012D0008D83F80194818581892B9681911198E005
:1012E000892B8D83F801408151816281738100E0F7
:1012F00018E428EE31E0CE0195DD9C8198609C8356
:101300009C8190619C83DF91CF911F910F910895F3
:10131000FF920F931F93CF93DF93C0E0D2E0FF249F
:10132000F394F882198280E18A8385E08C8361E2FC
:1013300070E082E05FDD082F10E0102F002760E2F0
:1013400070E082E057DD082B0C871D87F8A219A2F8
:10135000DF91CF911F910F91FF9008958F929F92EF
:10136000AF92BF92CF92DF92EF92FF92CF93DF9333
:10137000E0E0F2E080A1806880A383A18823E9F304
:10138000C0912402D0912502DF93CF938EE191E2A8
:101390009F938F9314D6BE0180E090E04AD32CE057
:1013A0003BEB43E05AE366D42CE131E944EC5DE3E6
:1013B00039D2E62EF72ED82FC92F9F938F937F9384
:1013C0006F938CE291E29F938F93F9D52E2D3F2D51
:1013D0004D2F5C2F63E373E383E590E423D29B01FD
:1013E000AC0160E078EE80E097E481D220E030E468
:1013F0004CE156E417D2E62EF72ED82FC92F9F9333
:101400008F937F936F9388E391E29F938F93D7D5C8
:1014100020E030E44CE156E46E2D7F2D8D2F9C2F83
:1014200066D2E8D36B017C0121EF3BEB46E859E340
:1014300021D42DE03FEC4BE55BE3F5D14B015C01A2
:101440002AE633E149E853E3C701B60113D49B010F
:10145000AC01C701B6010ED49B01AC01C701B601B6
:1014600009D49B01AC01C501B401DDD19B01AC01E4
:1014700060E070E080E89FE33AD223E333E948E894
:1014800053E4D0D12DB73EB7205F3F4F2DBF3EBFB5
:10149000DF91CF91FF90EF90DF90CF90BF90AF9012
:1014A0009F908F9008958FEF80936006E0E0F9E0C1
:1014B00086E0808383EB81830895CF93DF93EB01F4
:1014C000ABDC8883DF91CF9108959ECC0895CF93B4
:1014D000DF93CDB7DEB72797CDBFDEBFE0E4F6E000
:1014E00088E0818385838FEF848380EA98E080930E
:1014F0005D2190935E2185E69AE080935B21909335
:101500005C218DE59AE08093592190935A21E0ED7A
:10151000F0E284818D8385818E8386818F838081B3
:101520009181A281B38189839A83AB83BC8360E17B
:1015300083E03BDABE016F5F7F4F80EA98E087DD92
:1015400061EE74E08AEF94E0F0D42796CDBFDEBF61
:10155000DF91CF910895009709F435C1803C910542
:1015600021F460E180E021CA0895803424E09207EC
:1015700021F468E080E019CA0895811524E09207FB
:1015800021F464E080E011CA0895803821E09207D8
:1015900021F462E080E009CA0895811521E09207F4
:1015A00021F461E080E001CA0895803823E09207C9
:1015B00021F461E081E0F9C90895803923E09207C0
:1015C00021F461E082E0F1C90895811522E09207DB
:1015D00021F462E081E0E9C90895803422E09207B5
:1015E00021F462E082E0E1C90895811523E09207C9
:1015F00021F464E081E0D9C90895803223E09207A4
:1016000021F464E082E0D1C90895811528E09207B1
:1016100021F461E083E0C9C90895811529E09207AA
:1016200021F461E084E0C1C9089581152AE09207A0
:1016300021F461E085E0B9C9089581152BE0920796
:1016400021F461E086E0B1C90895803428E0920772
:1016500021F462E083E0A9C90895803429E092076B
:1016600021F462E084E0A1C9089580342AE0920761
:1016700021F462E085E099C9089580342BE0920757
:1016800021F462E086E091C90895803928E092074C
:1016900021F464E083E089C90895803929E0920744
:1016A00021F464E084E081C9089580392AE092073A
:1016B00021F464E085E079C9089580392BE0920730
:1016C00021F464E086E071C90895803C28E0920727
:1016D00021F468E083E069C90895803C29E092071D
:1016E00021F468E084E061C90895803C2AE0920713
:1016F00021F468E085E059C90895803C2BE0920709
:1017000021F468E086E051C90895803A28E0920704
:1017100021F460E183E049C90895803A29E0920705
:1017200021F460E184E041C90895803A2AE09207FB
:1017300021F460E185E039C90895803A2BE09207F1
:1017400021F460E186E031C90895803B28E09207EA
:1017500021F460E283E029C90895803B29E09207E3
:1017600021F460E284E021C90895803B2AE09207D9
:1017700021F460E285E019C90895803B2BE09207CF
:1017800021F460E286E011C90895803824E09207D0
:1017900021F460E483E009C90895803924E09207C8
:1017A00021F460E484E001C90895803A24E09207BE
:1017B00021F460E485E0F9C80895803B944019F471
:1017C00060E486E0F2C80895C6D80E947A0180EAF3
:1017D00098E0C1DE80E092E0BEDE80E09AE0BBDE11
:1017E00080E099E0B8DE80E098E0B5DE80EC98E03B
:1017F000B2DE64E085E0D9D864E084E0D6D868E061
:1018000083E0D3D864DE4FDE83DD8FEF8093600604
:101810008093800683E08093A00683E60E94BB034A
:1018200076D8FBCF5058BB27AA270ED0A4C195D19C
:1018300030F09AD120F031F49F3F11F41EF47AC1B8
:101840000EF4E095E7FB70C1E92FA6D180F3BA173B
:10185000620773078407950718F071F49EF5BEC1FF
:101860000EF4E0950B2EBA2FA02D0B01B9019001BB
:101870000C01CA01A0011124FF27591B99F0593FFF
:1018800050F4503E68F11A16F040A22F232F342F47
:101890004427585FF3CF469537952795A795F04095
:1018A0005395C9F77EF41F16BA0B620B730B840BAA
:1018B000BAF09150A1F0FF0FBB1F661F771F881F62
:1018C000C2F70EC0BA0F621F731F841F48F48795BA
:1018D00077956795B795F7959E3F08F0B3CF9395A9
:1018E000880F08F09927EE0F9795879508950CD0EB
:1018F00042C13AD140F031D130F021F45F3F19F0CC
:1019000013C151116CC116C147D198F39923C9F382
:101910005523B1F3951B550BBB27AA2762177307F5
:10192000840738F09F5F5F4F220F331F441FAA1FA9
:10193000A9F333D00E2E3AF0E0E830D09150504069
:10194000E695001CCAF729D0FE2F27D0660F771F17
:10195000881FBB1F261737074807AB07B0E809F0F9
:10196000BB0B802DBF01FF2793585F4F2AF09E3F8E
:10197000510568F0D9C033C15F3FECF3983EDCF30A
:10198000869577956795B795F7959F5FC9F7880F07
:10199000911D9695879597F90895E1E0660F771F59
:1019A000881FBB1F621773078407BA0720F0621BEA
:1019B000730B840BBA0BEE1F88F7E0950895BEE316
:1019C00004D008F490E80895BFE322273327A90143
:1019D000EBD058F19F5740F1B91738F1BFE3B91B6D
:1019E0009927B8503AF4660F771F881F991FB3954F
:1019F000D2F316C0B8504AF0232F342F452F562F5C
:101A0000672F782F8827B850BAF7B85F49F08695C6
:101A1000779567955795479537952795BA95B9F76F
:101A20000EF48BD088940895889460E070E0CB0128
:101A30000895E89409C097FB3EF4909580957095C1
:101A400061957F4F8F4F9F4F9923A9F0F92F96E90A
:101A5000BB279395F695879577956795B795F1117F
:101A6000F8CFFAF4BB0F11F460FF1BC06F5F7F4F1C
:101A70008F4F9F4F16C0882311F096E911C077232E
:101A800021F09EE8872F762F05C0662371F096E837
:101A9000862F70E060E02AF09A95660F771F881F06
:101AA000DAF7880F9695879597F90895E894F92FB6
:101AB00096EBFF2381F0121613061406440B939540
:101AC000F69587957795679557954040FF23B9F729
:101AD0001BC099270895882351F49850D2F7872B7B
:101AE000762F652F542F432F322F20E0B1F312169B
:101AF00013061406440B88233AF09A95440F551F99
:101B0000661F771F881FCAF755234AF4440F551FD5
:101B100011F460FF04C06F5F7F4F8F4F9F4F880F9E
:101B20009695879597F9089597F99F6780E870E0F3
:101B300060E008959FEF80EC0895909580957095F2
:101B4000609550954095309521953F4F4F4F5F4F91
:101B50006F4F7F4F8F4F9F4F089500240A941616A2
:101B6000170618060906089500240A94121613068B
:101B7000140605060895092E0394000C11F4882319
:101B800052F0BB0F40F4BF2B11F460FF04C06F5F35
:101B90007F4F8F4F9F4F089557FD9058440F551F0B
:101BA00059F05F3F71F04795880F97FB991F61F0DF
:101BB0009F3F79F087950895121613061406551F56
:101BC000F2CF4695F1DF08C0161617061806991FC2
:101BD000F1CF86957105610508940895E894BB27B7
:101BE00066277727CB0197F908950EF0A6C0A2CFFC
:101BF00068949ACFD9DFC8F39923D1F3C6F3DF9362
:101C0000CF931F930F93FF92C92FDD2788232AF0CC
:101C10002197660F771F881FDAF720E030E040E851
:101C20005FEB9FE3883920F0803E30F021968F777C
:101C3000FADDE4EFF1E003C0F6DDE1E2F2E08BD0A3
:101C40008B01BE01EC01FB2E6F5771097595771F53
:101C5000880B990BF0DE28E132E741E35FE316D011
:101C6000AF2D9801AE01FF900F911F91CF91DF91A1
:101C7000EBDD81CF0BD07FCF70DF28F075DF18F060
:101C8000952309F051CF56CF1124A9CF85DFA0F3BA
:101C9000959FD1F3950F50E0551F629FF001729F01
:101CA000BB27F00DB11D639FAA27F00DB11DAA1F20
:101CB000649F6627B00DA11D661F829F2227B00D6D
:101CC000A11D621F739FB00DA11D621F839FA00DF8
:101CD000611D221F749F3327A00D611D231F849F48
:101CE000600D211D822F762F6A2F11249F5750409F
:101CF0008AF0E1F088234AF0EE0FFF1FBB1F661F3A
:101D0000771F881F91505040A9F79E3F510570F0F2
:101D10000BCF65CF5F3FECF3983EDCF3869577956C
:101D20006795B795F795E7959F5FC1F7FE2B880FED
:101D3000911D9695879597F908959F3F31F09150A1
:101D400020F4879577956795B795880F911D96959F
:101D5000879597F90895DF93CF931F930F93FF9281
:101D6000EF92DF927B018C01689405C0DA2EEF01BF
:101D70008DDFFE01E894A59125913591459155910E
:101D8000AEF3EF0161DDFE019701A801DA9479F766
:101D9000DF90EF90FF900F911F91CF91DF91089509
:101DA000AA1BBB1B51E107C0AA1FBB1FA617B70781
:101DB00010F0A61BB70B881F991F5A95A9F780959D
:101DC0009095BC01CD01089597FB072E16F4009461
:101DD00006D077FD08D0E4DF07FC05D03EF49095EF
:101DE00081959F4F0895709561957F4F0895A1E269
:101DF0001A2EAA1BBB1BFD010DC0AA1FBB1FEE1F85
:101E0000FF1FA217B307E407F50720F0A21BB30BCF
:101E1000E40BF50B661F771F881F991F1A9469F74B
:101E200060957095809590959B01AC01BD01CF01A7
:101E30000895052E97FB16F400940FD057FD05D09A
:101E4000D6DF07FC02D046F408C050954095309587
:101E500021953F4F4F4F5F4F089590958095709516
:101E600061957F4F8F4F9F4F0895DF93CF931F93BF
:101E70000F939A9DF02D219FF00D8B9DF00D8A9D63
:101E8000E02DF10D039FF00D029FE00DF11D4E9D21
:101E9000E00DF11D5E9DF00D4F9DF00D7F936F9352
:101EA000BF92AF925F934F93D50130D08B01AC01BD
:101EB000D7012CD0EB01E80FF91FD6011FD02F91CD
:101EC0003F91D60123D0C60FD71FE81FF91FAF914E
:101ED000BF9114D02F913F9119D0C60FD71FE81F83
:101EE000F91FD60113D0E60FF71F9801BE01CF01ED
:101EF00011240F911F91CF91DF91089507D0460FC4
:101F0000571FC81FD91F08F431960895A29FB0012A
:101F1000B39FC001A39F700D811D1124911DB29F1D
:101F2000700D811D1124911D08950F931F93CF9360
:101F3000DF93009731F46115710519F480E090E0AA
:101F400039C08B01EC016EE070E081E090E062D27C
:101F5000FC01892B99F380E883830115110571F049
:101F60000287138781E883838091632190916421A4
:101F7000892B21F4E0936321F09364212097C9F029
:101F8000C087D1878381826083838091652190910E
:101F90006621892B71F4E0936521F093662180918D
:101FA000672190916821892B21F4E0936721F093B8
:101FB0006821CF01DF91CF911F910F910895CF93A9
:101FC000DF93CDB7DEB7AE014A5F5F4FFA01619193
:101FD0007191AF01809165219091662133D0DF919D
:101FE000CF9108950F931F93CF93DF93E0916521D5
:101FF000F0916621238121FF1BC08C01D0E0C0E05D
:10200000F80181918F016091652170916621DB015A
:102010001896ED91FC911997882331F01995892B29
:1020200079F3DFEFCFEFECCF8AE01995892B19F028
:102030008FEF9FEF02C08D2F9C2FDF91CF911F91CB
:102040000F9108952F923F924F925F926F927F92DD
:102050008F929F92AF92BF92CF92DF92EF92FF92B8
:102060000F931F93CF93DF93CDB7DEB72C97CDBFE0
:10207000DEBF7C016B018A01FC011682178283811D
:1020800081FFB0C1CE0101964C01F7019381F601A9
:1020900093FD859193FF81916F01882309F49EC17F
:1020A000853239F493FD859193FF81916F018532DB
:1020B00021F4B70190E012D3E8CF512C312C20E06D
:1020C0002032A0F48B3269F030F4803259F0833240
:1020D00069F420612CC08D3239F0803339F42160ED
:1020E00026C02260246023C0286021C027FD27C0AD
:1020F00030ED380F3A3078F426FF06C0FAE05F9EE4
:10210000300D1124532E13C08AE0389E300D112457
:10211000332E20620CC08E3221F426FD5FC1206474
:1021200006C08C3611F4206802C0883641F4F601EE
:1021300093FD859193FF81916F018111C1CF982FFC
:102140009F7D9554933028F40C5F1F4FFFE3F98374
:102150000DC0833631F0833771F0833509F057C0F5
:1021600021C0F801808189830E5F1F4F442443946E
:10217000512C540114C03801F2E06F0E711CF801AB
:10218000A080B18026FF03C0652D70E002C06FEF14
:102190007FEFC5012C8797D22C0183012C852F77E7
:1021A000222E16C03801F2E06F0E711CF801A080DB
:1021B000B18026FF03C0652D70E002C06FEF7FEF96
:1021C000C5012C876ED22C012C852068222E83011C
:1021D00023FC19C0832D90E048165906A0F4B701DE
:1021E00080E290E07BD23A94F5CFF50127FC85910F
:1021F00027FE81915F01B70190E070D231103A94CF
:10220000F1E04F1A51084114510479F7DEC08436C9
:1022100011F0893631F5F80127FF07C0608171811F
:10222000828193810C5F1F4F08C060817181072EEE
:10223000000C880B990B0E5F1F4F2F76722E97FFA5
:1022400009C090958095709561957F4F8F4F9F4FF6
:102250002068722E2AE030E0A40178D2A82EA818B7
:1022600043C0853729F42F7EB22E2AE030E025C006
:10227000F22FF97FBF2E8F36C1F018F4883579F030
:10228000ADC0803719F0883721F0A8C02F2F20610A
:10229000B22EB4FE0DC08B2D8460B82E09C024FF71
:1022A0000AC09F2F9660B92E06C028E030E005C016
:1022B00020E130E002C020E132E0F801B7FE07C0C3
:1022C00060817181828193810C5F1F4F06C06081A4
:1022D000718180E090E00E5F1F4FA40137D2A82EDD
:1022E000A818FB2DFF777F2E76FE0BC0372D3E7F83
:1022F000A51450F474FE0AC072FC08C0372D3E7E4F
:1023000005C0BA2C372D03C0BA2C01C0B52C34FF40
:102310000DC0FE01EA0DF11D8081803311F4397E7C
:1023200009C032FF06C0B394B39404C0832F8678EB
:1023300009F0B39433FD12C030FF06C05A2CB31419
:1023400018F4530C5B18B32CB31460F4B70180E29B
:1023500090E03C87C3D1B3943C85F6CFB31410F41E
:102360003B1801C0312C34FF11C0B70180E390E06D
:102370003C87B4D13C8532FF16C031FD03C088E7ED
:1023800090E002C088E590E0B7010CC0832F86780A
:1023900051F031FF02C08BE201C080E237FD8DE2D7
:1023A000B70190E09BD1A51430F4B70180E390E031
:1023B00095D15A94F8CFAA94F401EA0DF11D8081C9
:1023C000B70190E08BD1A110F6CF332009F45DCE98
:1023D000B70180E290E082D13A94F7CFF70186818D
:1023E000978102C08FEF9FEF2C96CDBFDEBFDF91AC
:1023F000CF911F910F91FF90EF90DF90CF90BF9002
:10240000AF909F908F907F906F905F904F903F9094
:102410002F9008950F931F93CF93DF93869F800192
:10242000879F100D969F100D1124C8010DD0EC014F
:10243000009721F0A80160E070E03ED1CE01DF916D
:10244000CF911F910F910895CF93DF938230910523
:1024500010F482E090E0E0916B21F0916C2120E09B
:1024600030E0C0E0D0E0309711F140815181481751
:102470005907C0F04817590761F48281938120976A
:1024800019F08A839B832BC080936B2190936C21DE
:1024900026C02115310519F04217530718F49A0187
:1024A000BE01DF01EF010280F381E02DDCCF2115B9
:1024B000310509F1281B390B2430310590F41296AF
:1024C0008D919C9113976115710521F0FB01828319
:1024D000938304C080936B2190936C21FD0132960D
:1024E00044C0FD01E20FF31F819391932250310903
:1024F0002D933C933AC02091692130916A21232B7E
:1025000041F42091022030910320209369213093DF
:102510006A2120910020309101202115310541F4DC
:102520002DB73EB74091042050910520241B350B58
:10253000E0916921F0916A21E217F307A0F42E1BC4
:102540003F0B2817390778F0AC014E5F5F4F241717
:10255000350748F04E0F5F1F4093692150936A2161
:102560008193919302C0E0E0F0E0CF01DF91CF9141
:1025700008950F931F93CF93DF93009709F48CC0B6
:10258000FC0132971282138200916B2110916C2111
:102590000115110581F420813181820F931F209153
:1025A000692130916A212817390779F5E09369216B
:1025B000F0936A2171C0D80140E050E0AE17BF0728
:1025C00050F412962D913C911397AD0121153105D0
:1025D00009F1D901F3CF9D01DA01228333836081B0
:1025E0007181860F971F8217930769F4EC01288188
:1025F0003981260F371F2E5F3F4F208331838A8119
:102600009B8182839383452B29F4E0936B21F09384
:102610006C2142C01296ED93FC931397ED01499102
:1026200059919E01240F351FE217F30771F4808141
:102630009181840F951F02968D939C9311978281AF
:10264000938112968D939C931397E0E0F0E0D8016C
:1026500012968D919C911397009719F0F8018C01B7
:10266000F6CF8D919C9198012E5F3F4F820F931F63
:102670002091692130916A212817390769F4309730
:1026800029F410926B2110926C2102C012821382E5
:102690000093692110936A21DF91CF911F910F91CF
:1026A0000895FC010590615070400110D8F78095A5
:1026B00090958E0F9F1F0895DC0101C06D934150CE
:1026C0005040E0F70895FC01615070400190011006
:1026D000D8F7809590958E0F9F1F08950F931F93A5
:1026E000CF93DF93FB01238121FD03C08FEF9FEF89
:1026F00028C022FF16C046815781248135814217A8
:10270000530744F4A081B1819D012F5F3F4F208387
:1027100031838C93268137812F5F3F4F2683378308
:1027200010C0EB01092F182F0084F185E02D1995B9
:10273000892BE1F68E819F8101968E839F83812F65
:10274000902FDF91CF911F910F910895FA01AA2741
:10275000283051F1203181F1E8946F936E7F6E5FE4
:102760007F4F8F4F9F4FAF4FB1E03ED0B4E03CD092
:10277000670F781F891F9A1FA11D680F791F8A1F75
:10278000911DA11D6A0F711D811D911DA11D20D0DC
:1027900009F468943F912AE0269F11243019305D96
:1027A0003193DEF6CF010895462F4770405D419387
:1027B000B3E00FD0C9F7F6CF462F4F70405D4A33D4
:1027C00018F0495D31FD4052419302D0A9F7EACF9C
:1027D000B4E0A6959795879577956795BA95C9F7CB
:1027E00000976105710508959B01AC010A2E0694BE
:1027F0005795479537952795BA95C9F7620F731F77
:0C280000841F951FA01D0895F894FFCFC1
:10280C0000006D212000C8009600010001000100AD
:10281C0001000100010002000100030001000100A1
:10282C000300010001000100010001000100010092
:10283C00020002000100010004000100010001007F
:10284C00010004000100010001000100040001006E
:10285C000100010001000100010002000100010063
:10286C000100010004000100010001000100010051
:10287C00010004000400020001000100010001003D
:10288C0001000100040004000200646462646564D9
:10289C006262612062612064646264656462616288
:1028AC006167676762644765654765646464626411
:1028BC0065646261636261670063646664412041C0
:1028CC004720636466644720476620002E00120090
:1028DC0000C20100030001676162636465664741E1
:1028EC004243C400DC00F700060126014A015D01E9
:1028FC008801B801EE010B02546573743A00466FFF
:10290C00722074696D653A25690A0054656D7065AD
:10291C007261747572652069733A25690A00726573
:10292C006164206164633A2025690A00766F6C74D7
:10293C003A20252E32660A007265733A20252E3213
:04294C00660A000017
:00000001FF
