S01C00005445414D32204F4E45204D4F4E544820434F44452E73726563CC
S1130000F9C000001CC100001AC1000018C10000A2
S113001016C1000014C1000012C1000010C100008C
S11300200EC100000CC100000AC1000008C100009C
S113003006C1000004C1000002C1000000C10000AC
S1130040FEC00000FCC00000FAC00000F8C00000C0
S1130050F6C00000F4C00000F2C00000F0C00000D0
S1130060EEC00000ECC00000EAC00000E8C00000E0
S1130070E6C00000E4C00000E2C00000E0C00000F0
S1130080DEC00000DCC00000DAC00000D8C0000000
S1130090D6C00000D4C00000D2C0000023C20000BB
S11300A05EC2000099C20000D4C20000C8C00000B3
S11300B0C6C00000C4C00000C2C00000C0C0000030
S11300C0BEC00000BCC00000BAC00000B8C0000040
S11300D0B6C00000B4C00000B2C00000B0C0000050
S11300E0AEC00000ACC00000AAC00000A8C0000060
S11300F0A6C00000A4C00000A2C00000A0C0000070
S11301009EC000009CC000009AC0000098C000007F
S113011096C0000094C0000092C00000EFC0000030
S11301202AC1000065C10000A0C1000088C0000011
S113013086C0000084C0000082C0000080C00000AF
S11301407EC000007CC000007AC0000078C00000BF
S113015076C0000074C0000072C0000070C00000CF
S11301606EC000006CC000006AC0000068C00000DF
S113017066C0000064C0000062C0000060C00000EF
S11301805EC000005CC000005AC0000058C00000FF
S113019056C0000054C0000052C0000050C000000F
S11301A04EC000004CC000004AC0000048C000001F
S11301B046C0000044C0000042C0000040C000002F
S11301C03EC000003CC000003AC0000038C000003F
S11301D036C0000034C0000032C0000030C000004F
S11301E02EC000002CC000002AC0000028C000005F
S11301F026C0000011241FBECFEFCDBFDFE3DEBF5A
S113020000E00CBF18BE19BE1ABE1BBE10E2A0E06F
S1130210B0E2E2E3F3E100E00BBF02C007900D920D
S1130220AE30B107D9F71BBE20E2AEE0B0E201C0A8
S11302301D92A232B207E1F794D60C949709E0CE4E
S11302408FEF80937000809371008093720080938D
S113025073008093740080937500809376009FB739
S1130260F894E0E5F0E08081826080839FBF818123
S113027081FFFDCF61E080E490E028D29FB7F8943D
S1130280E0E5F0E080818E7F80839FBF08959FB773
S1130290F894E82FF0E0E059FF4F609580816823DF
S11302A060839FBF0895CF93DF931F92CDB7DEB7CE
S11302B08091122090911320E0910E20F0910F2054
S11302C0BE016F5F7F4F19958981082E000C990B31
S11302D00F90DF91CF910895682F80911220909113
S11302E01320E0911020F0911120199599231CF00E
S11302F081E090E008958FEF9FEF08951F920F9291
S11303000FB60F92112408B60F9218BE09B60F92B9
S113031019BE0BB60F921BBE2F933F934F935F935F
S11303206F937F938F939F93AF93BF93EF93FF93B9
S11303304091240250912502E0911620F09117205B
S113034061E080E092E01995FF91EF91BF91AF9148
S11303509F918F917F916F915F914F913F912F91D9
S11303600F900BBE0F9009BE0F9008BE0F900FBEEA
S11303700F901F9018951F920F920FB60F92112491
S113038008B60F9218BE09B60F9219BE0BB60F929B
S11303901BBE2F933F934F935F936F937F938F93E2
S11303A09F93AF93BF93EF93FF9340912C0250918F
S11303B02D02E0911620F091172062E080E092E097
S11303C01995FF91EF91BF91AF919F918F917F917B
S11303D06F915F914F913F912F910F900BBE0F90B2
S11303E009BE0F9008BE0F900FBE0F901F90189576
S11303F01F920F920FB60F92112408B60F9218BED7
S113040009B60F9219BE0BB60F921BBE2F933F93E2
S11304104F935F936F937F938F939F93AF93BF9308
S1130420EF93FF934091340250913502E0911620EE
S1130430F091172064E080E092E01995FF91EF912C
S1130440BF91AF919F918F917F916F915F914F91E8
S11304503F912F910F900BBE0F9009BE0F9008BED5
S11304600F900FBE0F901F9018951F920F920FB60A
S11304700F92112408B60F9218BE09B60F9219BE36
S11304800BB60F921BBE2F933F934F935F936F93C3
S11304907F938F939F93AF93BF93EF93FF93409179
S11304A03C0250913D02E0911620F091172068E043
S11304B080E092E01995FF91EF91BF91AF919F91E8
S11304C08F917F916F915F914F913F912F910F90F9
S11304D00BBE0F9009BE0F9008BE0F900FBE0F9079
S11304E01F9018951F920F920FB60F92112408B601
S11304F00F9218BE09B60F9219BE0BB60F921BBE0F
S11305002F933F934F935F936F937F938F939F9317
S1130510AF93BF93EF93FF934091640250916502B0
S1130520E0911420F091152061E080E492E01995A7
S1130530FF91EF91BF91AF919F918F917F916F91B7
S11305405F914F913F912F910F900BBE0F9009BE79
S11305500F9008BE0F900FBE0F901F9018951F921A
S11305600F920FB60F92112408B60F9218BE09B657
S11305700F9219BE0BB60F921BBE2F933F934F934E
S11305805F936F937F938F939F93AF93BF93EF93F7
S1130590FF9340916C0250916D02E0911420F09110
S11305A0152062E080E492E01995FF91EF91BF91EC
S11305B0AF919F918F917F916F915F914F913F91F7
S11305C02F910F900BBE0F9009BE0F9008BE0F9095
S11305D00FBE0F901F9018951F920F920FB60F9297
S11305E0112408B60F9218BE09B60F9219BE0BB6A5
S11305F00F921BBE2F933F934F935F936F937F9301
S11306008F939F93AF93BF93EF93FF9340917402A3
S113061050917502E0911420F091152064E080E47B
S113062092E01995FF91EF91BF91AF919F918F91B6
S11306307F916F915F914F913F912F910F900BBEDE
S11306400F9009BE0F9008BE0F900FBE0F901F9021
S113065018951F920F920FB60F92112408B60F929D
S113066018BE09B60F9219BE0BB60F921BBE2F937C
S11306703F934F935F936F937F938F939F93AF9326
S1130680BF93EF93FF9340917C0250917D02E091E0
S11306901420F091152068E080E492E01995FF9110
S11306A0EF91BF91AF919F918F917F916F915F91E6
S11306B04F913F912F910F900BBE0F9009BE0F9059
S11306C008BE0F900FBE0F901F9018951BBEFC0123
S11306D028ED24BF60830895FC01918195FFFDCF2F
S11306E0608380E090E00895FC0191819923ECF708
S11306F0808108952F923F924F925F926F927F92E2
S11307008F929F92AF92BF92CF92DF92EF92FF921D
S11307100F931F93CF931C012A013B0148015901F8
S1130720D901C801689412F8B695A795979587954D
S11307301694D1F7B901A801032E36E17695679591
S1130740579547953A95D1F7302DF101248122FD33
S113075008C0B695A795979587957695679557950B
S1130760479584159505A605B70508F4AAC044164F
S113077055066606770608F4A6C0F101848182FD59
S113078004C0440C551C661C771CC501B401A301AC
S1130790920113D42F3F31054105510508F495C04A
S11307A0C12CD12C7601CA94C9EF05C02C153D0586
S11307B04E055F0568F0CC0CDD1CEE1CFF1CCD3F24
S11307C014F46894C0F8CF5FC73081F78C2F54C0FD
S11307D08C2FCC230CF050C0D301C201880F991F79
S11307E0AA1FBB1F880F991FAA1FBB1F880F991F21
S11307F0AA1FBB1F85017401E81AF90A0A0B1B0B17
S1130800D801C701CE3FECF42DEF3FEF2C1B31098B
S1130810C7FD339504C0880F991FAA1FBB1F2A95D3
S1130820D2F773016201F694E794D794C794BC019C
S1130830CD016C0D7D1D8E1D9F1DA3019201BDD3A5
S113084036C023E02C0F8301720104C0EE0CFF1CA0
S1130850001F111F2A95D2F7A8019701670178019B
S1130860F694E794D794C794BC01CD016C0D7D1D1B
S11308708E1D9F1DA2D31BC08D5FA301920104C0D6
S1130880220F331F441F551F8A95D2F7DA01C9017D
S1130890B695A79597958795BC01CD01680D791DEF
S11308A08A1D9B1D8AD32150310941095109832F87
S11308B08F70C295C07FC82BF101C783268381E066
S11308C01CC080E01AC080E018C0D301C201880FA8
S11308D0991FAA1FBB1F880F991FAA1FBB1F880F30
S11308E0991FAA1FBB1F85017401E81AF90A0A0B94
S11308F01B0BD801C701C9EF87CFCF911F910F916F
S1130900FF90EF90DF90CF90BF90AF909F908F902B
S11309107F906F905F904F903F902F9008950F932A
S11309201F93CF93DF93EC018B01009709F436C139
S1130930803C910521F460E180E0A9DC2FC1C03442
S113094084E0D80721F468E080E0A1DC27C1C11568
S1130950E4E0DE0721F464E080E099DC1FC1C038E4
S1130960F1E0DF0721F462E080E091DC17C1C115FA
S113097081E0D80721F461E080E089DC0FC1C03850
S1130980E3E0DE0721F461E081E081DC07C1C039E6
S1130990F3E0DF0721F461E082E079DCFFC0C115F8
S11309A082E0D80721F462E081E071DCF7C0C03452
S11309B0E2E0DE0721F462E082E069DCEFC0C11509
S11309C0F3E0DF0721F464E081E061DCE7C0C032DA
S11309D083E0D80721F464E082E059DCDFC0C1156C
S11309E0E8E0DE0721F461E083E051DCD7C0C11503
S11309F0F9E0DF0721F461E084E049DCCFC0C115F0
S1130A008AE0D80721F461E085E041DCC7C0C11564
S1130A10EBE0DE0721F461E086E039DCBFC0C034DE
S1130A20F8E0DF0721F462E083E031DCB7C0C034D2
S1130A3089E0D80721F462E084E029DCAFC0C03447
S1130A40EAE0DE0721F462E085E021DCA7C0C034DF
S1130A50FBE0DF0721F462E086E019DC9FC0C039C7
S1130A6088E0D80721F464E083E011DC97C0C03942
S1130A70E9E0DE0721F464E084E009DC8FC0C039DA
S1130A80FAE0DF0721F464E085E001DC87C0C039C7
S1130A908BE0D80721F464E086E0F9DB7FC0C03C3A
S1130AA0E8E0DE0721F468E083E0F1DB77C0C03CD6
S1130AB0F9E0DF0721F468E084E0E9DB6FC0C03CC3
S1130AC08AE0D80721F468E085E0E1DB67C0C03C38
S1130AD0EBE0DE0721F468E086E0D9DB5FC0C03AD2
S1130AE0F8E0DF0721F460E183E0D1DB57C0C03ACE
S1130AF089E0D80721F460E184E0C9DB4FC0C03A43
S1130B00EAE0DE0721F460E185E0C1DB47C0C03ADA
S1130B10FBE0DF0721F460E186E0B9DB3FC0C03BC6
S1130B2088E0D80721F460E283E0B1DB37C0C03B42
S1130B30E9E0DE0721F460E284E0A9DB2FC0C03BDA
S1130B40FAE0DF0721F460E285E0A1DB27C0C03BC7
S1130B508BE0D80721F460E286E099DB1FC0C0383F
S1130B60E4E0DE0721F460E483E091DB17C0C039E0
S1130B70F4E0DF0721F460E484E089DB0FC0C03ACD
S1130B8084E0D80721F460E485E081DB07C0C03B42
S1130B90E4E0DE0719F460E486E079DB8D818F738D
S1130BA08D83F80194818581892B9681911198E038
S1130BB0892B8D83F801408151816281738100E02A
S1130BC018E428EE31E0CE0195DD9C8198609C8389
S1130BD09C8190619C83DF91CF911F910F91089527
S1130BE0CF93DF932FEF20938006E0E0FAE026E036
S1130BF0208323EF218386A397A3C6A1D7A186A12F
S1130C0097A1262F30E0B901C4D1C61BD70BC0A7CA
S1130C10D1A7C6A1D7A186A197A1B901BAD1C61BF4
S1130C20D70BC2A7D3A7C6A1D7A186A197A1B90103
S1130C30B0D1C61BD70BC4A7D5A7C6A1D7A186A17F
S1130C4097A1B901A6D1C61BD70BC6A7D7A7DF9119
S1130C50CF910895CF93DF93EB0146DD8883DF9135
S1130C60CF91089539CD0895CF93DF93CDB7DEB7F3
S1130C702797CDBFDEBFE0E4F6E088E0818385837B
S1130C808FEF848380EA98E080931220909313205E
S1130C9082E396E080931020909311208AE296E0FC
S1130CA080930E2090930F20E6E0F0E284818D8300
S1130CB085818E8386818F8380819181A281B38196
S1130CC089839A83AB83BC8360E183E0E0DABE016D
S1130CD06F5F7F4F80EA98E022DE63E571E08CE687
S1130CE091E08DD12796CDBFDEBFDF91CF910895DE
S1130CF0009709F435C1803C910521F460E180E05E
S1130D00C6CA0895803424E0920721F468E080E0A4
S1130D10BECA0895811524E0920721F464E080E0BE
S1130D20B6CA0895803821E0920721F462E080E099
S1130D30AECA0895811521E0920721F461E080E0B4
S1130D40A6CA0895803823E0920721F461E081E087
S1130D509ECA0895803923E0920721F461E082E07D
S1130D6096CA0895811522E0920721F462E081E099
S1130D708ECA0895803422E0920721F462E082E072
S1130D8086CA0895811523E0920721F464E081E086
S1130D907ECA0895803223E0920721F464E082E061
S1130DA076CA0895811528E0920721F461E083E072
S1130DB06ECA0895811529E0920721F461E084E068
S1130DC066CA089581152AE0920721F461E085E05E
S1130DD05ECA089581152BE0920721F461E086E054
S1130DE056CA0895803428E0920721F462E083E033
S1130DF04ECA0895803429E0920721F462E084E029
S1130E0046CA089580342AE0920721F462E085E01E
S1130E103ECA089580342BE0920721F462E086E014
S1130E2036CA0895803928E0920721F464E083E00B
S1130E302ECA0895803929E0920721F464E084E001
S1130E4026CA089580392AE0920721F464E085E0F7
S1130E501ECA089580392BE0920721F464E086E0ED
S1130E6016CA0895803C28E0920721F468E083E0E4
S1130E700ECA0895803C29E0920721F468E084E0DA
S1130E8006CA0895803C2AE0920721F468E085E0D0
S1130E90FEC90895803C2BE0920721F468E086E0C7
S1130EA0F6C90895803A28E0920721F460E183E0CE
S1130EB0EEC90895803A29E0920721F460E184E0C4
S1130EC0E6C90895803A2AE0920721F460E185E0BA
S1130ED0DEC90895803A2BE0920721F460E186E0B0
S1130EE0D6C90895803B28E0920721F460E283E0AC
S1130EF0CEC90895803B29E0920721F460E284E0A2
S1130F00C6C90895803B2AE0920721F460E285E097
S1130F10BEC90895803B2BE0920721F460E286E08D
S1130F20B6C90895803824E0920721F460E483E090
S1130F30AEC90895803924E0920721F460E484E086
S1130F40A6C90895803A24E0920721F460E485E07C
S1130F509EC90895803B944019F460E486E097C9E3
S1130F6008956ED980EA98E0C3DE80E09AE0C0DE9E
S1130F7064E085E08CD978DE6AE083ED90E330DECE
S1130F8080E092E0B5DEE0E8F6E08FEF8083148243
S1130F90FFCFAA1BBB1B51E107C0AA1FBB1FA6178B
S1130FA0B70710F0A61BB70B881F991F5A95A9F70E
S1130FB080959095BC01CD010895A1E21A2EAA1B3B
S1130FC0BB1BFD010DC0AA1FBB1FEE1FFF1FA217F5
S1130FD0B307E407F50720F0A21BB30BE40BF50BF2
S1130FE0661F771F881F991F1A9469F7609570957B
S1130FF0809590959B01AC01BD01CF0108950F939D
S11310001F93CF93DF93009731F46115710519F4A1
S113101080E090E039C08B01EC016EE070E081E08B
S113102090E037D0FC01892B99F380E88383011584
S1131030110571F00287138781E88383809118205A
S113104090911920892B21F4E0931820F093192012
S11310502097C9F0C087D187838182608383809180
S11310601A2090911B20892B71F4E0931A20F0939D
S11310701B2080911C2090911D20892B21F4E0934A
S11310801C20F0931D20CF01DF91CF911F910F9170
S113109008950F931F93CF93DF93869F8001879FBB
S11310A0100D969F100D1124C8010DD0EC0100976E
S11310B021F0A80160E070E033D1CE01DF91CF913F
S11310C01F910F910895CF93DF938230910510F40F
S11310D082E090E0E0912020F091212020E030E0B7
S11310E0C0E0D0E0309711F1408151814817590791
S11310F0C0F04817590761F482819381209719F051
S11311008A839B832BC0809320209093212026C028
S11311102115310519F04217530718F49A01BE013D
S1131120DF01EF010280F381E02DDCCF21153105D1
S113113009F1281B390B2430310590F412968D9156
S11311409C9113976115710521F0FB0182839383B0
S113115004C08093202090932120FD01329644C046
S1131160FD01E20FF31F81939193225031092D93D6
S11311703C933AC020911E2030911F20232B41F430
S1131180209102203091032020931E2030931F20B1
S113119020910020309101202115310541F42DB713
S11311A03EB74091042050910520241B350BE0915B
S11311B01E20F0911F20E217F307A0F42E1B3F0B13
S11311C02817390778F0AC014E5F5F4F24173507B5
S11311D048F04E0F5F1F40931E2050931F208193B1
S11311E0919302C0E0E0F0E0CF01DF91CF91089548
S11311F00F931F93CF93DF93009709F48CC0FC01E6
S1131200329712821382009120201091212001151F
S1131210110581F420813181820F931F20911E20BA
S113122030911F202817390779F5E0931E20F09399
S11312301F2071C0D80140E050E0AE17BF0750F442
S113124012962D913C911397AD012115310509F1A9
S1131250D901F3CF9D01DA01228333836081718147
S1131260860F971F8217930769F4EC01288139814F
S1131270260F371F2E5F3F4F208331838A819B8146
S113128082839383452B29F4E0932020F09321203B
S113129042C01296ED93FC931397ED014991599135
S11312A09E01240F351FE217F30771F480819181A9
S11312B0840F951F02968D939C931197828193813D
S11312C012968D939C931397E0E0F0E0D801129668
S11312D08D919C911397009719F0F8018C01F6CF2A
S11312E08D919C9198012E5F3F4F820F931F209107
S11312F01E2030911F202817390769F4309729F4EC
S1131300109220201092212002C012821382009396
S11313101E2010931F20DF91CF911F910F910895EC
S1131320DC0101C06D9341505040E0F70895F894FA
S1051330FFCFE9
S111133200002220200000C201000300010080
S9030000FC
