:100000003AC100005EC100005CC100005AC100009E
:1000100058C1000056C1000054C1000052C1000088
:1000200050C100004EC100004CC100004AC1000098
:1000300048C1000046C1000044C1000042C10000A8
:1000400040C100003EC100003CC100003AC10000B8
:1000500038C1000036C1000034C1000032C10000C8
:1000600030C100002EC100002CC100002AC10000D8
:1000700028C1000026C1000024C1000022C10000E8
:1000800020C100001EC100001CC100001AC10000F8
:1000900018C1000016C1000014C10000FAC300001E
:1000A00035C4000070C40000ABC400000AC10000E9
:1000B00008C1000006C1000004C1000002C1000028
:1000C00000C10000FEC00000FCC00000FAC000003B
:1000D000F8C00000F6C00000F4C00000F2C000004C
:1000E000F0C00000EEC00000ECC00000EAC000005C
:1000F000E8C00000E6C00000E4C00000E2C000006C
:10010000E0C00000DEC00000DCC00000DAC000007B
:10011000D8C00000D6C00000D4C00000C6C2000095
:1001200001C300003CC3000077C30000CAC0000048
:10013000C8C00000C6C00000C4C00000C2C00000AB
:10014000C0C00000BEC00000BCC00000BAC00000BB
:10015000B8C00000B6C00000B4C00000B2C00000CB
:10016000B0C00000AEC00000ACC00000AAC00000DB
:10017000A8C00000A6C00000A4C00000A2C00000EB
:10018000A0C000009EC000009CC000009AC00000FB
:1001900098C0000096C0000094C0000092C000000B
:1001A00090C000008EC000008CC000008AC000001B
:1001B00088C0000086C0000084C0000082C000002B
:1001C00080C000007EC000007CC000007AC000003B
:1001D00078C0000076C0000074C0000072C000004B
:1001E00070C000006EC000006CC000006AC000005B
:1001F00068C0000008000000BE922449123EABAA6D
:10020000AA2ABECDCCCC4C3E00000080BEABAAAA30
:10021000AA3E00000000BF000000803F0000000078
:1002200000084178D3BB4387D1133D190E3CC3BDB1
:100230004282AD2B3E68EC8276BED98FE1A93E4C5E
:1002400080EFFFBE01C4FF7F3F0000000000076396
:100250004236B79BD8A71A39685618AEBAAB558C38
:100260001D3CB7CC5763BD6DEDFD753EF617723181
:10027000BF000000803F11241FBECFEFCDBFDFE3E2
:10028000DEBF00E00CBF18BE19BE1ABE1BBE10E2D6
:10029000A0E0B0E2E6E4F5E200E00BBF02C00790A8
:1002A0000D92A231B107D9F71BBE20E2A2E1B0E264
:1002B00001C01D92AD32B207E1F70E94F1090C9422
:1002C000A1129ECE8F929F92AF92BF92CF92DF9259
:1002D000EF92FF9291D66B017C018AD620E836EE30
:1002E00045EC57E40E946E0A2EE534ED42E45EE3ED
:1002F0000E94C00C4B015C0124EF3DEF44ED5BEB31
:10030000C701B6010E946E0A6B017C0120E030E05B
:1003100040E85FE3C501B4010E94090A9B01AC01FA
:10032000C701B6010E945D0CFF90EF90DF90CF9067
:10033000BF90AF909F908F9008954F925F926F9271
:100340007F928F929F92AF92BF92CF92DF92EF9265
:10035000FF920F931F93CF93DF93CDB7DEB7C85CA7
:10036000D109CDBFDEBFAEDF6B017C018E010F5F17
:100370001F4F5E0125E6A20EB11CA4DF9B01AC015C
:10038000C701B6010E94090A2AE037ED43E25CE3A7
:100390000E946E0AF80161937193819391938F018A
:1003A00091DF6B017C0180E090E001968535F0EDF6
:1003B0009F07D9F70A151B0501F78D819E81AF8133
:1003C000B885A9968CAF9DAFAEAFBFAFA9977E01A0
:1003D00025E0E20EF11C8E010B591F4F6E0185ECDA
:1003E000C80ED11CF70161917191819191917F01AA
:1003F000F80141905190619071908F012DEC3CEC8F
:100400004CE45EE30E945D0C4B015C012DEC3CEC86
:100410004CE45FE3C301B2010E945D0C9B01AC019F
:10042000C501B401F7D7F801608371838283938398
:100430000C151D05B9F68E0107591F4F7E01F9EC09
:10044000EF0EF11C60E070E0CB01F80121913191D9
:10045000419151918F01DED70E151F05B1F720E0B4
:1004600030E040EC51E40E946E0AC853DF4FCDBF2C
:10047000DEBFDF91CF911F910F91FF90EF90DF9042
:10048000CF90BF90AF909F908F907F906F905F9034
:100490004F900895AF92BF92CF92DF92EF92FF926A
:1004A0000F931F93CF93DF9391E090931420A12C8F
:1004B0000F2EF8E4BF2EF02D0F2EF8EECF2EF02DDC
:1004C000DD24D394E12CF12C00E010E0282F30E063
:1004D00040E050E060E070E080E090E00E94020EBA
:1004E00029513C4F4F4F5F4F6F4F7F4F8F4F9F4F63
:1004F0000E94790B20E030E84BEB55E4EFD70E94E7
:10050000DB0A722F632F942F852F542F482F24E05E
:1005100030E0C0E8D6E0072F162FF92FE82F8091A2
:100520001420982F90959C83880F80931420802FFF
:10053000912FAF2FBE2F0197A109B109E1F72150EB
:10054000310969F780E88093142024E030E0E0E886
:10055000F6E080911420982F90959483869580934F
:100560001420872F962FA52FB42F0197A109B10929
:10057000E1F72150310969F7DF91CF911F910F9178
:10058000FF90EF90DF90CF90BF90AF900895CF9302
:10059000DF932ED59F938F937F936F93CDE0D0E21F
:1005A000DF93CF930E94AC0E27D59F938F937F93B9
:1005B0006F93DF93CF930E94AC0E84DE9F938F9353
:1005C0007F936F93DF93CF930E94AC0EB6DE9F9321
:1005D0008F937F936F93DF93CF930E94AC0E8DB771
:1005E0009EB748968DBF9EBFDF91CF9108958FEF44
:1005F00080937000809371008093720080937300E9
:100600008093740080937500809376009FB7F89470
:10061000E0E5F0E08081826080839FBF818181FF7F
:10062000FDCF61E080E490E028D29FB7F894E0E548
:10063000F0E080818E7F80839FBF08959FB7F894FC
:10064000E82FF0E0E059FF4F6095808168236083D8
:100650009FBF0895CF93DF931F92CDB7DEB78091F0
:100660001D2090911E20E0911920F0911A20BE01CA
:100670006F5F7F4F19958981082E000C990B0F90A1
:10068000DF91CF910895682F80911D2090911E20B9
:10069000E0911B20F0911C20199599231CF081E01A
:1006A00090E008958FEF9FEF08951F920F920FB67D
:1006B0000F92112408B60F9218BE09B60F9219BEF8
:1006C0000BB60F921BBE2F933F934F935F936F9385
:1006D0007F938F939F93AF93BF93EF93FF9340913B
:1006E000240250912502E0912120F091222061E026
:1006F00080E092E01995FF91EF91BF91AF919F91AA
:100700008F917F916F915F914F913F912F910F90BA
:100710000BBE0F9009BE0F9008BE0F900FBE0F903A
:100720001F9018951F920F920FB60F92112408B6C2
:100730000F9218BE09B60F9219BE0BB60F921BBED0
:100740002F933F934F935F936F937F938F939F93D9
:10075000AF93BF93EF93FF9340912C0250912D02E2
:10076000E0912120F091222062E080E092E0199552
:10077000FF91EF91BF91AF919F918F917F916F9179
:100780005F914F913F912F910F900BBE0F9009BE3B
:100790000F9008BE0F900FBE0F901F9018951F92DC
:1007A0000F920FB60F92112408B60F9218BE09B619
:1007B0000F9219BE0BB60F921BBE2F933F934F9310
:1007C0005F936F937F938F939F93AF93BF93EF93B9
:1007D000FF934091340250913502E0912120F09135
:1007E000222064E080E092E01995FF91EF91BF91A3
:1007F000AF919F918F917F916F915F914F913F91B9
:100800002F910F900BBE0F9009BE0F9008BE0F9056
:100810000FBE0F901F9018951F920F920FB60F9258
:10082000112408B60F9218BE09B60F9219BE0BB666
:100830000F921BBE2F933F934F935F936F937F93C2
:100840008F939F93AF93BF93EF93FF9340913C029D
:1008500050913D02E0912120F091222068E080E05B
:1008600092E01995FF91EF91BF91AF919F918F9178
:100870007F916F915F914F913F912F910F900BBEA0
:100880000F9009BE0F9008BE0F900FBE0F901F90E3
:1008900018951F920F920FB60F92112408B60F925F
:1008A00018BE09B60F9219BE0BB60F921BBE2F933E
:1008B0003F934F935F936F937F938F939F93AF93E8
:1008C000BF93EF93FF934091640250916502E091D2
:1008D0001F20F091202061E080E492E01995FF91C3
:1008E000EF91BF91AF919F918F917F916F915F91A8
:1008F0004F913F912F910F900BBE0F9009BE0F901B
:1009000008BE0F900FBE0F901F9018951F920F9268
:100910000FB60F92112408B60F9218BE09B60F92A7
:1009200019BE0BB60F921BBE2F933F934F935F934D
:100930006F937F938F939F93AF93BF93EF93FF93A7
:1009400040916C0250916D02E0911F20F0912020A7
:1009500062E080E492E01995FF91EF91BF91AF9131
:100960009F918F917F916F915F914F913F912F91C7
:100970000F900BBE0F9009BE0F9008BE0F900FBED8
:100980000F901F9018951F920F920FB60F9211247F
:1009900008B60F9218BE09B60F9219BE0BB60F9289
:1009A0001BBE2F933F934F935F936F937F938F93D0
:1009B0009F93AF93BF93EF93FF9340917402509135
:1009C0007502E0911F20F091202064E080E492E025
:1009D0001995FF91EF91BF91AF919F918F917F9169
:1009E0006F915F914F913F912F910F900BBE0F90A0
:1009F00009BE0F9008BE0F900FBE0F901F90189564
:100A00001F920F920FB60F92112408B60F9218BEC4
:100A100009B60F9219BE0BB60F921BBE2F933F93D0
:100A20004F935F936F937F938F939F93AF93BF93F6
:100A3000EF93FF9340917C0250917D02E0911F2043
:100A4000F091202068E080E492E01995FF91EF9109
:100A5000BF91AF919F918F917F916F915F914F91D6
:100A60003F912F910F900BBE0F9009BE0F9008BEC3
:100A70000F900FBE0F901F9018951BBEFC0128ED24
:100A800024BF608308954091CA01E62FF72F809319
:100A9000CA0184914093CA010895FC01918195FF98
:100AA000FDCF608380E090E00895FC01918199235F
:100AB000ECF7808108952F923F924F925F926F9250
:100AC0007F928F929F92AF92BF92CF92DF92EF92DE
:100AD000FF920F931F93CF931C012A013B01480102
:100AE0005901D901C801689412F8B695A795979550
:100AF00087951694D1F7B901A801032E36E17695B2
:100B00006795579547953A95D1F7302DF101248196
:100B100022FD08C0B695A795979587957695679518
:100B20005795479584159505A605B70508F4ABC0FC
:100B3000441655066606770608F4A7C0F1018481BD
:100B400082FD04C0440C551C661C771CC501B40111
:100B5000A30192010E94E00D2F3F3105410551058F
:100B600008F495C0C12CD12C7601CA94C9EF05C0F8
:100B70002C153D054E055F0568F0CC0CDD1CEE1C08
:100B8000FF1CCD3F14F46894C0F8CF5FC73081F7E5
:100B90008C2F54C08C2FCC230CF050C0D301C20139
:100BA000880F991FAA1FBB1F880F991FAA1FBB1F61
:100BB000880F991FAA1FBB1F85017401E81AF90A43
:100BC0000A0B1B0BD801C701CE3FECF42DEF3FEF12
:100BD0002C1B3109C7FD339504C0880F991FAA1F2C
:100BE000BB1F2A95D2F773016201F694E794D7945C
:100BF000C794BC01CD016C0D7D1D8E1D9F1DA301F1
:100C00009201DED736C023E02C0F8301720104C0AD
:100C1000EE0CFF1C001F111F2A95D2F7A8019701A7
:100C200067017801F694E794D794C794BC01CD018D
:100C30006C0D7D1D8E1D9F1DC3D71BC08D5FA30135
:100C4000920104C0220F331F441F551F8A95D2F70B
:100C5000DA01C901B695A79597958795BC01CD0195
:100C6000680D791D8A1D9B1DABD7215031094109A3
:100C70005109832F8F70C295C07FC82BF101C783A4
:100C8000268381E01CC080E01AC080E018C0D30138
:100C9000C201880F991FAA1FBB1F880F991FAA1F87
:100CA000BB1F880F991FAA1FBB1F85017401E81A7B
:100CB000F90A0A0B1B0BD801C701C9EF87CFCF91E7
:100CC0001F910F91FF90EF90DF90CF90BF90AF906A
:100CD0009F908F907F906F905F904F903F902F905C
:100CE00008950F931F93CF93DF93EC018B0100972F
:100CF00009F436C1803C910521F460E180E09EDC7E
:100D00002FC1C03484E0D80721F468E080E096DC8D
:100D100027C1C115E4E0DE0721F464E080E08EDC49
:100D20001FC1C038F1E0DF0721F462E080E086DC1B
:100D300017C1C11581E0D80721F461E080E07EDCB5
:100D40000FC1C038E3E0DE0721F461E081E076DC2A
:100D500007C1C039F3E0DF0721F461E082E06EDC17
:100D6000FFC0C11582E0D80721F462E081E066DCB3
:100D7000F7C0C034E2E0DE0721F462E082E05EDC2E
:100D8000EFC0C115F3E0DF0721F464E081E056DC39
:100D9000E7C0C03283E0D80721F464E082E04EDC93
:100DA000DFC0C115E8E0DE0721F461E083E046DC46
:100DB000D7C0C115F9E0DF0721F461E084E03EDC33
:100DC000CFC0C1158AE0D80721F461E085E036DCA8
:100DD000C7C0C115EBE0DE0721F461E086E02EDC40
:100DE000BFC0C034F8E0DF0721F462E083E026DC16
:100DF000B7C0C03489E0D80721F462E084E01EDC8B
:100E0000AFC0C034EAE0DE0721F462E085E016DC22
:100E1000A7C0C034FBE0DF0721F462E086E00EDC0F
:100E20009FC0C03988E0D80721F464E083E006DC85
:100E300097C0C039E9E0DE0721F464E084E0FEDB1E
:100E40008FC0C039FAE0DF0721F464E085E0F6DB0B
:100E500087C0C0398BE0D80721F464E086E0EEDB80
:100E60007FC0C03CE8E0DE0721F468E083E0E6DB19
:100E700077C0C03CF9E0DF0721F468E084E0DEDB06
:100E80006FC0C03C8AE0D80721F468E085E0D6DB7B
:100E900067C0C03CEBE0DE0721F468E086E0CEDB13
:100EA0005FC0C03AF8E0DF0721F460E183E0C6DB11
:100EB00057C0C03A89E0D80721F460E184E0BEDB86
:100EC0004FC0C03AEAE0DE0721F460E185E0B6DB1E
:100ED00047C0C03AFBE0DF0721F460E186E0AEDB0B
:100EE0003FC0C03B88E0D80721F460E283E0A6DB86
:100EF00037C0C03BE9E0DE0721F460E284E09EDB1E
:100F00002FC0C03BFAE0DF0721F460E285E096DB0A
:100F100027C0C03B8BE0D80721F460E286E08EDB7F
:100F20001FC0C038E4E0DE0721F460E483E086DB24
:100F300017C0C039F4E0DF0721F460E484E07EDB11
:100F40000FC0C03A84E0D80721F460E485E076DB86
:100F500007C0C03BE4E0DE0719F460E486E06EDB26
:100F60008D818F738D83F80194818581892B968182
:100F7000911198E0892B8D83F80140815181628124
:100F8000738100E018E428EE31E0CE0194DD9C810D
:100F900098609C839C8190619C83DF91CF911F918D
:100FA0000F910895FF920F931F93CF93DF93C0E0AB
:100FB000D2E0FF24F394F882198280E18A8385E0ED
:100FC0008C8361E270E082E05EDD082F10E0102F7C
:100FD000002760E270E082E056DD082B0C871D8759
:100FE000F8A219A2DF91CF911F910F91FF90089560
:100FF00060E070E0CB0108958F929F92AF92BF9214
:10100000CF92DF92EF92FF92E0E0F2E080A1806861
:1010100080A383A18823E9F36091240270912502C3
:1010200080E090E029D32FE632E143E05AE345D453
:1010300020E837EB40EC5DE3ECD1F2D280E090E0C9
:101040001BD323E333E343E550E4E3D120E030E472
:101050004CE156E432D423E333E343E550E43ED29B
:1010600020E030E44CE156E439D2E7D36B017C0157
:1010700021EF3BEB46E859E320D42DE03FEC4BE574
:101080005BE3C8D14B015C012AE633E149E853E355
:10109000C701B60112D49B01AC01C701B6010DD442
:1010A0009B01AC01C701B60108D49B01AC01C5018D
:1010B000B401B0D19B01AC0160E070E080E89FE337
:1010C0000DD2FF90EF90DF90CF90BF90AF909F90A8
:1010D0008F900895CF93DF93EB01E7DC8883DF9156
:1010E000CF910895DACC0895CF93DF93CDB7DEB7D3
:1010F0002797CDBFDEBFE0E4F6E088E081838583FB
:101100008FEF848380EA98E080931D2090931E20C7
:1011100082E798E080931B2090931C208AE698E059
:101120008093192090931A20E6E0F0E284818D8369
:1011300085818E8386818F8380819181A281B38115
:1011400089839A83AB83BC8360E183E077DABE0155
:101150006F5F7F4F80EA98E0C4DD6AE273E083E46A
:1011600093E0B0D52796CDBFDEBFDF91CF91089534
:10117000009709F435C1803C910521F460E180E0DD
:101180005DCA0895803424E0920721F468E080E08D
:1011900055CA0895811524E0920721F464E080E0A7
:1011A0004DCA0895803821E0920721F462E080E082
:1011B00045CA0895811521E0920721F461E080E09D
:1011C0003DCA0895803823E0920721F461E081E070
:1011D00035CA0895803923E0920721F461E082E066
:1011E0002DCA0895811522E0920721F462E081E082
:1011F00025CA0895803422E0920721F462E082E05B
:101200001DCA0895811523E0920721F464E081E06E
:1012100015CA0895803223E0920721F464E082E049
:101220000DCA0895811528E0920721F461E083E05A
:1012300005CA0895811529E0920721F461E084E050
:10124000FDC9089581152AE0920721F461E085E047
:10125000F5C9089581152BE0920721F461E086E03D
:10126000EDC90895803428E0920721F462E083E01C
:10127000E5C90895803429E0920721F462E084E012
:10128000DDC9089580342AE0920721F462E085E008
:10129000D5C9089580342BE0920721F462E086E0FE
:1012A000CDC90895803928E0920721F464E083E0F5
:1012B000C5C90895803929E0920721F464E084E0EB
:1012C000BDC9089580392AE0920721F464E085E0E1
:1012D000B5C9089580392BE0920721F464E086E0D7
:1012E000ADC90895803C28E0920721F468E083E0CE
:1012F000A5C90895803C29E0920721F468E084E0C4
:101300009DC90895803C2AE0920721F468E085E0B9
:1013100095C90895803C2BE0920721F468E086E0AF
:101320008DC90895803A28E0920721F460E183E0B6
:1013300085C90895803A29E0920721F460E184E0AC
:101340007DC90895803A2AE0920721F460E185E0A2
:1013500075C90895803A2BE0920721F460E186E098
:101360006DC90895803B28E0920721F460E283E094
:1013700065C90895803B29E0920721F460E284E08A
:101380005DC90895803B2AE0920721F460E285E080
:1013900055C90895803B2BE0920721F460E286E076
:1013A0004DC90895803824E0920721F460E483E079
:1013B00045C90895803924E0920721F460E484E06F
:1013C0003DC90895803A24E0920721F460E485E065
:1013D00035C90895803B944019F460E486E02EC935
:1013E000089505D980EA98E0C3DE80E092E0C0DE8F
:1013F00080E09AE0BDDE64E085E020D975DED2DDD4
:10140000E0E8F6E08FEF80831482C1D884E642D80A
:10141000FCCF5058BB27AA270ED0D0C1C1D130F085
:10142000C6D120F031F49F3F11F41EF4A6C10EF492
:10143000E095E7FB9CC1E92FD2D180F3BA17620790
:1014400073078407950718F071F49EF5EAC10EF44E
:10145000E0950B2EBA2FA02D0B01B90190010C01C4
:10146000CA01A0011124FF27591B99F0593F50F4DC
:10147000503E68F11A16F040A22F232F342F442734
:10148000585FF3CF469537952795A795F04053952C
:10149000C9F77EF41F16BA0B620B730B840BBAF0FC
:1014A0009150A1F0FF0FBB1F661F771F881FC2F767
:1014B0000EC0BA0F621F731F841F48F4879577957B
:1014C0006795B795F7959E3F08F0B3CF9395880F32
:1014D00008F09927EE0F9795879508950CD06EC167
:1014E00066D140F05DD130F021F45F3F19F03FC18B
:1014F000511198C142C173D198F39923C9F355236F
:10150000B1F3951B550BBB27AA27621773078407F6
:1015100038F09F5F5F4F220F331F441FAA1FA9F3AC
:1015200033D00E2E3AF0E0E830D091505040E6959E
:10153000001CCAF729D0FE2F27D0660F771F881FFF
:10154000BB1F261737074807AB07B0E809F0BB0BEE
:10155000802DBF01FF2793585F4F2AF09E3F510512
:1015600068F005C15FC15F3FECF3983EDCF3869500
:1015700077956795B795F7959F5FC9F7880F911D88
:101580009695879597F90895E1E0660F771F881F74
:10159000BB1F621773078407BA0720F0621B730B27
:1015A000840BBA0BEE1F88F7E0950895BEE304D0D4
:1015B00008F490E80895BFE322273327A90117D143
:1015C00058F19F5740F1B91738F1BFE3B91B99277C
:1015D000B8503AF4660F771F881F991FB395D2F35E
:1015E00016C0B8504AF0232F342F452F562F672F9F
:1015F000782F8827B850BAF7B85F49F08695779565
:1016000067955795479537952795BA95B9F70EF48D
:10161000B7D088940895889460E070E0CB01089575
:10162000E6D088F09F5790F0B92F9927B751A0F0D6
:10163000D1F0660F771F881F991F1AF0BA95C9F766
:1016400012C0B13081F0EDD0B1E00895EAC0672F4B
:10165000782F8827B85F39F0B93FCCF38695779516
:101660006795B395D9F73EF49095809570956195FF
:101670007F4F8F4F9F4F0895E89409C097FB3EF42A
:1016800090958095709561957F4F8F4F9F4F9923CF
:10169000A9F0F92F96E9BB279395F695879577954D
:1016A0006795B795F111F8CFFAF4BB0F11F460FF0D
:1016B0001BC06F5F7F4F8F4F9F4F16C0882311F065
:1016C00096E911C0772321F09EE8872F762F05C079
:1016D000662371F096E8862F70E060E02AF09A9514
:1016E000660F771F881FDAF7880F9695879597F909
:1016F0000895E894F92F96EBFF2381F01216130654
:101700001406440B9395F6958795779567955795AD
:101710004040FF23B9F71BC099270895882351F44F
:101720009850D2F7872B762F652F542F432F322FC7
:1017300020E0B1F3121613061406440B88233AF086
:101740009A95440F551F661F771F881FCAF75523A8
:101750004AF4440F551F11F460FF04C06F5F7F4FC0
:101760008F4F9F4F880F9695879597F9089597F912
:101770009F6780E870E060E008959FEF80EC089537
:1017800090958095709560955095409530952195F0
:101790003F4F4F4F5F4F6F4F7F4F8F4F9F4F08957A
:1017A00000240A9416161706180609060895002440
:1017B0000A9412161306140605060895092E0394BA
:1017C000000C11F4882352F0BB0F40F4BF2B11F42E
:1017D00060FF04C06F5F7F4F8F4F9F4F089557FD8D
:1017E0009058440F551F59F05F3F71F04795880F8F
:1017F00097FB991F61F09F3F79F087950895121626
:1018000013061406551FF2CF4695F1DF08C01616D1
:1018100017061806991FF1CF869571056105089482
:101820000895E894BB2766277727CB0197F9089599
:101830000EF023C1A2CF68949ACFD9DFC8F39923C1
:10184000D1F3C6F3DF93CF931F930F93FF92C92F6A
:10185000DD2788232AF02197660F771F881FDAF784
:1018600020E030E040E85FEB9FE3883920F0803EE5
:1018700030F021968F77CEDDE4EFF1E003C0CADDD2
:10188000E1E2F2E008D18B01BE01EC01FB2E6F57C3
:1018900071097595771F880B990BF0DE28E132E707
:1018A00041E35FE316D0AF2D9801AE01FF900F9199
:1018B0001F91CF91DF91BFDD81CF0BD07FCF70DF44
:1018C00028F075DF18F0952309F051CF56CF112479
:1018D000A9CF85DFA0F3959FD1F3950F50E0551F59
:1018E000629FF001729FBB27F00DB11D639FAA2775
:1018F000F00DB11DAA1F649F6627B00DA11D661FC4
:10190000829F2227B00DA11D621F739FB00DA11DE4
:10191000621F839FA00D611D221F749F3327A00D9E
:10192000611D231F849F600D211D822F762F6A2F3A
:1019300011249F5750408AF0E1F088234AF0EE0FBF
:10194000FF1FBB1F661F771F881F91505040A9F7CC
:101950009E3F510570F00BCF65CF5F3FECF3983E93
:10196000DCF3869577956795B795F795E7959F5F33
:10197000C1F7FE2B880F911D9695879597F90895CD
:10198000FA01EE0FFF1F30962105310599F161151F
:10199000710561F48038BFE39B0749F16894903882
:1019A000810561F08038BFEF9B0741F0992342F534
:1019B000FF3FE1053105210511F1E8940894E79511
:1019C000D901AA2329F4AB2FBE2FF85FD0F310C0A2
:1019D000FF5F70F4A695E0F7F73950F019F0FF3A81
:1019E00038F49F779F930CD00F9007FC9058089580
:1019F0003EF0C3CE60E070E080E89FE308954FE7DB
:101A00009F775F934F933F932F9317DF2F913F91D2
:101A10004F915F9152DF05C019F40EF0A8CE01CFAF
:101A2000ACCEE5DEC8F39638C0F707F80F92E8941D
:101A30002BE33AEA48EB5FE74EDF0F920F920F92EB
:101A40004DB75EB70F9289D0EEE4F2E024D04F910B
:101A50005F91EF91FF91E595EE1FFF1F49F0FE5753
:101A6000E0684427EE0F441FFA95E1F74195550BC6
:101A700040D00F9007FE34C008959F3F31F0915041
:101A800020F4879577956795B795880F911D969562
:101A9000879597F90895DF93CF931F930F93FF9244
:101AA000EF92DF927B018C01689405C0DA2EEF0182
:101AB00010DFFE01E894A59125913591459155914E
:101AC000AEF3EF01B8DCFE019701A801DA9479F7D3
:101AD000DF90EF90FF900F911F91CF91DF910895CC
:101AE0009B01AC0160E070E080E89FE3F7CC3FCE63
:101AF000C4CF7DDEE8F39923D9F3940F511DBBF3D6
:101B00009150504094F059F0882332F0660F771FBF
:101B1000881F91505040C1F79E3F510544F7880FF0
:101B2000911D9695879597F908955F3FACF0983E83
:101B30009CF0BB27869577956795B79508F4B160BB
:101B40009395C1F7BB0F58F711F460FFE8CF6F5FB3
:101B50007F4F8F4F9F4FE3CF65CEFA01DC01AA0F75
:101B6000BB1F9B01AC01BF5728F422273327442712
:101B700050781FC0B75188F4AB2F00244695379595
:101B80002795011CA395D2F3002069F0220F331F83
:101B9000441FB395DAF30DD03CCC61307105A0E859
:101BA0008A07B94630F49B01AC016627772788275E
:101BB0009078309621F020833183428353830895B7
:101BC000A1E21A2EAA1BBB1BFD010DC0AA1FBB1F41
:101BD000EE1FFF1FA217B307E407F50720F0A21BB3
:101BE000B30BE40BF50B661F771F881F991F1A9420
:101BF00069F760957095809590959B01AC01BD014A
:101C0000CF010895DF93CF931F930F939A9DF02DEB
:101C1000219FF00D8B9DF00D8A9DE02DF10D039F0E
:101C2000F00D029FE00DF11D4E9DE00DF11D5E9D3A
:101C3000F00D4F9DF00D7F936F93BF92AF925F9326
:101C40004F93D50130D08B01AC01D7012CD0EB01E3
:101C5000E80FF91FD6011FD02F913F91D60123D055
:101C6000C60FD71FE81FF91FAF91BF9114D02F9156
:101C70003F9119D0C60FD71FE81FF91FD60113D007
:101C8000E60FF71F9801BE01CF0111240F911F919C
:101C9000CF91DF91089507D0460F571FC81FD91F56
:101CA00008F431960895A29FB001B39FC001A39F8D
:101CB000700D811D1124911DB29F700D811D112485
:101CC000911D08950F931F93CF93DF93009731F4E5
:101CD0006115710519F480E090E039C08B01EC01C9
:101CE0006EE070E081E090E032D2FC01892B99F344
:101CF00080E883830115110571F00287138781E85D
:101D000083838091232090912420892B21F4E093D8
:101D10002320F09324202097C9F0C087D1878381A6
:101D2000826083838091252090912620892B71F4F5
:101D3000E0932520F0932620809127209091282061
:101D4000892B21F4E0932720F0932820CF01DF9105
:101D5000CF911F910F910895CF93DF93CDB7DEB749
:101D6000AE014A5F5F4FFA0161917191AF018091BD
:101D700025209091262003D0DF91CF9108952F92B6
:101D80003F924F925F926F927F928F929F92AF920B
:101D9000BF92CF92DF92EF92FF920F931F93CF9358
:101DA000DF93CDB7DEB72C97CDBFDEBF7C016B01D3
:101DB0008A01FC0116821782838181FFB0C1CE01A6
:101DC00001964C01F7019381F60193FD859193FFF4
:101DD00081916F01882309F49EC1853239F493FD06
:101DE000859193FF81916F01853221F4B70190E0D5
:101DF00012D3E8CF512C312C20E02032A0F48B32CA
:101E000069F030F4803259F0833269F420612CC0DB
:101E10008D3239F0803339F4216026C0226024608D
:101E200023C0286021C027FD27C030ED380F3A308D
:101E300078F426FF06C0FAE05F9E300D1124532E81
:101E400013C08AE0389E300D1124332E20620CC05E
:101E50008E3221F426FD5FC1206406C08C3611F459
:101E6000206802C0883641F4F60193FD859193FF06
:101E700081916F018111C1CF982F9F7D955493302F
:101E800028F40C5F1F4FFFE3F9830DC0833631F058
:101E9000833771F0833509F057C021C0F801808184
:101EA00089830E5F1F4F44244394512C540114C066
:101EB0003801F2E06F0E711CF801A080B18026FF9E
:101EC00003C0652D70E002C06FEF7FEFC5012C8766
:101ED00097D22C0183012C852F77222E16C0380132
:101EE000F2E06F0E711CF801A080B18026FF03C0E4
:101EF000652D70E002C06FEF7FEFC5012C876ED2B9
:101F00002C012C852068222E830123FC19C0832DEF
:101F100090E048165906A0F4B70180E290E07BD229
:101F20003A94F5CFF50127FC859127FE81915F0159
:101F3000B70190E070D231103A94F1E04F1A510895
:101F40004114510479F7DEC0843611F0893631F539
:101F5000F80127FF07C060817181828193810C5F46
:101F60001F4F08C060817181072E000C880B990BF0
:101F70000E5F1F4F2F76722E97FF09C090958095A8
:101F8000709561957F4F8F4F9F4F2068722E2AE08A
:101F900030E0A40178D2A82EA81843C0853729F4D0
:101FA0002F7EB22E2AE030E025C0F22FF97FBF2E1F
:101FB0008F36C1F018F4883579F0ADC0803719F04C
:101FC000883721F0A8C02F2F2061B22EB4FE0DC09B
:101FD0008B2D8460B82E09C024FF0AC09F2F966005
:101FE000B92E06C028E030E005C020E130E002C094
:101FF00020E132E0F801B7FE07C060817181828183
:1020000093810C5F1F4F06C06081718180E090E07A
:102010000E5F1F4FA40137D2A82EA818FB2DFF7703
:102020007F2E76FE0BC0372D3E7FA51450F474FE34
:102030000AC072FC08C0372D3E7E05C0BA2C372D71
:1020400003C0BA2C01C0B52C34FF0DC0FE01EA0D4F
:10205000F11D8081803311F4397E09C032FF06C042
:10206000B394B39404C0832F867809F0B39433FDFE
:1020700012C030FF06C05A2CB31418F4530C5B186E
:10208000B32CB31460F4B70180E290E03C87C3D175
:10209000B3943C85F6CFB31410F43B1801C0312C37
:1020A00034FF11C0B70180E390E03C87B4D13C8598
:1020B00032FF16C031FD03C088E790E002C088E51A
:1020C00090E0B7010CC0832F867851F031FF02C039
:1020D0008BE201C080E237FD8DE2B70190E09BD139
:1020E000A51430F4B70180E390E095D15A94F8CF6D
:1020F000AA94F401EA0DF11D8081B70190E08BD123
:10210000A110F6CF332009F45DCEB70180E290E054
:1021100082D13A94F7CFF7018681978102C08FEF81
:102120009FEF2C96CDBFDEBFDF91CF911F910F9116
:10213000FF90EF90DF90CF90BF90AF909F908F90E7
:102140007F906F905F904F903F902F9008950F93E6
:102150001F93CF93DF93869F8001879F100D969FDB
:10216000100D1124C8010DD0EC01009721F0A80139
:1021700060E070E03ED1CE01DF91CF911F910F91D1
:102180000895CF93DF938230910510F482E090E0C0
:10219000E0912B20F0912C2020E030E0C0E0D0E056
:1021A000309711F14081518148175907C0F0481705
:1021B000590761F482819381209719F08A839B8368
:1021C0002BC080932B2090932C2026C02115310505
:1021D00019F04217530718F49A01BE01DF01EF010D
:1021E0000280F381E02DDCCF2115310509F1281B98
:1021F000390B2430310590F412968D919C911397F0
:102200006115710521F0FB018283938304C08093E3
:102210002B2090932C20FD01329644C0FD01E20F4B
:10222000F31F81939193225031092D933C933AC02F
:102230002091292030912A20232B41F42091022043
:10224000309103202093292030932A2020910020D0
:10225000309101202115310541F42DB73EB7409151
:10226000042050910520241B350BE0912920F0918A
:102270002A20E217F307A0F42E1B3F0B281739077B
:1022800078F0AC014E5F5F4F2417350748F04E0FD2
:102290005F1F4093292050932A208193919302C07D
:1022A000E0E0F0E0CF01DF91CF9108950F931F930D
:1022B000CF93DF93009709F48CC0FC013297128210
:1022C000138200912B2010912C200115110581F40F
:1022D00020813181820F931F2091292030912A2063
:1022E0002817390779F5E0932920F0932A2071C047
:1022F000D80140E050E0AE17BF0750F412962D9180
:102300003C911397AD012115310509F1D901F3CFA6
:102310009D01DA012283338360817181860F971FCB
:102320008217930769F4EC0128813981260F371F42
:102330002E5F3F4F208331838A819B8182839383E9
:10234000452B29F4E0932B20F0932C2042C01296C9
:10235000ED93FC931397ED01499159919E01240F40
:10236000351FE217F30771F480819181840F951F67
:1023700002968D939C9311978281938112968D93EF
:102380009C931397E0E0F0E0D80112968D919C9118
:102390001397009719F0F8018C01F6CF8D919C915D
:1023A00098012E5F3F4F820F931F2091292030917B
:1023B0002A202817390769F4309729F410922B2026
:1023C00010922C2002C012821382009329201093B5
:1023D0002A20DF91CF911F910F910895FC01059064
:1023E000615070400110D8F7809590958E0F9F1F17
:1023F0000895DC0101C06D9341505040E0F708950D
:10240000FC016150704001900110D8F780959095C3
:102410008E0F9F1F08950F931F93CF93DF93FB01A0
:10242000238121FD03C08FEF9FEF28C022FF16C03C
:1024300046815781248135814217530744F4A08196
:10244000B1819D012F5F3F4F208331838C93268183
:1024500037812F5F3F4F2683378310C0EB01092F51
:10246000182F0084F185E02D1995892BE1F68E81D6
:102470009F8101968E839F83812F902FDF91CF9133
:102480001F910F910895FA01AA27283051F12031A8
:1024900081F1E8946F936E7F6E5F7F4F8F4F9F4FF8
:1024A000AF4FB1E03ED0B4E03CD0670F781F891F3A
:1024B0009A1FA11D680F791F8A1F911DA11D6A0F08
:1024C000711D811D911DA11D20D009F468943F91BB
:1024D0002AE0269F11243019305D3193DEF6CF01BA
:1024E0000895462F4770405D4193B3E00FD0C9F780
:1024F000F6CF462F4F70405D4A3318F0495D31FDED
:102500004052419302D0A9F7EACFB4E0A69597953F
:10251000879577956795BA95C9F700976105710515
:1025200008959B01AC010A2E06945795479537955F
:102530002795BA95C9F7620F731F841F951FA01DB9
:062540000895F894FFCF9E
:1025460000002D20200000C2010003000125660ABC
:02255600000083
:00000001FF
