:10000000F9C000001CC100001AC1000018C10000A6
:1000100016C1000014C1000012C1000010C1000090
:100020000EC100000CC100000AC1000008C10000A0
:1000300006C1000004C1000002C1000000C10000B0
:10004000FEC00000FCC00000FAC00000F8C00000C4
:10005000F6C00000F4C00000F2C00000F0C00000D4
:10006000EEC00000ECC00000EAC00000E8C00000E4
:10007000E6C00000E4C00000E2C00000E0C00000F4
:10008000DEC00000DCC00000DAC00000D8C0000004
:10009000D6C00000D4C00000D2C0000023C20000BF
:1000A0005EC2000099C20000D4C20000C8C00000B7
:1000B000C6C00000C4C00000C2C00000C0C0000034
:1000C000BEC00000BCC00000BAC00000B8C0000044
:1000D000B6C00000B4C00000B2C00000B0C0000054
:1000E000AEC00000ACC00000AAC00000A8C0000064
:1000F000A6C00000A4C00000A2C00000A0C0000074
:100100009EC000009CC000009AC0000098C0000083
:1001100096C0000094C0000092C00000EFC0000034
:100120002AC1000065C10000A0C1000088C0000015
:1001300086C0000084C0000082C0000080C00000B3
:100140007EC000007CC000007AC0000078C00000C3
:1001500076C0000074C0000072C0000070C00000D3
:100160006EC000006CC000006AC0000068C00000E3
:1001700066C0000064C0000062C0000060C00000F3
:100180005EC000005CC000005AC0000058C0000003
:1001900056C0000054C0000052C0000050C0000013
:1001A0004EC000004CC000004AC0000048C0000023
:1001B00046C0000044C0000042C0000040C0000033
:1001C0003EC000003CC000003AC0000038C0000043
:1001D00036C0000034C0000032C0000030C0000053
:1001E0002EC000002CC000002AC0000028C0000063
:1001F00026C0000011241FBECFEFCDBFDFE3DEBF5E
:1002000000E00CBF18BE19BE1ABE1BBE10E2A0E073
:10021000B0E2E0EFF2E100E00BBF02C007900D9208
:10022000AE30B107D9F71BBE20E2AEE0B0E201C0AC
:100230001D92A332B207E1F753D60C947609E0CEB3
:100240008FEF809370008093710080937200809391
:1002500073008093740080937500809376008FB74D
:10026000F894E0E5F0E09081926090838FBF818107
:1002700081FFFDCF61E080E490E028D28FB7F89451
:10028000E0E5F0E090819E7F90838FBF08959FB757
:10029000F894E82FF0E0E059FF4F609580816823E3
:1002A00060839FBF0895CF93DF931F92CDB7DEB7D2
:1002B0008091122090911320E0910E20F0910F2058
:1002C000BE016F5F7F4F19958981992787FD9095B2
:1002D0000F90DF91CF910895682F80911220909117
:1002E0001320E0911020F0911120199599231CF40E
:1002F0008FEF9FEF089581E090E008951F920F9295
:100300000FB60F92112408B60F9218BE09B60F92BD
:1003100019BE0BB60F921BBE2F933F934F935F9363
:100320006F937F938F939F93AF93BF93EF93FF93BD
:10033000E0E0F2E044A155A1E0911620F0911720F1
:1003400061E080E092E01995FF91EF91BF91AF914C
:100350009F918F917F916F915F914F913F912F91DD
:100360000F900BBE0F9009BE0F9008BE0F900FBEEE
:100370000F901F9018951F920F920FB60F92112495
:1003800008B60F9218BE09B60F9219BE0BB60F929F
:100390001BBE2F933F934F935F936F937F938F93E6
:1003A0009F93AF93BF93EF93FF93E8E2F2E0448112
:1003B0005581E0911620F091172062E080E092E0F4
:1003C0001995FF91EF91BF91AF919F918F917F917F
:1003D0006F915F914F913F912F910F900BBE0F90B6
:1003E00009BE0F9008BE0F900FBE0F901F9018957A
:1003F0001F920F920FB60F92112408B60F9218BEDB
:1004000009B60F9219BE0BB60F921BBE2F933F93E6
:100410004F935F936F937F938F939F93AF93BF930C
:10042000EF93FF93E0E3F2E044815581E0911620E1
:10043000F091172064E080E092E01995FF91EF9130
:10044000BF91AF919F918F917F916F915F914F91EC
:100450003F912F910F900BBE0F9009BE0F9008BED9
:100460000F900FBE0F901F9018951F920F920FB60E
:100470000F92112408B60F9218BE09B60F9219BE3A
:100480000BB60F921BBE2F933F934F935F936F93C7
:100490007F938F939F93AF93BF93EF93FF93E8E383
:1004A000F2E044815581E0911620F091172068E038
:1004B00080E092E01995FF91EF91BF91AF919F91EC
:1004C0008F917F916F915F914F913F912F910F90FD
:1004D0000BBE0F9009BE0F9008BE0F900FBE0F907D
:1004E0001F9018951F920F920FB60F92112408B605
:1004F0000F9218BE09B60F9219BE0BB60F921BBE13
:100500002F933F934F935F936F937F938F939F931B
:10051000AF93BF93EF93FF93E0E4F2E044A155A1C2
:10052000E0911420F091152061E080E492E01995AB
:10053000FF91EF91BF91AF919F918F917F916F91BB
:100540005F914F913F912F910F900BBE0F9009BE7D
:100550000F9008BE0F900FBE0F901F9018951F921E
:100560000F920FB60F92112408B60F9218BE09B65B
:100570000F9219BE0BB60F921BBE2F933F934F9352
:100580005F936F937F938F939F93AF93BF93EF93FB
:10059000FF93E8E6F2E044815581E0911420F09168
:1005A000152062E080E492E01995FF91EF91BF91F0
:1005B000AF919F918F917F916F915F914F913F91FB
:1005C0002F910F900BBE0F9009BE0F9008BE0F9099
:1005D0000FBE0F901F9018951F920F920FB60F929B
:1005E000112408B60F9218BE09B60F9219BE0BB6A9
:1005F0000F921BBE2F933F934F935F936F937F9305
:100600008F939F93AF93BF93EF93FF93E0E7F2E055
:1006100044815581E0911420F091152064E080E43C
:1006200092E01995FF91EF91BF91AF919F918F91BA
:100630007F916F915F914F913F912F910F900BBEE2
:100640000F9009BE0F9008BE0F900FBE0F901F9025
:1006500018951F920F920FB60F92112408B60F92A1
:1006600018BE09B60F9219BE0BB60F921BBE2F9380
:100670003F934F935F936F937F938F939F93AF932A
:10068000BF93EF93FF93E8E7F2E044815581E09157
:100690001420F091152068E080E492E01995FF9114
:1006A000EF91BF91AF919F918F917F916F915F91EA
:1006B0004F913F912F910F900BBE0F9009BE0F905D
:1006C00008BE0F900FBE0F901F9018951BBEFC0127
:1006D00028ED24BF60830895FC01818185FFFDCF53
:1006E000608380E090E00895FC0181818823ECF72D
:1006F000808108954F925F926F927F928F929F9226
:10070000AF92BF92CF92DF92EF92FF920F931F931F
:10071000CF93DF93EC014A015B0128013901D90134
:10072000C801689412F8B695A79597958795169481
:10073000D1F7B901A801032E36E176956795579553
:1007400047953A95D1F7302D2C8122FD08C0B695FA
:10075000A7959795879576956795579547958815A9
:100760009905AA05BB0508F4A2C084169506A6063D
:10077000B70608F49EC08C8182FD04C0880C991CC9
:10078000AA1CBB1CC301B201A5019401FBD32F3FDE
:1007900031054105510508F48EC0C12CD12C7601DC
:1007A000CA9419EF05C02C153D054E055F0568F08C
:1007B000CC0CDD1CEE1CFF1C1D3F14F46894C0F82B
:1007C0001F5F173081F7212F4EC0212F11230CF00E
:1007D0004AC0D501C401880F991FAA1FBB1F880FEB
:1007E000991FAA1FBB1F880F991FAA1FBB1F481A5A
:1007F000590A6A0A7B0A1E3FECF46DEF7FEF611B1A
:10080000710917FD739504C0440C551C661C771CB8
:100810006A95D2F7D501C401B695A79597958795A6
:10082000BC01CD01640D751D861D971DA5019401A8
:10083000A9D334C023E0210FD501C40104C0880F1F
:10084000991FAA1FBB1F2A95D2F79C01AD01B6952F
:10085000A79597958795BC01CD01640D751D861DE3
:10086000971D90D31BC02D5FD501C40104C0880F14
:10087000991FAA1FBB1F2A95D2F79C01AD01B695FF
:10088000A79597958795BC01CD01640D751D861DB3
:10089000971D78D32150310941095109832F8F7059
:1008A0001295107F182B1F832E8381E018C080E0E3
:1008B00016C080E014C0D501C401880F991FAA1F7B
:1008C000BB1F880F991FAA1FBB1F880F991FAA1F44
:1008D000BB1F481A590A6A0A7B0A19EF8ECFDF91AB
:1008E000CF911F910F91FF90EF90DF90CF90BF902D
:1008F000AF909F908F907F906F905F904F900895F2
:100900000F931F93CF93DF93EC018B01009709F4B2
:1009100036C1803C910521F460E180E0B8DC2FC154
:10092000C03484E0D80721F468E080E0B0DC27C15F
:10093000C115E4E0DE0721F464E080E0A8DC1FC11B
:10094000C038F1E0DF0721F462E080E0A0DC17C1ED
:10095000C11581E0D80721F461E080E098DC0FC187
:10096000C038E3E0DE0721F461E081E090DC07C1FC
:10097000C039F3E0DF0721F461E082E088DCFFC0EA
:10098000C11582E0D80721F462E081E080DCF7C085
:10099000C034E2E0DE0721F462E082E078DCEFC000
:1009A000C115F3E0DF0721F464E081E070DCE7C00B
:1009B000C03283E0D80721F464E082E068DCDFC065
:1009C000C115E8E0DE0721F461E083E060DCD7C018
:1009D000C115F9E0DF0721F461E084E058DCCFC005
:1009E000C1158AE0D80721F461E085E050DCC7C07A
:1009F000C115EBE0DE0721F461E086E048DCBFC012
:100A0000C034F8E0DF0721F462E083E040DCB7C0E7
:100A1000C03489E0D80721F462E084E038DCAFC05C
:100A2000C034EAE0DE0721F462E085E030DCA7C0F4
:100A3000C034FBE0DF0721F462E086E028DC9FC0E1
:100A4000C03988E0D80721F464E083E020DC97C057
:100A5000C039E9E0DE0721F464E084E018DC8FC0EF
:100A6000C039FAE0DF0721F464E085E010DC87C0DC
:100A7000C0398BE0D80721F464E086E008DC7FC051
:100A8000C03CE8E0DE0721F468E083E000DC77C0EA
:100A9000C03CF9E0DF0721F468E084E0F8DB6FC0D8
:100AA000C03C8AE0D80721F468E085E0F0DB67C04D
:100AB000C03CEBE0DE0721F468E086E0E8DB5FC0E5
:100AC000C03AF8E0DF0721F460E183E0E0DB57C0E3
:100AD000C03A89E0D80721F460E184E0D8DB4FC058
:100AE000C03AEAE0DE0721F460E185E0D0DB47C0F0
:100AF000C03AFBE0DF0721F460E186E0C8DB3FC0DD
:100B0000C03B88E0D80721F460E283E0C0DB37C057
:100B1000C03BE9E0DE0721F460E284E0B8DB2FC0EF
:100B2000C03BFAE0DF0721F460E285E0B0DB27C0DC
:100B3000C03B8BE0D80721F460E286E0A8DB1FC051
:100B4000C038E4E0DE0721F460E483E0A0DB17C0F6
:100B5000C039F4E0DF0721F460E484E098DB0FC0E3
:100B6000C03A84E0D80721F460E485E090DB07C058
:100B7000C03BE4E0DE0719F460E486E088DB8D81A9
:100B80008F738D83F80194818581892B96819923B8
:100B900011F098E001C090E0892B8D83F80140812D
:100BA00051816281738100E018E428EE31E0CE01CA
:100BB000A1DD9C8198609C839C8190619C83DF91E6
:100BC000CF911F910F910895CF93DF93EB018CDDAF
:100BD0008883DF91CF9108957FCD0895CF93DF93E0
:100BE000CDB7DEB72797CDBFDEBFE0E4F6E088E003
:100BF000818385838FEF848380EA98E0809312203D
:100C0000909313208CEE95E0809310209093112008
:100C100084EE95E080930E2090930F2080910A201F
:100C20008D8380910B208E8380910C208F83809107
:100C3000062090910720A0910820B0910920898377
:100C40009A83AB83BC8360E183E021DBBE016F5FED
:100C50007F4F80EA98E054DE63E571E08CE691E036
:100C6000B3D12796CDBFDEBFDF91CF910895009716
:100C700009F435C1803C910521F460E180E007CBA7
:100C80000895803424E0920721F468E080E0FFCAF0
:100C90000895811524E0920721F464E080E0F7CA0A
:100CA0000895803821E0920721F462E080E0EFCAE5
:100CB0000895811521E0920721F461E080E0E7CA00
:100CC0000895803823E0920721F461E081E0DFCAD3
:100CD0000895803923E0920721F461E082E0D7CAC9
:100CE0000895811522E0920721F462E081E0CFCAE5
:100CF0000895803422E0920721F462E082E0C7CABE
:100D00000895811523E0920721F464E081E0BFCAD1
:100D10000895803223E0920721F464E082E0B7CAAC
:100D20000895811528E0920721F461E083E0AFCABD
:100D30000895811529E0920721F461E084E0A7CAB3
:100D4000089581152AE0920721F461E085E09FCAA9
:100D5000089581152BE0920721F461E086E097CA9F
:100D60000895803428E0920721F462E083E08FCA7E
:100D70000895803429E0920721F462E084E087CA74
:100D8000089580342AE0920721F462E085E07FCA6A
:100D9000089580342BE0920721F462E086E077CA60
:100DA0000895803928E0920721F464E083E06FCA57
:100DB0000895803929E0920721F464E084E067CA4D
:100DC000089580392AE0920721F464E085E05FCA43
:100DD000089580392BE0920721F464E086E057CA39
:100DE0000895803C28E0920721F468E083E04FCA30
:100DF0000895803C29E0920721F468E084E047CA26
:100E00000895803C2AE0920721F468E085E03FCA1B
:100E10000895803C2BE0920721F468E086E037CA11
:100E20000895803A28E0920721F460E183E02FCA18
:100E30000895803A29E0920721F460E184E027CA0E
:100E40000895803A2AE0920721F460E185E01FCA04
:100E50000895803A2BE0920721F460E186E017CAFA
:100E60000895803B28E0920721F460E283E00FCAF6
:100E70000895803B29E0920721F460E284E007CAEC
:100E80000895803B2AE0920721F460E285E0FFC9E3
:100E90000895803B2BE0920721F460E286E0F7C9D9
:100EA0000895803824E0920721F460E483E0EFC9DC
:100EB0000895803924E0920721F460E484E0E7C9D2
:100EC0000895803A24E0920721F460E485E0DFC9C8
:100ED0000895803B944019F460E486E0D8C90895F1
:100EE000AFD980EA98E0C3DE80E09AE0C0DE64E03B
:100EF00085E0CDD973DE80E092E0B9DEE0E8F6E08F
:100F00008FEF80831482D1E07AEA61E154E040E01F
:100F1000C0E4D093182024E030E080911820982F6E
:100F200090959483869580931820872F962FA52FD0
:100F3000B42F0197A109B1090097A105B105C9F71F
:100F4000215031092115310541F7C093182024E0C3
:100F500030E080911820982F90959483880F80938B
:100F60001820872F962FA52FB42F0197A109B1091B
:100F70000097A105B105C9F72150310921153105A7
:100F800041F7C7CFA1E21A2EAA1BBB1BFD010DC062
:100F9000AA1FBB1FEE1FFF1FA217B307E407F50729
:100FA00020F0A21BB30BE40BF50B661F771F881F05
:100FB000991F1A9469F760957095809590959B019B
:100FC000AC01BD01CF0108950F931F93CF93DF9321
:100FD000EC018B01009731F46115710519F480E083
:100FE00090E037C06EE070E081E090E037D0FC0127
:100FF0000097A9F380E883830115110571F002873A
:10100000138781E883838091192090911A20892B7E
:1010100021F4E0931920F0931A202097C9F0C0879B
:10102000D18783818260838380911B2090911C20D3
:10103000892B71F4E0931B20F0931C2080911D20DC
:1010400090911E20892B21F4E0931D20F0931E2007
:10105000CF01DF91CF911F910F9108950F931F93AF
:10106000CF93DF93869F8001879F100D969F100D71
:101070001124C8010DD0EC01009721F0A80160E017
:1010800070E02DD1CE01DF91CF911F910F91089586
:10109000CF93DF938230910510F482E090E0E091ED
:1010A0002120F091222020E030E0A0E0B0E0309755
:1010B00039F14081518148175907B8F0481759074D
:1010C00071F482819381109729F012968D939C93ED
:1010D00013972CC0809321209093222027C02115A4
:1010E000310531F04217530718F0A901DB0101C0A7
:1010F000EF019A01BD01DF010280F381E02DD7CF1E
:1011000021153105F9F0281B390B2430310580F405
:101110008A819B816115710521F0FB018283938394
:1011200004C08093212090932220FE01329644C077
:10113000FE01E20FF31F819391932250310928831E
:1011400039833AC020911F2030912020232B41F475
:10115000209102203091032020931F2030932020E3
:1011600020910020309101202115310541F42DB747
:101170003EB74091042050910520241B350BE0918F
:101180001F20F0912020E217F307A0F42E1B3F0B45
:101190002817390778F0AC014E5F5F4F24173507E9
:1011A00048F04E0F5F1F40931F20509320208193E3
:1011B000919302C0E0E0F0E0CF01DF91CF9108957C
:1011C000CF93DF93009709F487C0FC013297128216
:1011D0001382C0912120D0912220209781F4208178
:1011E0003181280F391F80911F2090912020821774
:1011F000930779F5E0931F20F09320206DC0DE0166
:1012000020E030E0AE17BF0750F412964D915C918C
:1012100013979D014115510509F1DA01F3CFA2831E
:10122000B38340815181840F951F8A179B0771F406
:101230008D919C911197840F951F029680839183C5
:1012400012968D919C91139782839383211531057A
:1012500029F4E0932120F09322203EC0D901129678
:10126000ED93FC9313974D915D91A40FB51FEA1771
:10127000FB0779F480819181840F951F0296D90133
:101280008D939C9311978281938112968D939C9359
:101290001397E0E0F0E08A819B81009719F0FE014E
:1012A000EC01F9CFCE01029628813981820F931F7C
:1012B00020911F20309120202817390769F430979A
:1012C00029F4109221201092222002C0128213824F
:1012D000C0931F20D0932020DF91CF910895DC018F
:1012E00001C06D9341505040E0F70895F894FFCF4E
:0E12F00000002320200000C2010003000100C6
:00000001FF
