S01C00005445414D32204F4E45204D4F4E544820434F44452E73726563CC
S1130000A7C10000CBC10000C9C10000C7C10000E6
S1130010C5C10000C3C10000C1C10000BFC10000D0
S1130020BDC10000BBC10000BAC10000DBC10000BB
S1130030B5C10000B3C10000B1C10000AFC10000F0
S1130040ADC10000ABC10000A9C10000A7C1000000
S1130050A5C10000A3C10000A1C100009FC1000010
S11300609DC100009BC1000099C1000097C1000020
S113007095C1000093C1000091C100008FC1000030
S11300808DC100008BC1000089C1000087C1000040
S113009085C1000083C1000081C1000069C4000063
S11300A0A4C40000DFC400001AC5000077C100002A
S11300B075C1000073C1000071C100006FC1000070
S11300C06DC100006BC1000069C1000067C1000080
S11300D065C1000063C1000061C100005FC1000090
S11300E05DC100005BC1000059C1000057C10000A0
S11300F055C1000053C1000051C100004FC10000B0
S11301004DC100004BC1000049C1000047C10000BF
S113011045C1000043C1000041C1000035C30000D7
S113012070C30000ABC30000E6C3000037C1000089
S113013035C1000033C1000031C100002FC10000EF
S11301402DC100002BC1000029C1000027C10000FF
S113015025C1000023C1000021C100001FC100000F
S11301601DC100001BC1000019C1000017C100001F
S113017015C1000013C1000011C100000FC100002F
S11301800DC100000BC1000009C1000007C100003F
S113019005C1000003C1000001C10000FFC0000050
S11301A0FDC00000FBC00000F9C00000F7C0000063
S11301B0F5C00000F3C00000F1C00000EFC0000073
S11301C0EDC00000EBC00000E9C00000E7C0000083
S11301D0E5C00000E3C00000E1C00000DFC0000093
S11301E0DDC00000DBC00000D9C00000D7C00000A3
S11301F0D5C0000008000000BE922449123EABAAFC
S1130200AA2ABECDCCCC4C3E00000080BEABAAAA2C
S1130210AA3E00000000BF000000803F0000000074
S113022000084178D3BB4387D1133D190E3CC3BDAD
S11302304282AD2B3E68EC8276BED98FE1A93E4C5A
S113024080EFFFBE01C4FF7F3F00000000006E612D
S11302506E00696E660000407A10F35A00A0724E78
S113026018090010A5D4E80000E87648170000E457
S11302700B54020000CA9A3B000000E1F50500009F
S113028080969800000040420F000000A086010004
S11302900000102700000000E803000000006400D4
S11302A0000000000A00000000000100000000003F
S11302B02C76D888DC674F0823DFC1DFAE59E1B163
S11302C0B796E5E3E453C63AE651997696E8E6C272
S11302D08426EB898C9B62ED407C6FFCEFBC9C9F79
S11302E040F2BAA56FA5F490055A2AF75C936B6C9B
S11302F0F9676DC11BFCE0E40D47FEF520E6B5008F
S1130300D0ED902E0300943577050080841E0800FC
S113031000204E0A000000C80C333333330F986EAC
S113032012831141EF8D2114893BE65516CFFEE669
S1130330DB18D1844B381BF77C1D901DA4BBE4242F
S1130340203284725E228100C9F124ECA1E53D27AC
S113035011241FBECFEFCDBFDFE3DEBF00E00CBF33
S113036018BE19BE1ABE1BBE10E2A0E0B0E2E4EE55
S1130370FFE200E00BBF02C007900D92A632B10766
S1130380D9F71BBE20E2A6E2B0E201C01D92AE3551
S1130390B207E1F70E94FC0C0C94F01731CE1F92C7
S11303A00F920FB60F92112408B60F9218BE0BB617
S11303B00F921BBE8F939F93EF93FF93E6E2F0E2BD
S11303C080819181019680839183FF91EF919F9128
S11303D08F910F900BBE0F9008BE0F900FBE0F9021
S11303E01F9018951F920F920FB60F92112408B602
S11303F00F9218BE09B60F9219BE0BB60F921BBE10
S1130400CF92DF92EF92FF920F931F932F933F931C
S11304104F935F936F937F938F939F93AF93BF9308
S1130420EF93FF93E6E2F0E28081918122813381B0
S113043082179307F0F121E020930204E0912C202D
S1130440F0912D203097A9F160910804709109046E
S1130450A0E0B0E0DC0199278827AB0160E070E000
S11304608C019D01042B152B262B372BC901B801B8
S1130470A6E2B0E212960D911C91139720E030E0B1
S11304809801112700271496CD90DC901597E12C44
S1130490F12C0C291D292E293F2906171707280797
S11304A0390730F0C901B8016F5F7F4F8F4F9F4FFD
S11304B01995FF91EF91BF91AF919F918F917F918A
S11304C06F915F914F913F912F911F910F91FF90E9
S11304D0EF90DF90CF900F900BBE0F9009BE0F905E
S11304E008BE0F900FBE0F901F9018958F929F9289
S11304F0AF92BF92CF92DF92EF92FF924B015C01D9
S1130500CA01B9010E946B0E9B01AC0160E876EE52
S113051085EC97E40E94C90D0E944C0F6B017C018D
S113052020E030E84FE853E4C501B4010E948C0F89
S11305302AE038EE4CE151E40E94C90DA70196016E
S11305400E948C0F28E439EF41E550E40E948C0F9F
S1130550FF90EF90DF90CF90BF90AF909F908F90DF
S11305600895AF92BF92CF92DF92EF92FF920F93D2
S11305701F93CF93DF9391E090933020A12C0F2E03
S1130580F8E4BF2EF02D0F2EF8EECF2EF02DDD2443
S1130590D394E12CF12C00E010E0282F30E040E06F
S11305A050E060E070E080E090E00E94D0132951B8
S11305B03C4F4F4F5F4F6F4F7F4F8F4F9F4F0E9466
S11305C0A80E20E030E84BEB55E40E94C90D0E94D0
S11305D0360E722F632F942F852F542F482F24E02B
S11305E030E0C0E8D6E0072F162FF92FE82F8091CE
S11305F03020982F90959C83880F80933020802FF3
S1130600912FAF2FBE2F0197A109B109E1F7215016
S1130610310969F780E88093302024E030E0E0E895
S1130620F6E080913020982F90959483869580935E
S11306303020872F962FA52FB42F0197A109B10938
S1130640E1F72150310969F7DF91CF911F910F91A3
S1130650FF90EF90DF90CF90BF90AF900895C3E1EB
S1130660D0E20F2EF5E5AF2EF02D0F2EF1E6BF2EC2
S1130670F02D01E510E084E674DF8DE090E20E9445
S11306801416CDD56B017C017FD7A70196012EDF0F
S11306909F938F937F936F93DF93CF930E94011661
S11306A00F900F900F900F900F900F908A2D9B2D0D
S11306B0A02FB12F0197A109B109E1F783E290E2DC
S11306C00E941416D8CF8FEF80937000809371002E
S11306D080937200809373008093740080937500FC
S11306E0809376009FB7F894E0E5F0E08081826023
S11306F080839FBF818181FFFDCF61E080E490E032
S11307002BD29FB7F894E0E5F0E080818E7F808360
S11307109FBF81E08093430008959FB7F894E82F2A
S1130720F0E0E059FF4F60958081682360839FBFAC
S11307300895CF93DF931F92CDB7DEB78091392010
S113074090913A20E0913520F0913620BE016F5F00
S11307507F4F19958981082E000C990B0F90DF911A
S1130760CF910895682F8091392090913A20E0919B
S11307703720F0913820199599231CF081E090E0FE
S113078008958FEF9FEF08951F920F920FB60F9267
S1130790112408B60F9218BE09B60F9219BE0BB6F3
S11307A00F921BBE2F933F934F935F936F937F934F
S11307B08F939F93AF93BF93EF93FF934091240242
S11307C050912502E0913D20F0913E2061E080E0CF
S11307D092E01995FF91EF91BF91AF919F918F9105
S11307E07F916F915F914F913F912F910F900BBE2D
S11307F00F9009BE0F9008BE0F900FBE0F901F9070
S113080018951F920F920FB60F92112408B60F92EB
S113081018BE09B60F9219BE0BB60F921BBE2F93CA
S11308203F934F935F936F937F938F939F93AF9374
S1130830BF93EF93FF9340912C0250912D02E091CE
S11308403D20F0913E2062E080E092E01995FF9116
S1130850EF91BF91AF919F918F917F916F915F9134
S11308604F913F912F910F900BBE0F9009BE0F90A7
S113087008BE0F900FBE0F901F9018951F920F92F5
S11308800FB60F92112408B60F9218BE09B60F9234
S113089019BE0BB60F921BBE2F933F934F935F93DA
S11308A06F937F938F939F93AF93BF93EF93FF9334
S11308B04091340250913502E0913D20F0913E2068
S11308C064E080E092E01995FF91EF91BF91AF91C0
S11308D09F918F917F916F915F914F913F912F9154
S11308E00F900BBE0F9009BE0F9008BE0F900FBE65
S11308F00F901F9018951F920F920FB60F9211240C
S113090008B60F9218BE09B60F9219BE0BB60F9215
S11309101BBE2F933F934F935F936F937F938F935C
S11309209F93AF93BF93EF93FF9340913C025091F9
S11309303D02E0913D20F0913E2068E080E092E0AD
S11309401995FF91EF91BF91AF919F918F917F91F5
S11309506F915F914F913F912F910F900BBE0F902C
S113096009BE0F9008BE0F900FBE0F901F901895F0
S11309701F920F920FB60F92112408B60F9218BE51
S113098009B60F9219BE0BB60F921BBE2F933F935D
S11309904F935F936F937F938F939F93AF93BF9383
S11309A0EF93FF934091640250916502E0913B20E4
S11309B0F0913C2061E080E492E01995FF91EF9181
S11309C0BF91AF919F918F917F916F915F914F9163
S11309D03F912F910F900BBE0F9009BE0F9008BE50
S11309E00F900FBE0F901F9018951F920F920FB685
S11309F00F92112408B60F9218BE09B60F9219BEB1
S1130A000BB60F921BBE2F933F934F935F936F933D
S1130A107F938F939F93AF93BF93EF93FF934091F3
S1130A206C0250916D02E0913B20F0913C2062E019
S1130A3080E492E01995FF91EF91BF91AF919F915E
S1130A408F917F916F915F914F913F912F910F9073
S1130A500BBE0F9009BE0F9008BE0F900FBE0F90F3
S1130A601F9018951F920F920FB60F92112408B67B
S1130A700F9218BE09B60F9219BE0BB60F921BBE89
S1130A802F933F934F935F936F937F938F939F9392
S1130A90AF93BF93EF93FF9340917402509175020B
S1130AA0E0913B20F0913C2064E080E492E01995D1
S1130AB0FF91EF91BF91AF919F918F917F916F9132
S1130AC05F914F913F912F910F900BBE0F9009BEF4
S1130AD00F9008BE0F900FBE0F901F9018951F9295
S1130AE00F920FB60F92112408B60F9218BE09B6D2
S1130AF00F9219BE0BB60F921BBE2F933F934F93C9
S1130B005F936F937F938F939F93AF93BF93EF9371
S1130B10FF9340917C0250917D02E0913B20F09143
S1130B203C2068E080E492E01995FF91EF91BF9139
S1130B30AF919F918F917F916F915F914F913F9171
S1130B402F910F900BBE0F9009BE0F9008BE0F900F
S1130B500FBE0F901F9018951BBEFC0128ED24BFFB
S1130B60608308954091CA01E62FF72F8093CA014C
S1130B7084914093CA010895FC01918195FFFDCFB2
S1130B80608380E090E00895FC0191819923ECF763
S1130B90808108952F923F924F925F926F927F923D
S1130BA08F929F92AF92BF92CF92DF92EF92FF9279
S1130BB00F931F93CF931C012A013B014801590154
S1130BC0D901C801689412F8B695A79597958795A9
S1130BD01694D1F7B901A801032E36E176956795ED
S1130BE0579547953A95D1F7302DF101248122FD8F
S1130BF008C0B695A7959795879576956795579567
S1130C00479584159505A605B70508F4AEC04416A6
S1130C1055066606770608F4AAC0F101848182FDB0
S1130C2004C0440C551C661C771CC501B401A30107
S1130C3092010E94A4132F3F31054105510508F488
S1130C4098C0C12CD12C7601CA94C9EF05C02C15CB
S1130C503D054E055F0568F0CC0CDD1CEE1CFF1C49
S1130C60CD3F14F46894C0F8CF5FC73081F78C2F60
S1130C7056C08C2FCC230CF052C0D301C201880F74
S1130C80991FAA1FBB1F880F991FAA1FBB1F880F7C
S1130C90991FAA1FBB1F85017401E81AF90A0A0BE0
S1130CA01B0BD801C701CE3FF4F42DEF3FEF2C1BF3
S1130CB03109C7FD339504C0880F991FAA1FBB1FB4
S1130CC02A95D2F773016201F694E794D794C794F6
S1130CD0BC01CD016C0D7D1D8E1D9F1DA3019201D4
S1130CE00E94A41338C023E02C0F8301720104C0B6
S1130CF0EE0CFF1C001F111F2A95D2F7A8019701C3
S1130D0067017801F694E794D794C794BC01CD01A8
S1130D106C0D7D1D8E1D9F1D0E94A4131CC08D5F34
S1130D20A301920104C0220F331F441F551F8A954B
S1130D30D2F7DA01C901B695A79597958795BC01B5
S1130D40CD01680D791D8A1D9B1D0E94A41321509D
S1130D50310941095109832F8F70C295C07FC82B77
S1130D60F101C783268381E01CC080E01AC080E0C3
S1130D7018C0D301C201880F991FAA1FBB1F880F77
S1130D80991FAA1FBB1F880F991FAA1FBB1F85018C
S1130D907401E81AF90A0A0B1B0BD801C701C9EF41
S1130DA084CFCF911F910F91FF90EF90DF90CF9060
S1130DB0BF90AF909F908F907F906F905F904F9077
S1130DC03F902F9008950F931F93CF93DF93EC01DF
S1130DD08B01009709F436C1803C910521F460E150
S1130DE080E09BDC2FC1C03484E0D80721F468E0A4
S1130DF080E093DC27C1C115E4E0DE0721F464E060
S1130E0080E08BDC1FC1C038F1E0DF0721F462E031
S1130E1080E083DC17C1C11581E0D80721F461E0CB
S1130E2080E07BDC0FC1C038E3E0DE0721F461E041
S1130E3081E073DC07C1C039F3E0DF0721F461E02E
S1130E4082E06BDCFFC0C11582E0D80721F462E0C8
S1130E5081E063DCF7C0C034E2E0DE0721F462E045
S1130E6082E05BDCEFC0C115F3E0DF0721F464E04E
S1130E7081E053DCE7C0C03283E0D80721F464E0AA
S1130E8082E04BDCDFC0C115E8E0DE0721F461E05D
S1130E9083E043DCD7C0C115F9E0DF0721F461E04A
S1130EA084E03BDCCFC0C1158AE0D80721F461E0BF
S1130EB085E033DCC7C0C115EBE0DE0721F461E057
S1130EC086E02BDCBFC0C034F8E0DF0721F462E029
S1130ED083E023DCB7C0C03489E0D80721F462E0A2
S1130EE084E01BDCAFC0C034EAE0DE0721F462E03A
S1130EF085E013DCA7C0C034FBE0DF0721F462E027
S1130F0086E00BDC9FC0C03988E0D80721F464E098
S1130F1083E003DC97C0C039E9E0DE0721F464E034
S1130F2084E0FBDB8FC0C039FAE0DF0721F464E022
S1130F3085E0F3DB87C0C0398BE0D80721F464E097
S1130F4086E0EBDB7FC0C03CE8E0DE0721F468E02C
S1130F5083E0E3DB77C0C03CF9E0DF0721F468E01D
S1130F6084E0DBDB6FC0C03C8AE0D80721F468E092
S1130F7085E0D3DB67C0C03CEBE0DE0721F468E02A
S1130F8086E0CBDB5FC0C03AF8E0DF0721F460E124
S1130F9083E0C3DB57C0C03A89E0D80721F460E19D
S1130FA084E0BBDB4FC0C03AEAE0DE0721F460E135
S1130FB085E0B3DB47C0C03AFBE0DF0721F460E122
S1130FC086E0ABDB3FC0C03B88E0D80721F460E299
S1130FD083E0A3DB37C0C03BE9E0DE0721F460E235
S1130FE084E09BDB2FC0C03BFAE0DF0721F460E222
S1130FF085E093DB27C0C03B8BE0D80721F460E297
S113100086E08BDB1FC0C038E4E0DE0721F460E437
S113101083E083DB17C0C039F4E0DF0721F460E428
S113102084E07BDB0FC0C03A84E0D80721F460E49D
S113103085E073DB07C0C03BE4E0DE0719F460E43D
S113104086E06BDB8D818F738D83F80194818581BC
S1131050892B9681911198E0892B8D83F801408129
S113106051816281738100E018E428EE31E0CE0101
S113107091DD9C8198609C839C8190619C83DF912D
S1131080CF911F910F910895FF920F931F93CF93C8
S1131090DF93C0E0D2E0FF24F394F882198280E168
S11310A08A8385E08C8361E270E082E05BDD082F57
S11310B010E0102F002760E270E082E053DD082B7F
S11310C00C871D87F8A219A2DF91CF911F910F9170
S11310D0FF900895E0E4F6E084818F7E8483089590
S11310E0E0E4F6E084818061848308958FEF809347
S11310F0C308E0ECF8E082818823ECF78091C30810
S113110008958093C308E0ECF8E082818823ECF72B
S11311100895E0DF82EAF5DFE9DF1092432080934F
S11311204420E4DF2091432030914420280F311DD6
S11311302093432030934420D3DFCCDF84EAE1DFE3
S1131140D5DF1092472080934820D0DF209147209C
S113115030914820280F311D209347203093482098
S1131160BFDFB8DF86EACDDFC1DF10924120809374
S11311704220BCDF2091412030914220280F311DB4
S11311802093412030934220ABDFA4DF88EAB9DF0B
S1131190ADDF1092452080934620A8DF20914520A2
S11311A030914620280F311D20934520309346204E
S11311B097DF90DF8AEAA5DF99DF10923F208093C2
S11311C0402094DF20913F2030914020280F311D92
S11311D020933F203093402083DF7CDF8CEA91DF33
S11311E085DF1092492080934A2080DF2091492096
S11311F030914A20280F311D2093492030934A20F2
S11312006FCF0895E0E4F6E08081806B8083808175
S11312108F7B808380E58093C0087BCF08952F92D5
S11312203F924F925F926F927F928F929F92AF9272
S1131230BF92CF92DF92EF92FF920F931F93CF93BF
S1131240DF93CDB7DEB76F97CDBFDEBF43DF88E452
S113125058DF46DF80E090E00196853500ED900789
S1131260D9F738DF80E04DDF41DFC82ED12CE12CE7
S1131270F12C7601DD24CC2439DF90E0A0E0B0E04D
S1131280BA2FA92F982F8827C80ED91EEA1EFB1E35
S11312902DDFA7019601280F311D411D511D2D83FE
S11312A03E834F8358871CDF15DF88E52ADF18DF6C
S11312B080E090E00196853530ED9307D9F70ADF99
S11312C080E01FDF13DF082F11DFF82E0FDF182F48
S11312D007DFA0913F20B091402020E03FEF4FEF87
S11312E05FEF0E94C6132B013C01410E511C611C8F
S11312F0711C402F50E060E070E0BA01552744278C
S1131300D301C201840F951FA61FB71F4F2C512C68
S1131310612C712C762C652C542C4424480E591EB7
S11313206A1E7B1ED301C201BB0F880B982FDC0100
S113133089839A83AB83BC8380914320909144201A
S11313404C01282F392D40E050E060E070E080E04F
S113135090E00FE00E942114222E3D874E875F8784
S1131360688B798B8A8B9B8B009141201091422052
S1131370A02EB12EC12CD12CE12CF12C00E010E0D8
S1131380242D352D462D572D6981762F862F962FA6
S11313900E94D013322E832E942EE52F6D8B7C8BDE
S11313A0A82EB92EA0E00E94761484F421503F4F59
S11313B04F4F5F4F6F4F7F4F8F4F9F4F322E832E74
S11313C0942EE52F6D8B7C8BA82EB92E232D382DD2
S11313D0492D5E2F6D897C898A2D9B2D08E00E9402
S11313E03A14A22EB32EC42ED52EE62EF72E082F95
S11313F0192F222D3D854E855F85688979898A89D3
S11314009B890E94581405E10E943C14CD80DE8023
S1131410EF80F88456016701E12CF12C8701AD823D
S1131420BE82CF82D886E986FA860B871C87E12C98
S1131430F12C00E010E00E94D0132D833D874E87ED
S11314405F87688B798B8A8B9B8B809147209091E7
S113145048204C01282F392D40E050E060E070E036
S113146080E090E000E10E942114222E332E842E8D
S1131470952E6C8B7D8B8E8B9F8B4091452050914C
S113148046205A01C12CD12CE12CF12C8701488F24
S1131490B98ECA8EDB8EEC8EFD8E0E8F1F8FA42C20
S11314A0B52CC62CD72CE980FE2C0E2D1E2D288D94
S11314B0398D40E050E060E070E080E090E00E9410
S11314C0D013E22F732E642E552E462E7983A82E28
S11314D0B92EA0E00E9476145CF4AFE70E94611478
S11314E0E22F732E642E552E462E7983A82EB92E04
S11314F02E2F372D462D552D642D79818A2D9B2D28
S113150007E00E943A14A22EB32EC42ED52EE62E46
S1131510F72E082F192F222D332D482D592D6C8984
S11315207D898E899F890E945814A22EB32EC42EC1
S1131530D52EE62EF72E082F192F2D813D854E85A9
S11315405F85688979898A899B890E946D140FE077
S11315500E943C14622F732F842F952F6F96CDBF5A
S1131560DEBFDF91CF911F910F91FF90EF90DF903D
S1131570CF90BF90AF909F908F907F906F905F902F
S11315804F903F902F9008958F929F92AF92BF9269
S1131590CF92DF92EF92FF92E0E0F2E080A18068C8
S11315A080A383A18823E9F360912402709125022A
S11315B080E090E090D32CE03BEB43E05AE3ACD4E2
S11315C02CE131E944EC5DE37FD29B01AC0163E3A0
S11315D073E383E590E478D29B01AC0160E078EE9C
S11315E080E097E4D6D220E030E44CE156E46CD2BB
S11315F020E030E44CE156E4CCD24ED46B017C01C3
S113160021EF3BEB46E859E387D42DE03FEC4BE573
S11316105BE35BD24B015C012AE633E149E853E327
S1131620C701B60179D49B01AC01C701B60174D4DA
S11316309B01AC01C701B6016FD49B01AC01C5018C
S1131640B40143D29B01AC0160E070E080E89FE309
S1131650A0D2FF90EF90DF90CF90BF90AF909F907B
S11316608F900895E0E6F6E08FEF80838083E0E0DA
S1131670F9E086E0808383EB8183089583E080939F
S1131680A006E0E0FBE087E08083118210A211A2B3
S113169088E391E086A397A30895CF93DF93EB01AA
S11316A073DA8883DF91CF91089566CA0895CF9342
S11316B0DF93CDB7DEB72797CDBFDEBFE0E4F6E01A
S11316C088E0818385838FEF848380EA98E0809328
S11316D0392090933A2085E59BE0809337209093BE
S11316E038208DE49BE08093352090933620E6E00B
S11316F0F0E284818D8385818E8386818F838081CE
S11317009181A281B38189839A83AB83BC8360E195
S113171083E003D8BE016F5F7F4F80EA98E053DB1C
S113172069E973E082EB93E00E947F152796CDBFB1
S1131730DEBFDF91CF910895009709F45CC1803C2E
S1131740910529F460E180E00C948D0308958034C0
S113175024E0920729F468E080E00C948D03089556
S1131760811524E0920729F464E080E00C948D0351
S11317700895803821E0920729F462E080E00C9417
S11317808D030895811521E0920729F461E080E03A
S11317900C948D030895803823E0920729F461E0C6
S11317A081E00C948D030895803923E0920729F495
S11317B061E082E00C948D030895811522E0920784
S11317C029F462E081E00C948D030895803422E0D2
S11317D0920729F462E082E00C948D030895811548
S11317E023E0920729F464E081E00C948D030895CA
S11317F0803223E0920729F464E082E00C948D03A4
S11318000895811528E0920729F461E083E00C949F
S11318108D030895811529E0920729F461E084E09D
S11318200C948D03089581152AE0920729F461E050
S113183085E00C948D03089581152BE0920729F41B
S113184061E086E00C948D030895803428E09207CB
S113185029F462E083E00C948D030895803429E038
S1131860920729F462E084E00C948D030895803497
S11318702AE0920729F462E085E00C948D03089530
S113188080342BE0920729F462E086E00C948D0307
S11318900895803928E0920729F464E083E00C94E9
S11318A08D030895803929E0920729F464E084E0E7
S11318B00C948D03089580392AE0920729F464E09A
S11318C085E00C948D03089580392BE0920729F468
S11318D064E086E00C948D030895803C28E0920730
S11318E029F468E083E00C948D030895803C29E09A
S11318F0920729F468E084E00C948D030895803CF9
S11319002AE0920729F468E085E00C948D03089599
S1131910803C2BE0920729F468E086E00C948D0368
S11319200895803A28E0920729F460E183E00C945A
S11319308D030895803A29E0920729F460E184E058
S11319400C948D030895803A2AE0920729F460E10B
S113195085E00C948D030895803A2BE0920729F4D6
S113196060E186E00C948D030895803B28E09207A3
S113197029F460E283E00C948D030895803B29E010
S1131980920729F460E284E00C948D030895803B6F
S11319902AE0920729F460E285E00C948D0308950F
S11319A0803B2BE0920729F460E286E00C948D03DF
S11319B00895803824E0920729F460E483E00C94CD
S11319C08D030895803924E0920729F460E484E0CB
S11319D00C948D030895803A24E0920729F460E47E
S11319E085E00C948D030895803B944021F460E4D9
S11319F086E00C948D030895CF92DF92EF92FF92CC
S1131A000E94630380EA98E097DE80E092E094DE2F
S1131A1080E09AE091DE80E099E08EDE80E098E05C
S1131A208BDE80E09BE088DE80EC98E085DE64E07D
S1131A3085E00E948D0364E084E00E948D0364E0ED
S1131A4086E00E948D0368E083E00E948D032FDE10
S1131A50D9DB08DE13DE18DB10924F2010925020E1
S1131A60109251201092522010924B2010924C2030
S1131A7010924D2010924E2010925320E0E8F6E090
S1131A808FEF808314828AEA96EEA6E9B1E001978B
S1131A90A109B109E1F7C3DB6B017C0175DDA70185
S1131AA096010E94760260934B2070934C208093A1
S1131AB04D2090934E200E942F0380E090E0FF90F1
S1131AC0EF90DF90CF9008955058BB27AA270ED0EF
S1131AD0A4C195D130F09AD120F031F49F3F11F494
S1131AE01EF47AC10EF4E095E7FB70C1E92FA6D18C
S1131AF080F3BA17620773078407950718F071F427
S1131B009EF5BEC10EF4E0950B2EBA2FA02D0B014D
S1131B10B90190010C01CA01A0011124FF27591B2E
S1131B2099F0593F50F4503E68F11A16F040A22F34
S1131B30232F342F4427585FF3CF469537952795A5
S1131B40A795F0405395C9F77EF41F16BA0B620BA4
S1131B50730B840BBAF09150A1F0FF0FBB1F661FEB
S1131B60771F881FC2F70EC0BA0F621F731F841F2E
S1131B7048F4879577956795B795F7959E3F08F054
S1131B80B3CF9395880F08F09927EE0F9795879513
S1131B9008950CD042C13AD140F031D130F021F453
S1131BA05F3F19F013C151116CC116C147D198F3AD
S1131BB09923C9F35523B1F3951B550BBB27AA27CA
S1131BC062177307840738F09F5F5F4F220F331F3C
S1131BD0441FAA1FA9F333D00E2E3AF0E0E830D008
S1131BE091505040E695001CCAF729D0FE2F27D00B
S1131BF0660F771F881FBB1F261737074807AB07D9
S1131C00B0E809F0BB0B802DBF01FF2793585F4F4D
S1131C102AF09E3F510568F0D9C033C15F3FECF311
S1131C20983EDCF3869577956795B795F7959F5F12
S1131C30C9F7880F911D9695879597F90895E1E066
S1131C40660F771F881FBB1F621773078407BA07C5
S1131C5020F0621B730B840BBA0BEE1F88F7E09520
S1131C600895BEE304D008F490E80895BFE3222762
S1131C703327A901EBD058F19F5740F1B91738F138
S1131C80BFE3B91B9927B8503AF4660F771F881F32
S1131C90991FB395D2F316C0B8504AF0232F342FAE
S1131CA0452F562F672F782F8827B850BAF7B85F7B
S1131CB049F0869577956795579547953795279574
S1131CC0BA95B9F70EF48BD088940895889460E09F
S1131CD070E0CB010895E89409C097FB3EF4909519
S1131CE08095709561957F4F8F4F9F4F9923A9F0F1
S1131CF0F92F96E9BB279395F69587957795679580
S1131D00B795F111F8CFFAF4BB0F11F460FF1BC0C3
S1131D106F5F7F4F8F4F9F4F16C0882311F096E956
S1131D2011C0772321F09EE8872F762F05C0662304
S1131D3071F096E8862F70E060E02AF09A95660FBD
S1131D40771F881FDAF7880F9695879597F9089576
S1131D50E894F92F96EBFF2381F01216130614066C
S1131D60440B9395F69587957795679557954040DD
S1131D70FF23B9F71BC099270895882351F498507D
S1131D80D2F7872B762F652F542F432F322F20E045
S1131D90B1F3121613061406440B88233AF09A95ED
S1131DA0440F551F661F771F881FCAF755234AF42F
S1131DB0440F551F11F460FF04C06F5F7F4F8F4FB6
S1131DC09F4F880F9695879597F9089597F99F6780
S1131DD080E870E060E008959FEF80EC08959095AE
S1131DE080957095609550954095309521953F4F1D
S1131DF04F4F5F4F6F4F7F4F8F4F9F4F089500247A
S1131E000A941616170618060906089500240A945B
S1131E1012161306140605060895092E0394000CE1
S1131E2011F4882352F0BB0F40F4BF2B11F460FF70
S1131E3004C06F5F7F4F8F4F9F4F089557FD905899
S1131E40440F551F59F05F3F71F04795880F97FB7A
S1131E50991F61F09F3F79F0879508951216130634
S1131E601406551FF2CF4695F1DF08C01616170663
S1131E701806991FF1CF8695710561050894089598
S1131E80E894BB2766277727CB0197F908950EF0CE
S1131E90A6C0A2CF68949ACFD9DFC8F39923D1F30F
S1131EA0C6F3DF93CF931F930F93FF92C92FDD27C0
S1131EB088232AF02197660F771F881FDAF720E01E
S1131EC030E040E85FEB9FE3883920F0803E30F05B
S1131ED021968F77FADDE4EFF1E003C0F6DDE1E26D
S1131EE0F2E08BD08B01BE01EC01FB2E6F57710920
S1131EF07595771F880B990BF0DE28E132E741E3F3
S1131F005FE316D0AF2D9801AE01FF900F911F91A2
S1131F10CF91DF91EBDD81CF0BD07FCF70DF28F045
S1131F2075DF18F0952309F051CF56CF1124A9CFAE
S1131F3085DFA0F3959FD1F3950F50E0551F629F65
S1131F40F001729FBB27F00DB11D639FAA27F00D0E
S1131F50B11DAA1F649F6627B00DA11D661F829F35
S1131F602227B00DA11D621F739FB00DA11D621F1A
S1131F70839FA00D611D221F749F3327A00D611D37
S1131F80231F849F600D211D822F762F6A2F112419
S1131F909F5750408AF0E1F088234AF0EE0FFF1F6C
S1131FA0BB1F661F771F881F91505040A9F79E3FA3
S1131FB0510570F00BCF65CF5F3FECF3983EDCF337
S1131FC0869577956795B795F795E7959F5FC1F7E0
S1131FD0FE2B880F911D9695879597F908959F3F3D
S1131FE031F0915020F4879577956795B795880FD0
S1131FF0911D9695879597F90895DF93CF931F9335
S11320000F93FF92EF92DF927B018C01689405C0DD
S1132010DA2EEF018DDFFE01E894A591259135912B
S113202045915591AEF3EF0161DDFE019701A801E1
S1132030DA9479F7DF90EF90FF900F911F91CF9191
S1132040DF9108952F923F924F925F926F927F9209
S11320508F929F92AF92BF92CF92DF92EF92FF92B4
S11320600F931F93CF93DF93CDB7DEB76397CDBFA5
S1132070DEBF6C014B012A01FC01168217828381A9
S113208081FF29C3AE014F5F5F4F3A01F60193818F
S1132090F40193FD859193FF81914F01882309F405
S11320A016C3853239F493FD859193FF81914F01D5
S11320B0853231F4B60190E06CD552012501E6CFAA
S11320C010E0F12C20E02032A0F48B3269F030F4DF
S11320D0803259F0833269F420612CC08D3239F09A
S11320E0803339F4216026C02260246023C0286034
S11320F021C027FD27C030ED380F3A3078F426FF91
S113210006C0FAE01F9F300D1124132F13C04AE0BC
S1132110F49E300D1124F32E20620CC08E3221F473
S113212026FDD5C2206406C08C3611F4206802C096
S1132130883641F4F40193FD859193FF81914F0119
S11321408111C1CF9BEB980F933018F42061805E0E
S113215006C09BE9980F933008F064C12F7E26FFD8
S113216016E02F73322E853619F42064322E08C0FF
S1132170863621F4F22FF0683F2E02C0111111505F
S113218037FE07C01C3350F4EE24E394E10E27E03D
S11321900BC0183038F027E017E005C027E04CE307
S11321A0E42E02C0212FE12C520144E0A40EB11C04
S11321B0F20160817181828193810E2DA301B1D3DB
S11321C02C01098100FF02C003FF07C031FC08C0D5
S11321D032FE09C030E2232E07C02DE2222E04C0B5
S11321E09BE2292E01C0212C802F8C7019F0211024
S11321F051C28DC237FE0FC0E40C04FF04C08A81B3
S1132200813309F4EA941E1474F5F8E0FE1578F5A8
S113221088E0E82E2CC036FC2AC0812F90E084157B
S113222095059CF02CEF42162FEF520674F0432DC7
S11322304068342E0AC0E2E0F0E0EC0FFD1FE10F2D
S1132240F11D8081803319F411501111F4CF37FE40
S11322500EC0EE24E394E10E812F90E04816590657
S11322602CF4141904C0EE24E39401C010E037FEEA
S113227006C01414150434F4C201019605C085E0A7
S113228090E002C081E090E021100196112331F02A
S1132290212F30E02F5F3F4F820F931F2F2D30E00F
S11322A08217930714F4F81A01C0F12C832D897056
S11322B041F4FF2031F0B60180E290E06AD4FA9450
S11322C0F8CF222021F0B601822D90E062D433FCB5
S11322D008C0FF2031F0B60180E390E05AD4FA94AC
S11322E0F8CF37FE58C0942D852D57FE02C090E0DC
S11322F080E0292E382E20E030E0A2014E19510949
S11323004C875D87A201421953094E875F87612F6D
S113231070E044275527461B570B488B598B5FEFBA
S11323202516350641F4B6018EE290E02A8B3B8BEC
S113233030D43B892A89421453046CF04C855D8562
S11323404215530544F4EE85FF85E20FF31FE60DB5
S1132350F71D818101C080E351E0251A31082F5F08
S11323603F4F488959892416350644F0B60190E058
S11323702A8B3B8B0ED42A893B89D1CF2414350474
S113238039F49A81963318F4953311F404FF81E3F8
S1132390B60190E045C08A81813309F00F7EB60111
S11323A090E0F7D3111105C034FC16C085E690E027
S11323B015C0B6018EE290E0ECD382E0EE24E39403
S11323C0E80EF301E80FF11D8081B60190E0E1D33E
S11323D011508E2D99F7E8CF85E490E0B601D9D35A
S11323E057FC05C04114510439F404FF05C051944D
S11323F0419451088DE201C08BE2B60190E0C9D34B
S113240080E39AE0491651042CF08F5F5AE0451A94
S11324105108F7CFB60190E0BCD3B601C201C09613
S1132420B8D34CC1833631F0833779F0833509F062
S113243054C020C05201E2E0AE0EB11CF201808112
S1132440898301E010E0230113C05201F2E0AF0ED2
S1132450B11CF2014080518026FF03C0612F70E05F
S113246002C06FEF7FEFC2012A8B3ED38C012A8911
S11324702F7714C05201F2E0AF0EB11CF20140807C
S1132480518026FF03C0612F70E002C06FEF7FEF21
S1132490C2012A8B1ED38C012A892068322E23FD87
S11324A018C08F2D90E00817190798F4B60180E240
S11324B090E06FD3FA94F5CFF20137FC859137FEA3
S11324C081912F01B60190E064D3F110FA94015088
S11324D011090115110581F7F1C0843611F089360F
S11324E051F5520127FF09C0F4E0AF0EB11CF2010F
S11324F060817181828193810AC0F2E0AF0EB11CC8
S1132500F20160817181072E000C880B990B2F76E4
S1132510322E97FF09C090958095709561957F4FF5
S11325208F4F9F4F2068322E2AE030E0A301ACD3B6
S1132530E82EE6183EC0022F853721F40F7E2AE0EC
S113254030E01DC0097F8F3691F018F4883559F0BA
S1132550BEC0803719F0883711F0B9C0006104FF9C
S113256009C0046007C024FF08C0066006C028E054
S113257030E005C020E130E002C020E132E0520149
S113258007FF09C0F4E0AF0EB11CF2016081718154
S11325908281938108C0F2E0AF0EB11CF201608128
S11325A0718180E090E0A3016FD3E82EE6180F77E5
S11325B0302E36FE0BC0332D3E7FE11650F434FE30
S11325C00AC032FC08C0332D3E7E05C00E2D332DCB
S11325D003C00E2D01C0012F34FF0CC0FE01EE0D0F
S11325E0F11D8081803311F4397E08C032FF05C0AB
S11325F00E5F04C0832F867809F00F5F33FD12C08D
S113260030FF06C01E2D0F1518F41F0D101B0F2DC3
S11326100F1560F4B60180E290E03B8BBAD20F5FF5
S11326203B89F6CF0F1510F4F01A01C0F12C34FFDA
S113263011C0B60180E390E03B8BABD23B8932FF03
S113264016C031FD03C088E790E002C088E590E041
S1132650B6010CC0832F867851F031FF02C08BE2A3
S113266001C080E237FD8DE2B60190E092D2E1161E
S113267030F4B60180E390E08CD21150F8CFEA94A4
S1132680F301EE0DF11D8081B60190E082D2E110DC
S1132690F6CF14C0F4E0FF1548F584E0F81A33FED1
S11326A01DC0211024C003FF27C00EE412E0F32D47
S11326B0F0713F2EF8018491811121C0FF2009F4AB
S11326C0FDCCB60180E290E064D2FA94F7CFF60133
S11326D08681978123C08FEF9FEF20C0B60180E2EF
S11326E090E057D2FA94F110F9CFDBCFF12CB60178
S11326F0822D90E04ED2D7CF02E512E0D8CF311030
S11327008052B60190E045D20F5F1F4FD3CF23E034
S11327102F1510F483E0C2CFF12CC5CF6396CDBF43
S1132720DEBFDF91CF911F910F91FF90EF90DF906B
S1132730CF90BF90AF909F908F907F906F905F905D
S11327404F903F902F900895A1E21A2EAA1BBB1B15
S1132750FD010DC0AA1FBB1FEE1FFF1FA217B30769
S1132760E407F50720F0A21BB30BE40BF50B661F7F
S1132770771F881F991F1A9469F760957095809543
S113278090959B01AC01BD01CF010895BBD0A59FDD
S1132790900DB49F900DA49F800D911D1124089558
S11327A0DF93CF931F930F939A9DF02D219FF00DEC
S11327B08B9DF00D8A9DE02DF10D039FF00D029F7E
S11327C0E00DF11D4E9DE00DF11D5E9DF00D4F9D40
S11327D0F00D7F936F93BF92AF925F934F93D501A8
S11327E091D08B01AC01D7018DD0EB01E80FF91F1B
S11327F0D6011FD02F913F91D60184D0C60FD71F89
S1132800E81FF91FAF91BF9114D02F913F917AD057
S1132810C60FD71FE81FF91FD60174D0E60FF71FA4
S11328209801BE01CF0111240F911F91CF91DF9127
S1132830089568D0460F571FC81FD91F08F4319652
S113284008950F93083090F0982F872F762F652FD7
S1132850542F432F322F22270850F4CF220F331F37
S1132860441F551F661F771F881F991F0A95B2F7CB
S11328700F91089597FB10F8169400080F930830F1
S113288098F00850232F342F452F562F672F782F79
S1132890892F902DF4CF0594979587957795679513
S11328A057954795379527950A95AAF70F91089557
S11328B02A0D3B1D4C1D5D1D6E1D7F1D801F911F2C
S11328C008950024A7FD00942A0F301D401D501DBB
S11328D0601D701D801D901D08952A193B094C0927
S11328E05D096E097F09800B910B08950024A7FDF3
S11328F000942A17300540055005600570058005D1
S113290090050895A29FB001B39FC001A39F700DCD
S1132910811D1124911DB29F700D811D1124911DE3
S11329200895283008F027E03327DA01990F311D84
S113293087FD916000966105710539F432602E5F60
S11329403D9330E32A95E1F708959F3F30F08038B6
S11329507105610509F03C5F3C5F3D93913008F0DF
S11329608068911DDF93CF931F930F93FF92EF9293
S1132970192F987F9695E92F96959695E90FFF273D
S1132980E055FD4F99273327EE24FF24A701E701E3
S113299005900894079428F4360FE71EF81E491F83
S11329A0511D660F771F881F991F0694A1F7059084
S11329B0079428F4E70EF81E491F561FC11D770F10
S11329C0881F991F661F0694A1F70590079428F4A1
S11329D0F80E491F561FC71FD11D880F991F661F68
S11329E0771F0694A1F70590079420F4490F561F0A
S11329F0C71FD81F990F661F771F881F0694A9F752
S1132A0084911095177041F0D695C79557954795C1
S1132A10F794E7941A95C1F7E6E5F2E06894159007
S1132A20159135916591959105907FE27395E11823
S1132A30F10A430B560BC90BD009C0F7E10CF11E88
S1132A40431F561FC91FD01D7EF4703311F48A959D
S1132A50E6CFE894015030F0080F0AF4002702177B
S1132A6008F4202F2395022F7A3328F079E37D93FD
S1132A702A95E9F710C07D932A9589F606949795CF
S1132A806795379517951794E118F10A430B560B80
S1132A90C90BD00998F023957E9173957A3308F089
S1132AA070E37C932013B8F77E9170617D9330F0CE
S1132AB0839571E37D9370E32A95E1F71124EF90F8
S1132AC0FF900F911F91CF91DF91992787FD9095EA
S1132AD00895FC010590615070400110D8F780956D
S1132AE090958E0F9F1F0895FC01615070400190D6
S1132AF00110D8F7809590958E0F9F1F08950F931E
S1132B001F93CF93DF93009731F46115710519F486
S1132B1080E090E039C08B01EC016EE070E081E070
S1132B2090E010D1FC01892B99F380E8838301158F
S1132B30110571F00287138781E883838091542003
S1132B4090915520892B21F4E0935420F093552043
S1132B502097C9F0C087D187838182608383809165
S1132B60562090915720892B71F4E0935620F093CE
S1132B7057208091582090915920892B21F4E0937B
S1132B805820F0935920CF01DF91CF911F910F91DD
S1132B9008950F931F93CF93DF93FB01238121FDAE
S1132BA003C08FEF9FEF28C022FF16C046815781D4
S1132BB0248135814217530744F4A081B1819D01DA
S1132BC02F5F3F4F208331838C93268137812F5F82
S1132BD03F4F2683378310C0EB01092F182F008441
S1132BE0F185E02D1995892BE1F68E819F8101965F
S1132BF08E839F83812F902FDF91CF911F910F910F
S1132C000895CF93DF93CDB7DEB7AE014A5F5F4F30
S1132C10FA0161917191AF018091562090915720F2
S1132C2011DADF91CF9108950F931F93CF93DF9320
S1132C30E0915620F0915720238121FF1BC08C0185
S1132C40D0E0C0E0F80181918F016091562070912D
S1132C505720DB011896ED91FC911997882331F0E8
S1132C601995892B79F3DFEFCFEFECCF8AE0199533
S1132C70892B19F08FEF9FEF02C08D2F9C2FDF91CE
S1132C80CF911F910F910895FA01AA27283051F18D
S1132C90203181F1E8946F936E7F6E5F7F4F8F4F89
S1132CA09F4FAF4FB1E03ED0B4E03CD0670F781FE8
S1132CB0891F9A1FA11D680F791F8A1F911DA11DCD
S1132CC06A0F711D811D911DA11D20D009F4689406
S1132CD03F912AE0269F11243019305D3193DEF6AE
S1132CE0CF010895462F4770405D4193B3E00FD064
S1132CF0C9F7F6CF462F4F70405D4A3318F0495D4F
S1132D0031FD4052419302D0A9F7EACFB4E0A69531
S1132D109795879577956795BA95C9F70097610553
S1132D20710508959B01AC010A2E069457954795A9
S1132D3037952795BA95C9F7620F731F841F951F9E
S1132D40A01D08950F931F93CF93DF93869F800157
S1132D50879F100D969F100D1124C8010DD0EC0112
S1132D60009721F0A80160E070E033D1CE01DF913B
S1132D70CF911F910F910895CF93DF9382309105E6
S1132D8010F482E090E0E0915C20F0915D2020E07E
S1132D9030E0C0E0D0E0309711F140815181481714
S1132DA05907C0F04817590761F48281938120972D
S1132DB019F08A839B832BC080935C2090935D20C1
S1132DC026C02115310519F04217530718F49A014A
S1132DD0BE01DF01EF010280F381E02DDCCF21157C
S1132DE0310509F1281B390B2430310590F4129672
S1132DF08D919C9113976115710521F0FB018283DC
S1132E00938304C080935C2090935D20FD013296EF
S1132E1044C0FD01E20FF31F8193919322503109C5
S1132E202D933C933AC020915A2030915B20232B60
S1132E3041F4209102203091032020935A203093B2
S1132E405B2020910020309101202115310541F4AF
S1132E502DB73EB74091042050910520241B350B1B
S1132E60E0915A20F0915B20E217F307A0F42E1BA7
S1132E703F0B2817390778F0AC014E5F5F4F2417DA
S1132E80350748F04E0F5F1F40935A2050935B2044
S1132E908193919302C0E0E0F0E0CF01DF91CF9104
S1132EA008950F931F93CF93DF93009709F48CC079
S1132EB0FC0132971282138200915C2010915D20F4
S1132EC00115110581F420813181820F931F209116
S1132ED05A2030915B202817390779F5E0935A205E
S1132EE0F0935B2071C0D80140E050E0AE17BF07FB
S1132EF050F412962D913C911397AD012115310593
S1132F0009F1D901F3CF9D01DA0122833383608172
S1132F107181860F971F8217930769F4EC0128814A
S1132F203981260F371F2E5F3F4F208331838A81DB
S1132F309B8182839383452B29F4E0935C20F09357
S1132F405D2042C01296ED93FC931397ED014991D5
S1132F5059919E01240F351FE217F30771F4808104
S1132F609181840F951F02968D939C931197828172
S1132F70938112968D939C931397E0E0F0E0D8012F
S1132F8012968D919C911397009719F0F8018C017A
S1132F90F6CF8D919C9198012E5F3F4F820F931F26
S1132FA020915A2030915B202817390769F4309713
S1132FB029F410925C2010925D2002C012821382C8
S1132FC000935A2010935B20DF91CF911F910F91B2
S1132FD00895DC0101C06D9341505040E0F708951D
S1072FE0F894FFCF8F
S1132FE400005E20200000C2010003000154657348
S1132FF4743A00416C7469747564652069733A2584
S10930042E32660A0000F2
S9030000FC
