S01C00005445414D32204F4E45204D4F4E544820434F44452E73726563CC
S11300003AC100005EC100005CC100005AC100009A
S113001058C1000056C1000054C1000052C1000084
S113002050C100004EC1000093C10000B4C10000E3
S113003048C1000046C1000044C1000042C10000A4
S113004040C100003EC100003CC100003AC10000B4
S113005038C1000036C1000034C1000032C10000C4
S113006030C100002EC100002CC100002AC10000D4
S113007028C1000026C1000024C1000022C10000E4
S113008020C100001EC100001CC100001AC10000F4
S113009018C1000016C1000014C100008BC5000087
S11300A0C6C5000001C600003CC600000AC100002D
S11300B008C1000006C1000004C1000002C1000024
S11300C000C10000FEC00000FCC00000FAC0000037
S11300D0F8C00000F6C00000F4C00000F2C0000048
S11300E0F0C00000EEC00000ECC00000EAC0000058
S11300F0E8C00000E6C00000E4C00000E2C0000068
S1130100E0C00000DEC00000DCC00000DAC0000077
S1130110D8C00000D6C00000D4C0000057C40000FE
S113012092C40000CDC4000008C50000CAC000008D
S1130130C8C00000C6C00000C4C00000C2C00000A7
S1130140C0C00000BEC00000BCC00000BAC00000B7
S1130150B8C00000B6C00000B4C00000B2C00000C7
S1130160B0C00000AEC00000ACC00000AAC00000D7
S1130170A8C00000A6C00000A4C00000A2C00000E7
S1130180A0C000009EC000009CC000009AC00000F7
S113019098C0000096C0000094C0000092C0000007
S11301A090C000008EC000008CC000008AC0000017
S11301B088C0000086C0000084C0000082C0000027
S11301C080C000007EC000007CC000007AC0000037
S11301D078C0000076C0000074C0000072C0000047
S11301E070C000006EC000006CC000006AC0000057
S11301F068C0000008000000BE922449123EABAA69
S1130200AA2ABECDCCCC4C3E00000080BEABAAAA2C
S1130210AA3E00000000BF000000803F0000000074
S113022000084178D3BB4387D1133D190E3CC3BDAD
S11302304282AD2B3E68EC8276BED98FE1A93E4C5A
S113024080EFFFBE01C4FF7F3F0000000000076392
S11302504236B79BD8A71A39685618AEBAAB558C34
S11302601D3CB7CC5763BD6DEDFD753EF61772317D
S1130270BF000000803F11241FBECFEFCDBFDFE3DE
S1130280DEBF00E00CBF18BE19BE1ABE1BBE10E2D2
S1130290A0E0B0E2EEE3FAE200E00BBF02C0079098
S11302A00D92A437B107D9F71BBE20E2A4E7B0E250
S11302B001C01D92A23AB207E1F70E94FA0B0C9416
S11302C01D159ECE0F931F93E0E0F4E0818180FD25
S11302D0FDCF2FB7F8944091792050917A208091E6
S11302E0080490910904009731F43091030430FF1D
S11302F002C04F5F5F4F2FBF60E070E0BA01552727
S11303004427A0E0B0E08A019B01082B192B2A2B7B
S11303103B2BC901B8011F910F91089564E080E05F
S11303201ED3E0E0F4E08FEF9FEF8287938710867F
S113033011869FB7F894A8E8B0E213968C911397AE
S11303408F5F13968C939FBF81E08283808308958F
S11303501F920F920FB60F92112408B60F9218BE77
S11303600BB60F921BBE8F939F93EF93FF93E9E716
S1130370F0E280819181019680839183FF91EF91D6
S11303809F918F910F900BBE0F9008BE0F900FBEE0
S11303900F901F9018951F920F920FB60F92112471
S11303A008B60F9218BE09B60F9219BE0BB60F927B
S11303B01BBECF92DF92EF92FF920F931F932F9366
S11303C03F934F935F936F937F938F939F93AF93D9
S11303D0BF93EF93FF93E9E7F0E28081918122815B
S11303E0338182179307F0F121E020930204E09116
S11303F07F20F09180203097A9F1609108047091DA
S11304000904A0E0B0E0DC0199278827AB0160E093
S113041070E08C019D01042B152B262B372BC90171
S1130420B801A9E7B0E212960D911C91139720E050
S113043030E09801112700271496CD90DC90159791
S1130440E12CF12C0C291D292E293F290617170709
S11304502807390730F0C901B8016F5F7F4F8F4F0C
S11304609F4F1995FF91EF91BF91AF919F918F91FC
S11304707F916F915F914F913F912F911F910F91B8
S1130480FF90EF90DF90CF900F900BBE0F9009BEBE
S11304900F9008BE0F900FBE0F901F9018958F926B
S11304A09F92AF92BF92CF92DF92EF92FF92A3D727
S11304B06B017C018AD7BC0180E090E02DEC3BE825
S11304C041E050E00E945810CA01B9010E94940D05
S11304D02EE534ED42E45EE30E94160F4B015C010D
S11304E024EF3DEF44ED5BEBC701B6010E94C40C61
S11304F06B017C0120E030E040E85FE3C501B4011A
S11305000E945F0C9B01AC01C701B6010E94B30EAF
S1130510FF90EF90DF90CF90BF90AF909F908F901F
S113052008952F923F924F925F926F927F928F9293
S11305309F92AF92BF92CF92DF92EF92FF920F936E
S11305401F93CF93DF93CDB7DEB7C059D140CDBF52
S1130550DEBFA5DF2B013C018E010F5F1F4F6E0133
S113056029ECC20ED11C1E0185E6280E311C78012F
S1130570812C912C540180E090E001968535A0ED0A
S11305809A07D9F78CDF9B01AC01C301B2010E9429
S11305905F0CF70161937193819391937F0192DED4
S11305A09B01AC01281939094A095B09A8EEB3E09B
S11305B00E9474100E94920DD6016D937D938D93C9
S11305C09D936D016CDF2B013C017CDE4B015C01D2
S11305D0E214F30481F65E01BDECAB0EB11C7E01A6
S11305E0E9E6EE0EF11C4E01F1E68F0E911C670157
S11305F0F8010C5F1F4FD5014D905D906D907D907B
S11306005D012081318142815381608571858285BC
S113061093850E945F0CA30192010E94C40CF60111
S113062061937193819391936F010815190501F7F3
S11306302DEC3CEC4CEC5DE369817A818B819C81EF
S11306400E94C40CA9966CAF7DAF8EAF9FAFA997E3
S1130650C35DDE4F688379838A839B83CD52D14007
S11306608E01035D1E4F6E01F3E7CF1AFEEFDF0A22
S1130670D7016D917D918D919D917D01F8014190FE
S11306805190619071908F012DEC3CEC4CE45EE351
S11306900E94B30E4B015C012DEC3CEC4CE45FE397
S11306A0C301B2010E94B30E9B01AC01C501B401A8
S11306B00E94600CD8016D937D938D939C93139746
S11306C00C151D05A9F68E010F5C1E4F7E01BFE6B9
S11306D0EB1ABEEFFB0A60E070E0CB01F801219158
S11306E03191419151918F010E94600C0E151F05AB
S11306F0A9F720E030E040EC51E40E94C40CC0575C
S1130700DE4FCDBFDEBFDF91CF911F910F91FF90E0
S1130710EF90DF90CF90BF90AF909F908F907F909D
S11307206F905F904F903F902F90089510924006E5
S1130730E0ECF8E080E4808383E0818384E08093CC
S1130740A200789408958FEF8093C308E0ECF8E05A
S113075082818823ECF78091C30808958093C308AD
S1130760E0ECF8E082818823ECF70895AF92BF9221
S1130770CF92DF92EF92FF920F931F93CF93DF9369
S113078091E090938320A12C0F2EF8E4BF2EF02D3E
S11307900F2EF8EECF2EF02DDD24D394E12CF12C86
S11307A000E010E0282F30E040E050E060E070E02E
S11307B080E090E00E947E1029513C4F4F4F5F4FE4
S11307C06F4F7F4F8F4F9F4F0E94CF0D20E030E837
S11307D04BEB55E40E94C40C0E94310D722F632F21
S11307E0942F852F542F482F24E030E0C0E8D6E022
S11307F0072F162FF92FE82F80918320982F90959B
S11308009C83880F80938320802F912FAF2FBE2F3E
S11308100197A109B109E1F72150310969F780E88D
S11308208093832024E030E0E0E8F6E080918320A8
S1130830982F90959483869580938320872F962F65
S1130840A52FB42F0197A109B109E1F7215031096E
S113085069F7DF91CF911F910F91FF90EF90DF9097
S1130860CF90BF90AF9008956F927F928F929F9296
S1130870AF92BF92CF92DF92EF92FF920F931F93AA
S1130880CF93DF9384E672DF4CDE962E872E782E8C
S1130890692E05DED62EC72EB82EA92EACD5162F5E
S11308A0072FF82EE92E91D5C82FD92F0BDD6F9283
S11308B07F928F929F92AF92BF92CF92DF92EF92EC
S11308C0FF920F931F93DF93CF939F938F937F9305
S11308D06F938DE090E29F938F930E94281184E69A
S11308E045DF8DB79EB744968DBF9EBFDF91CF91F4
S11308F01F910F91FF90EF90DF90CF90BF90AF903A
S11309009F908F907F906F9008958FEF80937000E9
S113091080937100809372008093730080937400BD
S113092080937500809376009FB7F894E0E5F0E03B
S11309308081826080839FBF818181FFFDCF61E0E0
S113094080E490E02BD29FB7F894E0E5F0E080815A
S11309508E7F80839FBF81E08093430008959FB77B
S1130960F894E82FF0E0E059FF4F60958081682308
S113097060839FBF0895CF93DF931F92CDB7DEB7F7
S11309808091922090919320E0918E20F0918F207D
S1130990BE016F5F7F4F19958981082E000C990B5A
S11309A00F90DF91CF910895682F809192209091BC
S11309B09320E0919020F0919120199599231CF0B7
S11309C081E090E008958FEF9FEF08951F920F92BA
S11309D00FB60F92112408B60F9218BE09B60F92E3
S11309E019BE0BB60F921BBE2F933F934F935F9389
S11309F06F937F938F939F93AF93BF93EF93FF93E3
S1130A004091240250912502E0919620F091972084
S1130A1061E080E092E01995FF91EF91BF91AF9171
S1130A209F918F917F916F915F914F913F912F9102
S1130A300F900BBE0F9009BE0F9008BE0F900FBE13
S1130A400F901F9018951F920F920FB60F921124BA
S1130A5008B60F9218BE09B60F9219BE0BB60F92C4
S1130A601BBE2F933F934F935F936F937F938F930B
S1130A709F93AF93BF93EF93FF9340912C025091B8
S1130A802D02E0919620F091972062E080E092E0C0
S1130A901995FF91EF91BF91AF919F918F917F91A4
S1130AA06F915F914F913F912F910F900BBE0F90DB
S1130AB009BE0F9008BE0F900FBE0F901F9018959F
S1130AC01F920F920FB60F92112408B60F9218BE00
S1130AD009B60F9219BE0BB60F921BBE2F933F930C
S1130AE04F935F936F937F938F939F93AF93BF9332
S1130AF0EF93FF934091340250913502E091962098
S1130B00F091972064E080E092E01995FF91EF91D5
S1130B10BF91AF919F918F917F916F915F914F9111
S1130B203F912F910F900BBE0F9009BE0F9008BEFE
S1130B300F900FBE0F901F9018951F920F920FB633
S1130B400F92112408B60F9218BE09B60F9219BE5F
S1130B500BB60F921BBE2F933F934F935F936F93EC
S1130B607F938F939F93AF93BF93EF93FF934091A2
S1130B703C0250913D02E0919620F091972068E06C
S1130B8080E092E01995FF91EF91BF91AF919F9111
S1130B908F917F916F915F914F913F912F910F9022
S1130BA00BBE0F9009BE0F9008BE0F900FBE0F90A2
S1130BB01F9018951F920F920FB60F92112408B62A
S1130BC00F9218BE09B60F9219BE0BB60F921BBE38
S1130BD02F933F934F935F936F937F938F939F9341
S1130BE0AF93BF93EF93FF934091640250916502DA
S1130BF0E0919420F091952061E080E492E01995D1
S1130C00FF91EF91BF91AF919F918F917F916F91E0
S1130C105F914F913F912F910F900BBE0F9009BEA2
S1130C200F9008BE0F900FBE0F901F9018951F9243
S1130C300F920FB60F92112408B60F9218BE09B680
S1130C400F9219BE0BB60F921BBE2F933F934F9377
S1130C505F936F937F938F939F93AF93BF93EF9320
S1130C60FF9340916C0250916D02E0919420F091B9
S1130C70952062E080E492E01995FF91EF91BF9195
S1130C80AF919F918F917F916F915F914F913F9120
S1130C902F910F900BBE0F9009BE0F9008BE0F90BE
S1130CA00FBE0F901F9018951F920F920FB60F92C0
S1130CB0112408B60F9218BE09B60F9219BE0BB6CE
S1130CC00F921BBE2F933F934F935F936F937F932A
S1130CD08F939F93AF93BF93EF93FF9340917402CD
S1130CE050917502E0919420F091952064E080E4A5
S1130CF092E01995FF91EF91BF91AF919F918F91E0
S1130D007F916F915F914F913F912F910F900BBE07
S1130D100F9009BE0F9008BE0F900FBE0F901F904A
S1130D2018951F920F920FB60F92112408B60F92C6
S1130D3018BE09B60F9219BE0BB60F921BBE2F93A5
S1130D403F934F935F936F937F938F939F93AF934F
S1130D50BF93EF93FF9340917C0250917D02E09109
S1130D609420F091952068E080E492E01995FF9139
S1130D70EF91BF91AF919F918F917F916F915F910F
S1130D804F913F912F910F900BBE0F9009BE0F9082
S1130D9008BE0F900FBE0F901F9018951BBEFC014C
S1130DA028ED24BF60830895DC01E0ECF1E0978531
S1130DB09923ECF3ECECF1E0808188608083B05FF0
S1130DC08C919081977F90830895E0ECF1E0878582
S1130DD08823ECF38091CF0181FF07C086E38093E1
S1130DE0CA0161E08BEC91E0D9CF0895E0ECF1E029
S1130DF097859923ECF3ACECB1E09C9198609C93BB
S1130E00E82FF0E0F05F60838C91877F8C930895E6
S1130E10FF920F931F93CF93DF93182FF92EC62FB2
S1130E200091CA01D2DFE0ECF1E027852223ECF344
S1130E306C2F812FDBDFC0ECD1E01A82F98218839A
S1130E4085E38A8761E08BEC91E0A8DF0A87DF9174
S1130E50CF911F910F91FF9008954091CA01E62F01
S1130E60F72F8093CA0184914093CA010895FC012D
S1130E70918195FFFDCF608380E090E00895FC01AF
S1130E8091819923ECF7808108952F923F924F929C
S1130E905F926F927F928F929F92AF92BF92CF9206
S1130EA0DF92EF92FF920F931F93CF931C012A01BD
S1130EB03B0148015901D901C801689412F8B6955B
S1130EC0A795979587951694D1F7B901A801032E94
S1130ED036E176956795579547953A95D1F7302D34
S1130EE0F101248122FD08C0B695A79597958795B1
S1130EF0769567955795479584159505A605B70585
S1130F0008F4AEC0441655066606770608F4AAC06F
S1130F10F101848182FD04C0440C551C661C771CBD
S1130F20C501B401A30192010E9436102F3F31057F
S1130F304105510508F498C0C12CD12C7601CA94FE
S1130F40C9EF05C02C153D054E055F0568F0CC0CB6
S1130F50DD1CEE1CFF1CCD3F14F46894C0F8CF5F79
S1130F60C73081F78C2F56C08C2FCC230CF052C085
S1130F70D301C201880F991FAA1FBB1F880F991F95
S1130F80AA1FBB1F880F991FAA1FBB1F85017401CD
S1130F90E81AF90A0A0B1B0BD801C701CE3FF4F477
S1130FA02DEF3FEF2C1B3109C7FD339504C0880F8B
S1130FB0991FAA1FBB1F2A95D2F773016201F694E9
S1130FC0E794D794C794BC01CD016C0D7D1D8E1D93
S1130FD09F1DA30192010E94361038C023E02C0FFC
S1130FE08301720104C0EE0CFF1C001F111F2A951F
S1130FF0D2F7A801970167017801F694E794D79492
S1131000C794BC01CD016C0D7D1D8E1D9F1D0E94DA
S113101036101CC08D5FA301920104C0220F331F40
S1131020441F551F8A95D2F7DA01C901B695A795D1
S113103097958795BC01CD01680D791D8A1D9B1D6F
S11310400E9436102150310941095109832F8F70B4
S1131050C295C07FC82BF101C783268381E01CC0E1
S113106080E01AC080E018C0D301C201880F991F24
S1131070AA1FBB1F880F991FAA1FBB1F880F991F88
S1131080AA1FBB1F85017401E81AF90A0A0B1B0B7E
S1131090D801C701C9EF84CFCF911F910F91FF9061
S11310A0EF90DF90CF90BF90AF909F908F907F9004
S11310B06F905F904F903F902F9008950F931F93E0
S11310C0CF93DF93EC018B01009709F436C1803C88
S11310D0910521F460E180E042DC2FC1C03484E05A
S11310E0D80721F468E080E03ADC27C1C115E4E0C8
S11310F0DE0721F464E080E032DC1FC1C038F1E097
S1131100DF0721F462E080E02ADC17C1C11581E029
S1131110D80721F461E080E022DC0FC1C038E3E0AD
S1131120DE0721F461E081E01ADC07C1C039F3E095
S1131130DF0721F461E082E012DCFFC0C11582E028
S1131140D80721F462E081E00ADCF7C0C034E2E0B1
S1131150DE0721F462E082E002DCEFC0C115F3E0B7
S1131160DF0721F464E081E0FADBE7C0C03283E00A
S1131170D80721F464E082E0F2DBDFC0C115E8E0C7
S1131180DE0721F461E083E0EADBD7C0C115F9E0B2
S1131190DF0721F461E084E0E2DBCFC0C1158AE01F
S11311A0D80721F461E085E0DADBC7C0C115EBE0C4
S11311B0DE0721F461E086E0D2DBBFC0C034F8E092
S11311C0DF0721F462E083E0CADBB7C0C03489E002
S11311D0D80721F462E084E0C2DBAFC0C034EAE0A7
S11311E0DE0721F462E085E0BADBA7C0C034FBE08F
S11311F0DF0721F462E086E0B2DB9FC0C03988E0FB
S1131200D80721F464E083E0AADB97C0C039E9E0A1
S1131210DE0721F464E084E0A2DB8FC0C039FAE089
S1131220DF0721F464E085E09ADB87C0C0398BE0F6
S1131230D80721F464E086E092DB7FC0C03CE8E09C
S1131240DE0721F468E083E08ADB77C0C03CF9E084
S1131250DF0721F468E084E082DB6FC0C03C8AE0F1
S1131260D80721F468E085E07ADB67C0C03CEBE096
S1131270DE0721F468E086E072DB5FC0C03AF8E084
S1131280DF0721F460E183E06ADB57C0C03A89E0FC
S1131290D80721F460E184E062DB4FC0C03AEAE0A1
S11312A0DE0721F460E185E05ADB47C0C03AFBE089
S11312B0DF0721F460E186E052DB3FC0C03B88E0F9
S11312C0D80721F460E283E04ADB37C0C03BE9E0A1
S11312D0DE0721F460E284E042DB2FC0C03BFAE089
S11312E0DF0721F460E285E03ADB27C0C03B8BE0F6
S11312F0D80721F460E286E032DB1FC0C038E4E0A6
S1131300DE0721F460E483E02ADB17C0C039F4E08F
S1131310DF0721F460E484E022DB0FC0C03A84E0FC
S1131320D80721F460E485E01ADB07C0C03BE4E0A1
S1131330DE0719F460E486E012DB8D818F738D8300
S1131340F80194818581892B9681911198E0892BEC
S11313508D83F801408151816281738100E018E43A
S113136028EE31E0CE0191DD9C8198609C839C81C4
S113137090619C83DF91CF911F910F910895FF920B
S11313800F931F93CF93DF93C0E0D2E0FF24F39435
S1131390F882198280E18A8385E08C8361E270E0BF
S11313A082E05BDD082F10E0102F002760E270E080
S11313B082E053DD082B0C871D87F8A219A2DF9168
S11313C0CF911F910F91FF900895CF93DF9380E009
S11313D0C5D9B9D9C82FD0E0DC2FCC27B4D9C80FD0
S11313E0D11D84E6282F2C9FC0012D9F900D112420
S11313F0DF91CF9108958F929F92AF92BF92CF9237
S1131400DF92EF92FF92E0E0F2E080A1806880A397
S113141083A18823E9F3609124027091250280E07E
S113142090E080D32FE632E143E05AE39CD420E8F5
S113143037EB40EC5DE343D249D380E090E072D3D4
S113144023E333E343E550E43AD220E030E44CE1D3
S113145056E489D423E333E343E550E495D220E012
S113146030E44CE156E490D23ED46B017C0121EF90
S11314703BEB46E859E377D42DE03FEC4BE55BE3E7
S11314801FD24B015C012AE633E149E853E3C7016B
S1131490B60169D49B01AC01C701B60164D49B01B8
S11314A0AC01C701B6015FD49B01AC01C501B40115
S11314B007D29B01AC0160E070E080E89FE364D256
S11314C0FF90EF90DF90CF90BF90AF909F908F9060
S11314D008958FEF80936006E0E0F9E086E0808372
S11314E083EB81830895CF93DF93EB01C8DC88837A
S11314F0DF91CF910895BBCC0895CF93DF93CDB7FF
S1131500DEB72797CDBFDEBFE0E4F6E088E0818355
S113151085838FEF848380EA98E080939220909370
S113152093208BE79AE0809390209093912083E717
S11315309AE080938E2090938F20E6E0F0E28481FD
S11315408D8385818E8386818F8380819181A28121
S1131550B38189839A83AB83BC8360E183E0FFD941
S1131560BE016F5F7F4F80EA98E0A8DD6BEB74E00B
S113157084ED94E023D62796CDBFDEBFDF91CF91D3
S11315800895009709F435C1803C910521F460E188
S113159080E0E5C90895803424E0920721F468E0EE
S11315A080E0DDC90895811524E0920721F464E008
S11315B080E0D5C90895803821E0920721F462E0E3
S11315C080E0CDC90895811521E0920721F461E0FE
S11315D080E0C5C90895803823E0920721F461E0D2
S11315E081E0BDC90895803923E0920721F461E0C8
S11315F082E0B5C90895811522E0920721F462E0E2
S113160081E0ADC90895803422E0920721F462E0BC
S113161082E0A5C90895811523E0920721F464E0CE
S113162081E09DC90895803223E0920721F464E0AB
S113163082E095C90895811528E0920721F461E0BC
S113164083E08DC90895811529E0920721F461E0B2
S113165084E085C9089581152AE0920721F461E0A8
S113166085E07DC9089581152BE0920721F461E09E
S113167086E075C90895803428E0920721F462E079
S113168083E06DC90895803429E0920721F462E073
S113169084E065C9089580342AE0920721F462E069
S11316A085E05DC9089580342BE0920721F462E05F
S11316B086E055C90895803928E0920721F464E052
S11316C083E04DC90895803929E0920721F464E04C
S11316D084E045C9089580392AE0920721F464E042
S11316E085E03DC9089580392BE0920721F464E038
S11316F086E035C90895803C28E0920721F468E02B
S113170083E02DC90895803C29E0920721F468E024
S113171084E025C90895803C2AE0920721F468E01A
S113172085E01DC90895803C2BE0920721F468E010
S113173086E015C90895803A28E0920721F460E113
S113174083E00DC90895803A29E0920721F460E10D
S113175084E005C90895803A2AE0920721F460E103
S113176085E0FDC80895803A2BE0920721F460E1FA
S113177086E0F5C80895803B28E0920721F460E2F2
S113178083E0EDC80895803B29E0920721F460E2EC
S113179084E0E5C80895803B2AE0920721F460E2E2
S11317A085E0DDC80895803B2BE0920721F460E2D8
S11317B086E0D5C80895803824E0920721F460E4D7
S11317C083E0CDC80895803924E0920721F460E4D1
S11317D084E0C5C80895803A24E0920721F460E4C7
S11317E085E0BDC80895803B944019F460E486E028
S11317F0B6C808958AD80E948E0180EA98E0C1DEB6
S113180080E092E0BEDE80E09AE0BBDE80E099E01A
S1131810B8DE80E098E0B5DE80EC98E0B2DE64E00B
S113182085E09DD864E084E09AD868E083E097D8A6
S113183064DE0E9496034DDEA2DD83E08093A00661
S1131840CEE5D0E211D80E9462010091742010917B
S113185075202091762030917720DC01CB01801B0C
S1131860910BA20BB30B4097A105B105A0F00E9408
S11318706201609374207093752080937620909316
S113188077208091782090E0C3DA809178208F5F70
S113189080937820D7CF8091782090E085DA1F92CA
S11318A08F93809178201F928F93DF93CF93D0D41E
S11318B00F900F900F900F900F900F90C3CF505830
S11318C0BB27AA270ED0D0C1C1D130F0C6D120F099
S11318D031F49F3F11F41EF4A6C10EF4E095E7FB2A
S11318E09CC1E92FD2D180F3BA176207730784072A
S11318F0950718F071F49EF5EAC10EF4E0950B2EED
S1131900BA2FA02D0B01B90190010C01CA01A0014D
S11319101124FF27591B99F0593F50F4503E68F1A8
S11319201A16F040A22F232F342F4427585FF3CFE9
S1131930469537952795A795F0405395C9F77EF4BA
S11319401F16BA0B620B730B840BBAF09150A1F003
S1131950FF0FBB1F661F771F881FC2F70EC0BA0F89
S1131960621F731F841F48F4879577956795B79511
S1131970F7959E3F08F0B3CF9395880F08F0992709
S1131980EE0F9795879508950CD06EC166D140F0FF
S11319905DD130F021F45F3F19F03FC1511198C17E
S11319A042C173D198F39923C9F35523B1F3951B1D
S11319B0550BBB27AA2762177307840738F09F5F6C
S11319C05F4F220F331F441FAA1FA9F333D00E2EDB
S11319D03AF0E0E830D091505040E695001CCAF748
S11319E029D0FE2F27D0660F771F881FBB1F26170D
S11319F037074807AB07B0E809F0BB0B802DBF01E0
S1131A00FF2793585F4F2AF09E3F510568F005C1A8
S1131A105FC15F3FECF3983EDCF38695779567955D
S1131A20B795F7959F5FC9F7880F911D9695879590
S1131A3097F90895E1E0660F771F881FBB1F6217AF
S1131A4073078407BA0720F0621B730B840BBA0B6D
S1131A50EE1F88F7E0950895BEE304D008F490E8FB
S1131A600895BFE322273327A90117D158F19F57BF
S1131A7040F1B91738F1BFE3B91B9927B8503AF4CC
S1131A80660F771F881F991FB395D2F316C0B850FD
S1131A904AF0232F342F452F562F672F782F88276E
S1131AA0B850BAF7B85F49F086957795679557951A
S1131AB0479537952795BA95B9F70EF4B7D088941A
S1131AC00895889460E070E0CB010895E6D088F032
S1131AD09F5790F0B92F9927B751A0F0D1F0660F16
S1131AE0771F881F991F1AF0BA95C9F712C0B13031
S1131AF081F0EDD0B1E00895EAC0672F782F8827F0
S1131B00B85F39F0B93FCCF3869577956795B3956F
S1131B10D9F73EF490958095709561957F4F8F4FDE
S1131B209F4F0895E89409C097FB3EF490958095E3
S1131B30709561957F4F8F4F9F4F9923A9F0F92F8F
S1131B4096E9BB279395F695879577956795B7950D
S1131B50F111F8CFFAF4BB0F11F460FF1BC06F5FF3
S1131B607F4F8F4F9F4F16C0882311F096E911C005
S1131B70772321F09EE8872F762F05C0662371F026
S1131B8096E8862F70E060E02AF09A95660F771F3A
S1131B90881FDAF7880F9695879597F90895E89442
S1131BA0F92F96EBFF2381F0121613061406440B4B
S1131BB09395F69587957795679557954040FF23BC
S1131BC0B9F71BC099270895882351F49850D2F788
S1131BD0872B762F652F542F432F322F20E0B1F31C
S1131BE0121613061406440B88233AF09A95440FF0
S1131BF0551F661F771F881FCAF755234AF4440FE1
S1131C00551F11F460FF04C06F5F7F4F8F4F9F4FCC
S1131C10880F9695879597F9089597F99F6780E8B7
S1131C2070E060E008959FEF80EC089590958095B2
S1131C307095609550954095309521953F4F4F4F45
S1131C405F4F6F4F7F4F8F4F9F4F089500240A942B
S1131C501616170618060906089500240A94121683
S1131C601306140605060895092E0394000C11F4B6
S1131C70882352F0BB0F40F4BF2B11F460FF04C063
S1131C806F5F7F4F8F4F9F4F089557FD9058440FBC
S1131C90551F59F05F3F71F04795880F97FB991FC7
S1131CA061F09F3F79F08795089512161306140684
S1131CB0551FF2CF4695F1DF08C016161706180611
S1131CC0991FF1CF86957105610508940895E894EC
S1131CD0BB2766277727CB0197F908950EF023C118
S1131CE0A2CF68949ACFD9DFC8F39923D1F3C6F36E
S1131CF0DF93CF931F930F93FF92C92FDD27882380
S1131D002AF02197660F771F881FDAF720E030E06A
S1131D1040E85FEB9FE3883920F0803E30F0219665
S1131D208F77CEDDE4EFF1E003C0CADDE1E2F2E05B
S1131D3008D18B01BE01EC01FB2E6F57710975951B
S1131D40771F880B990BF0DE28E132E741E35FE36C
S1131D5016D0AF2D9801AE01FF900F911F91CF9136
S1131D60DF91BFDD81CF0BD07FCF70DF28F075DF2F
S1131D7018F0952309F051CF56CF1124A9CF85DF50
S1131D80A0F3959FD1F3950F50E0551F629FF0018A
S1131D90729FBB27F00DB11D639FAA27F00DB11DE3
S1131DA0AA1F649F6627B00DA11D661F829F22276C
S1131DB0B00DA11D621F739FB00DA11D621F839FF3
S1131DC0A00D611D221F749F3327A00D611D231FC9
S1131DD0849F600D211D822F762F6A2F11249F5717
S1131DE050408AF0E1F088234AF0EE0FFF1FBB1F3A
S1131DF0661F771F881F91505040A9F79E3F5105D9
S1131E0070F00BCF65CF5F3FECF3983EDCF3869523
S1131E1077956795B795F795E7959F5FC1F7FE2B83
S1131E20880F911D9695879597F90895FA01EE0FFD
S1131E30FF1F30962105310599F16115710561F493
S1131E408038BFE39B0749F168949038810561F0BD
S1131E508038BFEF9B0741F0992342F5FF3FE1052E
S1131E603105210511F1E8940894E795D901AA23D5
S1131E7029F4AB2FBE2FF85FD0F310C0FF5F70F4CE
S1131E80A695E0F7F73950F019F0FF3A38F49F7748
S1131E909F930CD00F9007FC905808953EF0C3CE4A
S1131EA060E070E080E89FE308954FE79F775F93D9
S1131EB04F933F932F9317DF2F913F914F915F9152
S1131EC052DF05C019F40EF0A8CE01CFACCEE5DE8A
S1131ED0C8F39638C0F707F80F92E8942BE33AEA70
S1131EE048EB5FE74EDF0F920F920F924DB75EB74C
S1131EF00F9289D0EEE4F2E024D04F915F91EF91FC
S1131F00FF91E595EE1FFF1F49F0FE57E068442757
S1131F10EE0F441FFA95E1F74195550B40D00F9011
S1131F2007FE34C008959F3F31F0915020F4879507
S1131F3077956795B795880F911D9695879597F92D
S1131F400895DF93CF931F930F93FF92EF92DF9245
S1131F507B018C01689405C0DA2EEF0110DFFE01CD
S1131F60E894A5912591359145915591AEF3EF01F2
S1131F70B8DCFE019701A801DA9479F7DF90EF90BD
S1131F80FF900F911F91CF91DF9108959B01AC01B8
S1131F9060E070E080E89FE3F7CC3FCEC4CF7DDE05
S1131FA0E8F39923D9F3940F511DBBF3915050409A
S1131FB094F059F0882332F0660F771F881F9150F0
S1131FC05040C1F79E3F510544F7880F911D9695E7
S1131FD0879597F908955F3FACF0983E9CF0BB2736
S1131FE0869577956795B79508F4B1609395C1F791
S1131FF0BB0F58F711F460FFE8CF6F5F7F4F8F4F2F
S11320009F4FE3CF65CEFA01DC01AA0FBB1F9B01F2
S1132010AC01BF5728F422273327442750781FC028
S1132020B75188F4AB2F0024469537952795011CAA
S1132030A395D2F3002069F0220F331F441FB395F8
S1132040DAF30DD03CCC61307105A0E88A07B946BB
S113205030F49B01AC016627772788279078309667
S113206021F020833183428353830895A1E21A2E01
S1132070AA1BBB1BFD010DC0AA1FBB1FEE1FFF1F28
S1132080A217B307E407F50720F0A21BB30BE40B78
S1132090F50B661F771F881F991F1A9469F76095BF
S11320A07095809590959B01AC01BD01CF01089579
S11320B0052E97FB16F400940FD057FD05D0D6DFFC
S11320C007FC02D046F408C0509540953095219500
S11320D03F4F4F4F5F4F0895909580957095619550
S11320E07F4F8F4F9F4F08955AD0A59F900DB49F57
S11320F0900DA49F800D911D11240895DF93CF931B
S11321001F930F939A9DF02D219FF00D8B9DF00D41
S11321108A9DE02DF10D039FF00D029FE00DF11D4E
S11321204E9DE00DF11D5E9DF00D4F9DF00D7F93D2
S11321306F93BF92AF925F934F93D50130D08B01D1
S1132140AC01D7012CD0EB01E80FF91FD6011FD049
S11321502F913F91D60123D0C60FD71FE81FF91F37
S1132160AF91BF9114D02F913F9119D0C60FD71FB3
S1132170E81FF91FD60113D0E60FF71F9801BE011F
S1132180CF0111240F911F91CF91DF91089507D0B2
S1132190460F571FC81FD91F08F431960895A29FF0
S11321A0B001B39FC001A39F700D811D1124911D27
S11321B0B29F700D811D1124911D08950F931F93DB
S11321C0CF93DF93009731F46115710519F480E022
S11321D090E039C08B01EC016EE070E081E090E0AA
S11321E032D2FC01892B99F380E883830115110510
S11321F071F00287138781E88383809198209091FE
S11322009920892B21F4E0939820F093992020972A
S1132210C9F0C087D18783818260838380919A20AB
S113222090919B20892B71F4E0939A20F0939B204A
S113223080919C2090919D20892B21F4E0939C20F7
S1132240F0939D20CF01DF91CF911F910F910895BD
S1132250CF93DF93CDB7DEB7AE014A5F5F4FFA018C
S113226061917191AF0180919A2090919B2003D04C
S1132270DF91CF9108952F923F924F925F926F9288
S11322807F928F929F92AF92BF92CF92DF92EF9202
S1132290FF920F931F93CF93DF93CDB7DEB72C97A5
S11322A0CDBFDEBF7C016B018A01FC01168217825F
S11322B0838181FFB0C1CE0101964C01F701938166
S11322C0F60193FD859193FF81916F01882309F4B1
S11322D09EC1853239F493FD859193FF81916F01FD
S11322E0853221F4B70190E012D3E8CF512C312C80
S11322F020E02032A0F48B3269F030F4803259F0BF
S1132300833269F420612CC08D3239F0803339F482
S1132310216026C02260246023C0286021C027FDDC
S113232027C030ED380F3A3078F426FF06C0FAE0C3
S11323305F9E300D1124532E13C08AE0389E300D59
S11323401124332E20620CC08E3221F426FD5FC18D
S1132350206406C08C3611F4206802C0883641F42B
S1132360F60193FD859193FF81916F018111C1CF96
S1132370982F9F7D9554933028F40C5F1F4FFFE3F3
S1132380F9830DC0833631F0833771F0833509F05A
S113239057C021C0F801808189830E5F1F4F4424F8
S11323A04394512C540114C03801F2E06F0E711C97
S11323B0F801A080B18026FF03C0652D70E002C043
S11323C06FEF7FEFC5012C8797D22C0183012C85F9
S11323D02F77222E16C03801F2E06F0E711CF8011F
S11323E0A080B18026FF03C0652D70E002C06FEFAE
S11323F07FEFC5012C876ED22C012C852068222EFC
S1132400830123FC19C0832D90E048165906A0F4DB
S1132410B70180E290E07BD23A94F5CFF50127FC36
S1132420859127FE81915F01B70190E070D2311050
S11324303A94F1E04F1A51084114510479F7DEC07F
S1132440843611F0893631F5F80127FF07C0608121
S11324507181828193810C5F1F4F08C060817181FB
S1132460072E000C880B990B0E5F1F4F2F76722ED0
S113247097FF09C090958095709561957F4F8F4F18
S11324809F4F2068722E2AE030E0A40178D2A82E53
S1132490A81843C0853729F42F7EB22E2AE030E0F5
S11324A025C0F22FF97FBF2E8F36C1F018F488357E
S11324B079F0ADC0803719F0883721F0A8C02F2FEC
S11324C02061B22EB4FE0DC08B2D8460B82E09C0DD
S11324D024FF0AC09F2F9660B92E06C028E030E082
S11324E005C020E130E002C020E132E0F801B7FE8F
S11324F007C060817181828193810C5F1F4F06C088
S11325006081718180E090E00E5F1F4FA40137D29B
S1132510A82EA818FB2DFF777F2E76FE0BC0372D33
S11325203E7FA51450F474FE0AC072FC08C0372D17
S11325303E7E05C0BA2C372D03C0BA2C01C0B52C81
S113254034FF0DC0FE01EA0DF11D8081803311F4CA
S1132550397E09C032FF06C0B394B39404C0832FFC
S1132560867809F0B39433FD12C030FF06C05A2CAC
S1132570B31418F4530C5B18B32CB31460F4B70100
S113258080E290E03C87C3D1B3943C85F6CFB3148A
S113259010F43B1801C0312C34FF11C0B70180E3A3
S11325A090E03C87B4D13C8532FF16C031FD03C0B6
S11325B088E790E002C088E590E0B7010CC0832F63
S11325C0867851F031FF02C08BE201C080E237FD12
S11325D08DE2B70190E09BD1A51430F4B70180E3FC
S11325E090E095D15A94F8CFAA94F401EA0DF11D24
S11325F08081B70190E08BD1A110F6CF332009F48C
S11326005DCEB70180E290E082D13A94F7CFF70132
S11326108681978102C08FEF9FEF2C96CDBFDEBFDE
S1132620DF91CF911F910F91FF90EF90DF90CF90AA
S1132630BF90AF909F908F907F906F905F904F90DE
S11326403F902F9008950F931F93CF93DF93869F0E
S11326508001879F100D969F100D1124C8010DD085
S1132660EC01009721F0A80160E070E03ED1CE01BA
S1132670DF91CF911F910F910895CF93DF93823013
S1132680910510F482E090E0E091A020F091A12067
S113269020E030E0C0E0D0E0309711F1408151817A
S11326A048175907C0F04817590761F4828193818C
S11326B0209719F08A839B832BC08093A02090934A
S11326C0A12026C02115310519F04217530718F42B
S11326D09A01BE01DF01EF010280F381E02DDCCF1E
S11326E02115310509F1281B390B2430310590F4EB
S11326F012968D919C9113976115710521F0FB0140
S11327008283938304C08093A0209093A120FD0131
S1132710329644C0FD01E20FF31F8193919322503E
S113272031092D933C933AC020919E2030919F20F3
S1132730232B41F4209102203091032020939E20EA
S113274030939F20209100203091012021153105E4
S113275041F42DB73EB74091042050910520241B2D
S1132760350BE0919E20F0919F20E217F307A0F42F
S11327702E1B3F0B2817390778F0AC014E5F5F4FD3
S11327802417350748F04E0F5F1F40939E20509347
S11327909F208193919302C0E0E0F0E0CF01DF91AC
S11327A0CF9108950F931F93CF93DF93009709F46C
S11327B08CC0FC013297128213820091A0201091E8
S11327C0A1200115110581F420813181820F931F0D
S11327D020919E2030919F202817390779F5E093A6
S11327E09E20F0939F2071C0D80140E050E0AE17C6
S11327F0BF0750F412962D913C911397AD0121150A
S1132800310509F1D901F3CF9D01DA012283338324
S113281060817181860F971F8217930769F4EC0119
S113282028813981260F371F2E5F3F4F2083318344
S11328308A819B8182839383452B29F4E093A02092
S1132840F093A12042C01296ED93FC931397ED01EF
S1132850499159919E01240F351FE217F30771F432
S113286080819181840F951F02968D939C9311977B
S11328708281938112968D939C931397E0E0F0E00C
S1132880D80112968D919C911397009719F0F80135
S11328908C01F6CF8D919C9198012E5F3F4F820F52
S11328A0931F20919E2030919F202817390769F4A7
S11328B0309729F41092A0201092A12002C0128215
S11328C0138200939E2010939F20DF91CF911F913C
S11328D00F910895FC010590615070400110D8F7E4
S11328E0809590958E0F9F1F0895DC0101C06D9314
S11328F041505040E0F70895FC0161507040019050
S11329000110D8F7809590958E0F9F1F08950F930F
S11329101F93CF93DF93FB01238121FD03C08FEF2E
S11329209FEF28C022FF16C046815781248135813C
S11329304217530744F4A081B1819D012F5F3F4F9B
S1132940208331838C93268137812F5F3F4F2683E9
S1132950378310C0EB01092F182F0084F185E02D77
S11329601995892BE1F68E819F8101968E839F8331
S1132970812F902FDF91CF911F910F910895FA012C
S1132980AA27283051F1203181F1E8946F936E7FAA
S11329906E5F7F4F8F4F9F4FAF4FB1E03ED0B4E09B
S11329A03CD0670F781F891F9A1FA11D680F791FDC
S11329B08A1F911DA11D6A0F711D811D911DA11DED
S11329C020D009F468943F912AE0269F11243019FD
S11329D0305D3193DEF6CF010895462F4770405D98
S11329E04193B3E00FD0C9F7F6CF462F4F70405D47
S11329F04A3318F0495D31FD4052419302D0A9F7A2
S1132A00EACFB4E0A6959795879577956795BA959B
S1132A10C9F700976105710508959B01AC010A2E61
S1132A2006945795479537952795BA95C9F7620F38
S1112A30731F841F951FA01D0895F894FFCFF7
S1132A3E0000A220200000C20100030001466F72B4
S1132A4E2074696D653A25690A50726573737572DF
S1132A5E652069733A25690A54656D7065726174EF
S1132A6E7572652069733A25660A416C74697475CA
S1132A7E64652069733A2025660A416E6420766582
S1132A8E6C6F636974792069733A25660A0065650B
S1132A9E50726F6D206174202569207265616473B4
S1072AAE2025690072
S9030000FC
