S01C00005445414D32204F4E45204D4F4E544820434F44452E73726563CC
S113000026C100004AC1000048C1000046C10000EA
S113001044C1000042C1000040C100003EC10000D4
S11300203CC100003AC100007FC10000A0C1000033
S113003034C1000032C1000030C100002EC10000F4
S11300402CC100002AC1000028C1000026C1000004
S113005024C1000022C1000020C100001EC1000014
S11300601CC100001AC1000018C1000016C1000024
S113007014C1000012C1000010C100000EC1000034
S11300800CC100000AC1000008C1000006C1000044
S113009004C1000002C1000000C10000E3C300006D
S11300A01EC4000059C4000094C40000F6C000003F
S11300B0F4C00000F2C00000F0C00000EEC0000078
S11300C0ECC00000EAC00000E8C00000E6C0000088
S11300D0E4C00000E2C00000E0C00000DEC0000098
S11300E0DCC00000DAC00000D8C00000D6C00000A8
S11300F0D4C00000D2C00000D0C00000CEC00000B8
S1130100CCC00000CAC00000C8C00000C6C00000C7
S1130110C4C00000C2C00000C0C00000AFC20000E4
S1130120EAC2000025C3000060C30000B6C000009E
S1130130B4C00000B2C00000B0C00000AEC00000F7
S1130140ACC00000AAC00000A8C00000A6C0000007
S1130150A4C00000A2C00000A0C000009EC0000017
S11301609CC000009AC0000098C0000096C0000027
S113017094C0000092C0000090C000008EC0000037
S11301808CC000008AC0000088C0000086C0000047
S113019084C0000082C0000080C000007EC0000057
S11301A07CC000007AC0000078C0000076C0000067
S11301B074C0000072C0000070C000006EC0000077
S11301C06CC000006AC0000068C0000066C0000087
S11301D064C0000062C0000060C000005EC0000097
S11301E05CC000005AC0000058C0000056C00000A7
S11301F054C0000008000000BE922449123EABAA7D
S1130200AA2ABECDCCCC4C3E00000080BEABAAAA2C
S1130210AA3E00000000BF000000803F0000000074
S113022000084178D3BB4387D1133D190E3CC3BDAD
S11302304282AD2B3E68EC8276BED98FE1A93E4C5A
S113024080EFFFBE01C4FF7F3F00000000001124C7
S11302501FBECFEFCDBFDFE3DEBF00E00CBF18BE93
S113026019BE1ABE1BBE10E2A0E0B0E2EAEBF3E254
S113027000E00BBF02C007900D92AC34B107D9F770
S11302801BBE20E2ACE4B0E201C01D92A537B20768
S1130290E1F70E94010A0C94DB11B2CE0F931F9375
S11302A0E0E0F4E0818180FDFDCF2FB7F894409128
S11302B04C2050914D20809108049091090400979E
S11302C031F43091030430FF02C04F5F5F4F2FBF02
S11302D060E070E0BA0155274427A0E0B0E08A014D
S11302E09B01082B192B2A2B3B2BC901B8011F9109
S11302F00F91089564E080E08AD1E0E0F4E08FEFAC
S11303009FEF82879387108611869FB7F894ABE599
S1130310B0E213968C9113978F5F13968C939FBFC3
S113032081E08283808308951F920F920FB60F920B
S1130330112408B60F9218BE0BB60F921BBE8F93F2
S11303409F93EF93FF93ECE4F0E280819181019617
S113035080839183FF91EF919F918F910F900BBEBA
S11303600F9008BE0F900FBE0F901F9018951F920C
S11303700F920FB60F92112408B60F9218BE09B649
S11303800F9219BE0BB60F921BBECF92DF92EF9263
S1130390FF920F931F932F933F934F935F936F930A
S11303A07F938F939F93AF93BF93EF93FF93ECE46B
S11303B0F0E2808191812281338182179307F0F1E9
S11303C021E020930204E0915220F09153203097D1
S11303D0A9F16091080470910904A0E0B0E0DC0187
S11303E099278827AB0160E070E08C019D01042B04
S11303F0152B262B372BC901B801ACE4B0E21296B9
S11304000D911C91139720E030E0980111270027EB
S11304101496CD90DC901597E12CF12C0C291D2914
S11304202E293F29061717072807390730F0C90175
S1130430B8016F5F7F4F8F4F9F4F1995FF91EF91D9
S1130440BF91AF919F918F917F916F915F914F91E8
S11304503F912F911F910F91FF90EF90DF90CF90DC
S11304600F900BBE0F9009BE0F9008BE0F900FBEE9
S11304700F901F901895AF92BF92CF92DF92EF9298
S1130480FF920F931F93CF93DF9391E090935620A5
S1130490A12C0F2EF8E4BF2EF02D0F2EF8EECF2E48
S11304A0F02DDD24D394E12CF12C00E010E0282F72
S11304B030E040E050E060E070E080E090E00E94D6
S11304C00C0D29513C4F4F4F5F4F6F4F7F4F8F4F54
S11304D09F4F0E94700B20E030E84BEB55E40E94E4
S11304E0910A0E94FE0A722F632F942F852F542F96
S11304F0482F24E030E0C0E8D6E0072F162FF92F6C
S1130500E82F80915620982F90959C83880F809394
S11305105620802F912FAF2FBE2F0197A109B1092B
S1130520E1F72150310969F780E88093562024E0EF
S113053030E0E0E8F6E080915620982F909594837F
S1130540869580935620872F962FA52FB42F019739
S1130550A109B109E1F72150310969F7DF91CF9180
S11305601F910F91FF90EF90DF90CF90BF90AF90CD
S1130570089584E680DF8DE090E20E94C90D8EDE4E
S11305809F938F937F936F9383E190E29F938F93D5
S11305900E94B60D15D59F938F937F936F9380E23E
S11305A090E29F938F930E94B60D84E664DF8DB72B
S11305B09EB70C968DBF9EBF08958FEF80937000F9
S11305C08093710080937200809373008093740011
S11305D080937500809376009FB7F894E0E5F0E08F
S11305E08081826080839FBF818181FFFDCF61E034
S11305F080E490E02BD29FB7F894E0E5F0E08081AE
S11306008E7F80839FBF81E08093430008959FB7CE
S1130610F894E82FF0E0E059FF4F6095808168235B
S113062060839FBF0895CF93DF931F92CDB7DEB74A
S11306308091652090916620E0916120F091622084
S1130640BE016F5F7F4F19958981082E000C990BAD
S11306500F90DF91CF910895682F8091652090913C
S11306606620E0916320F0916420199599231CF091
S113067081E090E008958FEF9FEF08951F920F920D
S11306800FB60F92112408B60F9218BE09B60F9236
S113069019BE0BB60F921BBE2F933F934F935F93DC
S11306A06F937F938F939F93AF93BF93EF93FF9336
S11306B04091240250912502E0916920F0916A2032
S11306C061E080E092E01995FF91EF91BF91AF91C5
S11306D09F918F917F916F915F914F913F912F9156
S11306E00F900BBE0F9009BE0F9008BE0F900FBE67
S11306F00F901F9018951F920F920FB60F9211240E
S113070008B60F9218BE09B60F9219BE0BB60F9217
S11307101BBE2F933F934F935F936F937F938F935E
S11307209F93AF93BF93EF93FF9340912C0250910B
S11307302D02E0916920F0916A2062E080E092E06D
S11307401995FF91EF91BF91AF919F918F917F91F7
S11307506F915F914F913F912F910F900BBE0F902E
S113076009BE0F9008BE0F900FBE0F901F901895F2
S11307701F920F920FB60F92112408B60F9218BE53
S113078009B60F9219BE0BB60F921BBE2F933F935F
S11307904F935F936F937F938F939F93AF93BF9385
S11307A0EF93FF934091340250913502E091692018
S11307B0F0916A2064E080E092E01995FF91EF9156
S11307C0BF91AF919F918F917F916F915F914F9165
S11307D03F912F910F900BBE0F9009BE0F9008BE52
S11307E00F900FBE0F901F9018951F920F920FB687
S11307F00F92112408B60F9218BE09B60F9219BEB3
S11308000BB60F921BBE2F933F934F935F936F933F
S11308107F938F939F93AF93BF93EF93FF934091F5
S11308203C0250913D02E0916920F0916A2068E019
S113083080E092E01995FF91EF91BF91AF919F9164
S11308408F917F916F915F914F913F912F910F9075
S11308500BBE0F9009BE0F9008BE0F900FBE0F90F5
S11308601F9018951F920F920FB60F92112408B67D
S11308700F9218BE09B60F9219BE0BB60F921BBE8B
S11308802F933F934F935F936F937F938F939F9394
S1130890AF93BF93EF93FF9340916402509165022D
S11308A0E0916720F091682061E080E492E019957E
S11308B0FF91EF91BF91AF919F918F917F916F9134
S11308C05F914F913F912F910F900BBE0F9009BEF6
S11308D00F9008BE0F900FBE0F901F9018951F9297
S11308E00F920FB60F92112408B60F9218BE09B6D4
S11308F00F9219BE0BB60F921BBE2F933F934F93CB
S11309005F936F937F938F939F93AF93BF93EF9373
S1130910FF9340916C0250916D02E0916720F09139
S1130920682062E080E492E01995FF91EF91BF9115
S1130930AF919F918F917F916F915F914F913F9173
S11309402F910F900BBE0F9009BE0F9008BE0F9011
S11309500FBE0F901F9018951F920F920FB60F9213
S1130960112408B60F9218BE09B60F9219BE0BB621
S11309700F921BBE2F933F934F935F936F937F937D
S11309808F939F93AF93BF93EF93FF934091740220
S113099050917502E0916720F091682064E080E452
S11309A092E01995FF91EF91BF91AF919F918F9133
S11309B07F916F915F914F913F912F910F900BBE5B
S11309C00F9009BE0F9008BE0F900FBE0F901F909E
S11309D018951F920F920FB60F92112408B60F921A
S11309E018BE09B60F9219BE0BB60F921BBE2F93F9
S11309F03F934F935F936F937F938F939F93AF93A3
S1130A00BF93EF93FF9340917C0250917D02E0915C
S1130A106720F091682068E080E492E01995FF91E6
S1130A20EF91BF91AF919F918F917F916F915F9162
S1130A304F913F912F910F900BBE0F9009BE0F90D5
S1130A4008BE0F900FBE0F901F9018951BBEFC019F
S1130A5028ED24BF608308954091CA01E62FF72F43
S1130A608093CA0184914093CA010895FC01918145
S1130A7095FFFDCF608380E090E00895FC019181B3
S1130A809923ECF7808108952F923F924F925F92C1
S1130A906F927F928F929F92AF92BF92CF92DF928A
S1130AA0EF92FF920F931F93CF931C012A013B01F6
S1130AB048015901D901C801689412F8B695A7955F
S1130AC0979587951694D1F7B901A801032E36E1BD
S1130AD076956795579547953A95D1F7302DF1015D
S1130AE0248122FD08C0B695A7959795879576959C
S1130AF067955795479584159505A605B70508F498
S1130B00AAC0441655066606770608F4A6C0F10185
S1130B10848182FD04C0440C551C661C771CC501ED
S1130B20B401A301920156D72F3F31054105510568
S1130B3008F495C0C12CD12C7601CA94C9EF05C024
S1130B402C153D054E055F0568F0CC0CDD1CEE1C34
S1130B50FF1CCD3F14F46894C0F8CF5FC73081F711
S1130B608C2F54C08C2FCC230CF050C0D301C20165
S1130B70880F991FAA1FBB1F880F991FAA1FBB1F8D
S1130B80880F991FAA1FBB1F85017401E81AF90A6F
S1130B900A0B1B0BD801C701CE3FECF42DEF3FEF3E
S1130BA02C1B3109C7FD339504C0880F991FAA1F58
S1130BB0BB1F2A95D2F773016201F694E794D79488
S1130BC0C794BC01CD016C0D7D1D8E1D9F1DA3011D
S1130BD0920100D736C023E02C0F8301720104C0B8
S1130BE0EE0CFF1C001F111F2A95D2F7A8019701D4
S1130BF067017801F694E794D794C794BC01CD01BA
S1130C006C0D7D1D8E1D9F1DE5D61BC08D5FA30140
S1130C10920104C0220F331F441F551F8A95D2F737
S1130C20DA01C901B695A79597958795BC01CD01C1
S1130C30680D791D8A1D9B1DCDD6215031094109AE
S1130C405109832F8F70C295C07FC82BF101C783D0
S1130C50268381E01CC080E01AC080E018C0D30164
S1130C60C201880F991FAA1FBB1F880F991FAA1FB3
S1130C70BB1F880F991FAA1FBB1F85017401E81AA7
S1130C80F90A0A0B1B0BD801C701C9EF87CFCF9113
S1130C901F910F91FF90EF90DF90CF90BF90AF9096
S1130CA09F908F907F906F905F904F903F902F9088
S1130CB008950F931F93CF93DF93EC018B0100975B
S1130CC009F436C1803C910521F460E180E09FDCA9
S1130CD02FC1C03484E0D80721F468E080E097DCB9
S1130CE027C1C115E4E0DE0721F464E080E08FDC75
S1130CF01FC1C038F1E0DF0721F462E080E087DC47
S1130D0017C1C11581E0D80721F461E080E07FDCE0
S1130D100FC1C038E3E0DE0721F461E081E077DC55
S1130D2007C1C039F3E0DF0721F461E082E06FDC42
S1130D30FFC0C11582E0D80721F462E081E067DCDE
S1130D40F7C0C034E2E0DE0721F462E082E05FDC59
S1130D50EFC0C115F3E0DF0721F464E081E057DC64
S1130D60E7C0C03283E0D80721F464E082E04FDCBE
S1130D70DFC0C115E8E0DE0721F461E083E047DC71
S1130D80D7C0C115F9E0DF0721F461E084E03FDC5E
S1130D90CFC0C1158AE0D80721F461E085E037DCD3
S1130DA0C7C0C115EBE0DE0721F461E086E02FDC6B
S1130DB0BFC0C034F8E0DF0721F462E083E027DC41
S1130DC0B7C0C03489E0D80721F462E084E01FDCB6
S1130DD0AFC0C034EAE0DE0721F462E085E017DC4E
S1130DE0A7C0C034FBE0DF0721F462E086E00FDC3B
S1130DF09FC0C03988E0D80721F464E083E007DCB1
S1130E0097C0C039E9E0DE0721F464E084E0FFDB49
S1130E108FC0C039FAE0DF0721F464E085E0F7DB36
S1130E2087C0C0398BE0D80721F464E086E0EFDBAB
S1130E307FC0C03CE8E0DE0721F468E083E0E7DB44
S1130E4077C0C03CF9E0DF0721F468E084E0DFDB31
S1130E506FC0C03C8AE0D80721F468E085E0D7DBA6
S1130E6067C0C03CEBE0DE0721F468E086E0CFDB3E
S1130E705FC0C03AF8E0DF0721F460E183E0C7DB3C
S1130E8057C0C03A89E0D80721F460E184E0BFDBB1
S1130E904FC0C03AEAE0DE0721F460E185E0B7DB49
S1130EA047C0C03AFBE0DF0721F460E186E0AFDB36
S1130EB03FC0C03B88E0D80721F460E283E0A7DBB1
S1130EC037C0C03BE9E0DE0721F460E284E09FDB49
S1130ED02FC0C03BFAE0DF0721F460E285E097DB36
S1130EE027C0C03B8BE0D80721F460E286E08FDBAB
S1130EF01FC0C038E4E0DE0721F460E483E087DB50
S1130F0017C0C039F4E0DF0721F460E484E07FDB3C
S1130F100FC0C03A84E0D80721F460E485E077DBB1
S1130F2007C0C03BE4E0DE0719F460E486E06FDB51
S1130F308D818F738D83F80194818581892B9681AE
S1130F40911198E0892B8D83F80140815181628150
S1130F50738100E018E428EE31E0CE0195DD9C8138
S1130F6098609C839C8190619C83DF91CF911F91B9
S1130F700F910895FF920F931F93CF93DF93C0E0D7
S1130F80D2E0FF24F394F882198280E18A8385E019
S1130F908C8361E270E082E05FDD082F10E0102FA7
S1130FA0002760E270E082E057DD082B0C871D8784
S1130FB0F8A219A2DF91CF911F910F91FF9008958C
S1130FC08F929F92AF92BF92CF92DF92EF92FF9255
S1130FD0CF93DF93E0E0F2E080A1806880A383A157
S1130FE08823E9F3C0912402D0912502DF93CF93A3
S1130FF083E390E29F938F93B9D5BE0180E090E0A4
S113100032D32CE03BEB43E05AE34ED42CE131E9FC
S113101044EC5DE321D26B017C0120E030E04AE73F
S113102054E442D49F938F937F936F9381E490E22F
S11310309F938F939BD520E030E04AE754E4C701A7
S1131040B6010AD29B01AC0160E070E48EE495E441
S113105068D220E030E44CE156E463D2E5D36B017E
S11310607C0121EF3BEB46E859E31ED42DE03FEC35
S11310704BE55BE3F2D14B015C012AE633E149E83D
S113108053E3C701B60110D49B01AC01C701B601FB
S11310900BD49B01AC01C701B60106D49B01AC0182
S11310A0C501B401DAD19B01AC0160E070E080E8D5
S11310B09FE337D223E333E948E853E4CDD12DB796
S11310C03EB7265F3F4F2DBF3EBFDF91CF91FF90CC
S11310D0EF90DF90CF90BF90AF909F908F90089546
S11310E08FEF80936006E0E0F9E086E0808383EB95
S11310F081830895CF93DF93EB01C0DC8883DF9174
S1131100CF910895B3CC0895CF93DF93CDB7DEB7D5
S11311102797CDBFDEBFE0E4F6E088E081838583D6
S11311208FEF848380EA98E0809365209093662013
S113113082E898E080936320909364208AE798E0A3
S11311408093612090936220E6E0F0E284818D83B5
S113115085818E8386818F8380819181A281B381F1
S113116089839A83AB83BC8360E183E050DABE0158
S11311706F5F7F4F80EA98E09CDD63E173E08CE26F
S113118093E0AAD42796CDBFDEBFDF91CF91089517
S1131190009709F435C1803C910521F460E180E0B9
S11311A036CA0895803424E0920721F468E080E090
S11311B02ECA0895811524E0920721F464E080E0AA
S11311C026CA0895803821E0920721F462E080E085
S11311D01ECA0895811521E0920721F461E080E0A0
S11311E016CA0895803823E0920721F461E081E073
S11311F00ECA0895803923E0920721F461E082E069
S113120006CA0895811522E0920721F462E081E084
S1131210FEC90895803422E0920721F462E082E05E
S1131220F6C90895811523E0920721F464E081E072
S1131230EEC90895803223E0920721F464E082E04D
S1131240E6C90895811528E0920721F461E083E05E
S1131250DEC90895811529E0920721F461E084E054
S1131260D6C9089581152AE0920721F461E085E04A
S1131270CEC9089581152BE0920721F461E086E040
S1131280C6C90895803428E0920721F462E083E01F
S1131290BEC90895803429E0920721F462E084E015
S11312A0B6C9089580342AE0920721F462E085E00B
S11312B0AEC9089580342BE0920721F462E086E001
S11312C0A6C90895803928E0920721F464E083E0F8
S11312D09EC90895803929E0920721F464E084E0EE
S11312E096C9089580392AE0920721F464E085E0E4
S11312F08EC9089580392BE0920721F464E086E0DA
S113130086C90895803C28E0920721F468E083E0D0
S11313107EC90895803C29E0920721F468E084E0C6
S113132076C90895803C2AE0920721F468E085E0BC
S11313306EC90895803C2BE0920721F468E086E0B2
S113134066C90895803A28E0920721F460E183E0B9
S11313505EC90895803A29E0920721F460E184E0AF
S113136056C90895803A2AE0920721F460E185E0A5
S11313704EC90895803A2BE0920721F460E186E09B
S113138046C90895803B28E0920721F460E283E097
S11313903EC90895803B29E0920721F460E284E08D
S11313A036C90895803B2AE0920721F460E285E083
S11313B02EC90895803B2BE0920721F460E286E079
S11313C026C90895803824E0920721F460E483E07C
S11313D01EC90895803924E0920721F460E484E072
S11313E016C90895803A24E0920721F460E485E068
S11313F00EC90895803B944019F460E486E007C95F
S11314000895DBD80E947A0180EA98E0C1DE80E08A
S113141092E0BEDE80E09AE0BBDE80E099E0B8DED8
S113142080E098E0B5DE80EC98E0B2DE64E085E030
S1131430EED864E084E0EBD868E083E0E8D864DECA
S11314404FDE98DD8FEF809360068093800683E003
S11314508093A0068ED8FECF5058BB27AA270ED063
S1131460A4C195D130F09AD120F031F49F3F11F40A
S11314701EF47AC10EF4E095E7FB70C1E92FA6D102
S113148080F3BA17620773078407950718F071F49D
S11314909EF5BEC10EF4E0950B2EBA2FA02D0B01C4
S11314A0B90190010C01CA01A0011124FF27591BA5
S11314B099F0593F50F4503E68F11A16F040A22FAB
S11314C0232F342F4427585FF3CF4695379527951C
S11314D0A795F0405395C9F77EF41F16BA0B620B1B
S11314E0730B840BBAF09150A1F0FF0FBB1F661F62
S11314F0771F881FC2F70EC0BA0F621F731F841FA5
S113150048F4879577956795B795F7959E3F08F0CA
S1131510B3CF9395880F08F09927EE0F9795879589
S113152008950CD042C13AD140F031D130F021F4C9
S11315305F3F19F013C151116CC116C147D198F323
S11315409923C9F35523B1F3951B550BBB27AA2740
S113155062177307840738F09F5F5F4F220F331FB2
S1131560441FAA1FA9F333D00E2E3AF0E0E830D07E
S113157091505040E695001CCAF729D0FE2F27D081
S1131580660F771F881FBB1F261737074807AB074F
S1131590B0E809F0BB0B802DBF01FF2793585F4FC4
S11315A02AF09E3F510568F0D9C033C15F3FECF388
S11315B0983EDCF3869577956795B795F7959F5F89
S11315C0C9F7880F911D9695879597F90895E1E0DD
S11315D0660F771F881FBB1F621773078407BA073C
S11315E020F0621B730B840BBA0BEE1F88F7E09597
S11315F00895BEE304D008F490E80895BFE32227D9
S11316003327A901EBD058F19F5740F1B91738F1AE
S1131610BFE3B91B9927B8503AF4660F771F881FA8
S1131620991FB395D2F316C0B8504AF0232F342F24
S1131630452F562F672F782F8827B850BAF7B85FF1
S113164049F08695779567955795479537952795EA
S1131650BA95B9F70EF48BD088940895889460E015
S113166070E0CB010895E89409C097FB3EF490958F
S11316708095709561957F4F8F4F9F4F9923A9F067
S1131680F92F96E9BB279395F695879577956795F6
S1131690B795F111F8CFFAF4BB0F11F460FF1BC03A
S11316A06F5F7F4F8F4F9F4F16C0882311F096E9CD
S11316B011C0772321F09EE8872F762F05C066237B
S11316C071F096E8862F70E060E02AF09A95660F34
S11316D0771F881FDAF7880F9695879597F90895ED
S11316E0E894F92F96EBFF2381F0121613061406E3
S11316F0440B9395F6958795779567955795404054
S1131700FF23B9F71BC099270895882351F49850F3
S1131710D2F7872B762F652F542F432F322F20E0BB
S1131720B1F3121613061406440B88233AF09A9563
S1131730440F551F661F771F881FCAF755234AF4A5
S1131740440F551F11F460FF04C06F5F7F4F8F4F2C
S11317509F4F880F9695879597F9089597F99F67F6
S113176080E870E060E008959FEF80EC0895909524
S113177080957095609550954095309521953F4F93
S11317804F4F5F4F6F4F7F4F8F4F9F4F08950024F0
S11317900A941616170618060906089500240A94D2
S11317A012161306140605060895092E0394000C58
S11317B011F4882352F0BB0F40F4BF2B11F460FFE7
S11317C004C06F5F7F4F8F4F9F4F089557FD905810
S11317D0440F551F59F05F3F71F04795880F97FBF1
S11317E0991F61F09F3F79F08795089512161306AB
S11317F01406551FF2CF4695F1DF08C016161706DA
S11318001806991FF1CF869571056105089408950E
S1131810E894BB2766277727CB0197F908950EF044
S1131820A6C0A2CF68949ACFD9DFC8F39923D1F385
S1131830C6F3DF93CF931F930F93FF92C92FDD2736
S113184088232AF02197660F771F881FDAF720E094
S113185030E040E85FEB9FE3883920F0803E30F0D1
S113186021968F77FADDE4EFF1E003C0F6DDE1E2E3
S1131870F2E08BD08B01BE01EC01FB2E6F57710996
S11318807595771F880B990BF0DE28E132E741E369
S11318905FE316D0AF2D9801AE01FF900F911F9119
S11318A0CF91DF91EBDD81CF0BD07FCF70DF28F0BC
S11318B075DF18F0952309F051CF56CF1124A9CF25
S11318C085DFA0F3959FD1F3950F50E0551F629FDC
S11318D0F001729FBB27F00DB11D639FAA27F00D85
S11318E0B11DAA1F649F6627B00DA11D661F829FAC
S11318F02227B00DA11D621F739FB00DA11D621F91
S1131900839FA00D611D221F749F3327A00D611DAD
S1131910231F849F600D211D822F762F6A2F11248F
S11319209F5750408AF0E1F088234AF0EE0FFF1FE2
S1131930BB1F661F771F881F91505040A9F79E3F19
S1131940510570F00BCF65CF5F3FECF3983EDCF3AD
S1131950869577956795B795F795E7959F5FC1F756
S1131960FE2B880F911D9695879597F908959F3FB3
S113197031F0915020F4879577956795B795880F46
S1131980911D9695879597F90895DF93CF931F93AB
S11319900F93FF92EF92DF927B018C01689405C054
S11319A0DA2EEF018DDFFE01E894A59125913591A2
S11319B045915591AEF3EF0161DDFE019701A80158
S11319C0DA9479F7DF90EF90FF900F911F91CF9108
S11319D0DF910895A1E21A2EAA1BBB1BFD010DC0C5
S11319E0AA1FBB1FEE1FFF1FA217B307E407F507CB
S11319F020F0A21BB30BE40BF50B661F771F881FA7
S1131A00991F1A9469F760957095809590959B013C
S1131A10AC01BD01CF010895DF93CF931F930F93C2
S1131A209A9DF02D219FF00D8B9DF00D8A9DE02D48
S1131A30F10D039FF00D029FE00DF11D4E9DE00D91
S1131A40F11D5E9DF00D4F9DF00D7F936F93BF923E
S1131A50AF925F934F93D50130D08B01AC01D70186
S1131A602CD0EB01E80FF91FD6011FD02F913F9125
S1131A70D60123D0C60FD71FE81FF91FAF91BF911E
S1131A8014D02F913F9119D0C60FD71FE81FF91F0B
S1131A90D60113D0E60FF71F9801BE01CF01112420
S1131AA00F911F91CF91DF91089507D0460F571FD3
S1131AB0C81FD91F08F431960895A29FB001B39F9F
S1131AC0C001A39F700D811D1124911DB29F700D43
S1131AD0811D1124911D08950F931F93CF93DF93BC
S1131AE0009731F46115710519F480E090E039C074
S1131AF08B01EC016EE070E081E090E062D2FC01C9
S1131B00892B99F380E883830115110571F002870D
S1131B10138781E8838380916B2090916C20892BBB
S1131B2021F4E0936B20F0936C202097C9F0C087D8
S1131B30D18783818260838380916D2090916E2010
S1131B40892B71F4E0936D20F0936E2080916F20C7
S1131B5090917020892B21F4E0936F20F0937020F2
S1131B60CF01DF91CF911F910F910895CF93DF9310
S1131B70CDB7DEB7AE014A5F5F4FFA016191719153
S1131B80AF0180916D2090916E2033D0DF91CF9181
S1131B9008950F931F93CF93DF93E0916D20F091FD
S1131BA06E20238121FF1BC08C01D0E0C0E0F8012E
S1131BB081918F0160916D2070916E20DB011896E8
S1131BC0ED91FC911997882331F01995892B79F3BC
S1131BD0DFEFCFEFECCF8AE01995892B19F08FEF67
S1131BE09FEF02C08D2F9C2FDF91CF911F910F91FA
S1131BF008952F923F924F925F926F927F928F92AD
S1131C009F92AF92BF92CF92DF92EF92FF920F9387
S1131C101F93CF93DF93CDB7DEB72C97CDBFDEBF35
S1131C207C016B018A01FC0116821782838181FF8A
S1131C30B0C1CE0101964C01F7019381F60193FDE9
S1131C40859193FF81916F01882309F49EC18532A8
S1131C5039F493FD859193FF81916F01853221F4CD
S1131C60B70190E012D3E8CF512C312C20E0203280
S1131C70A0F48B3269F030F4803259F0833269F485
S1131C8020612CC08D3239F0803339F4216026C0B4
S1131C902260246023C0286021C027FD27C030EDC6
S1131CA0380F3A3078F426FF06C0FAE05F9E300D14
S1131CB01124532E13C08AE0389E300D1124332E84
S1131CC020620CC08E3221F426FD5FC1206406C060
S1131CD08C3611F4206802C0883641F4F60193FD75
S1131CE0859193FF81916F018111C1CF982F9F7DC1
S1131CF09554933028F40C5F1F4FFFE3F9830DC014
S1131D00833631F0833771F0833509F057C021C031
S1131D10F801808189830E5F1F4F44244394512C22
S1131D20540114C03801F2E06F0E711CF801A08058
S1131D30B18026FF03C0652D70E002C06FEF7FEF16
S1131D40C5012C8797D22C0183012C852F77222E55
S1131D5016C03801F2E06F0E711CF801A080B1804A
S1131D6026FF03C0652D70E002C06FEF7FEFC50151
S1131D702C876ED22C012C852068222E830123FC13
S1131D8019C0832D90E048165906A0F4B70180E2EB
S1131D9090E07BD23A94F5CFF50127FC859127FE9C
S1131DA081915F01B70190E070D231103A94F1E073
S1131DB04F1A51084114510479F7DEC0843611F0EA
S1131DC0893631F5F80127FF07C06081718182816E
S1131DD093810C5F1F4F08C060817181072E000C36
S1131DE0880B990B0E5F1F4F2F76722E97FF09C039
S1131DF090958095709561957F4F8F4F9F4F206888
S1131E00722E2AE030E0A40178D2A82EA81843C08C
S1131E10853729F42F7EB22E2AE030E025C0F22F38
S1131E20F97FBF2E8F36C1F018F4883579F0ADC034
S1131E30803719F0883721F0A8C02F2F2061B22EE7
S1131E40B4FE0DC08B2D8460B82E09C024FF0AC0D7
S1131E509F2F9660B92E06C028E030E005C020E12F
S1131E6030E002C020E132E0F801B7FE07C0608133
S1131E707181828193810C5F1F4F06C060817181E3
S1131E8080E090E00E5F1F4FA40137D2A82EA8185F
S1131E90FB2DFF777F2E76FE0BC0372D3E7FA514DA
S1131EA050F474FE0AC072FC08C0372D3E7E05C093
S1131EB0BA2C372D03C0BA2C01C0B52C34FF0DC089
S1131EC0FE01EA0DF11D8081803311F4397E09C0D1
S1131ED032FF06C0B394B39404C0832F867809F00C
S1131EE0B39433FD12C030FF06C05A2CB31418F457
S1131EF0530C5B18B32CB31460F4B70180E290E088
S1131F003C87C3D1B3943C85F6CFB31410F43B188B
S1131F1001C0312C34FF11C0B70180E390E03C874D
S1131F20B4D13C8532FF16C031FD03C088E790E090
S1131F3002C088E590E0B7010CC0832F867851F089
S1131F4031FF02C08BE201C080E237FD8DE2B701B0
S1131F5090E09BD1A51430F4B70180E390E095D1D3
S1131F605A94F8CFAA94F401EA0DF11D8081B701C7
S1131F7090E08BD1A110F6CF332009F45DCEB701E8
S1131F8080E290E082D13A94F7CFF701868197817D
S1131F9002C08FEF9FEF2C96CDBFDEBFDF91CF91B4
S1131FA01F910F91FF90EF90DF90CF90BF90AF9073
S1131FB09F908F907F906F905F904F903F902F9065
S1131FC008950F931F93CF93DF93869F8001879F7C
S1131FD0100D969F100D1124C8010DD0EC0100972F
S1131FE021F0A80160E070E03ED1CE01DF91CF91F5
S1131FF01F910F910895CF93DF938230910510F4D0
S113200082E090E0E0917320F091742020E030E0D1
S1132010C0E0D0E0309711F1408151814817590751
S1132020C0F04817590761F482819381209719F011
S11320308A839B832BC0809373209093742026C043
S11320402115310519F04217530718F49A01BE01FE
S1132050DF01EF010280F381E02DDCCF2115310592
S113206009F1281B390B2430310590F412968D9117
S11320709C9113976115710521F0FB018283938371
S113208004C08093732090937420FD01329644C061
S1132090FD01E20FF31F81939193225031092D9397
S11320A03C933AC02091712030917220232B41F44B
S11320B020910220309103202093712030937220CC
S11320C020910020309101202115310541F42DB7D4
S11320D03EB74091042050910520241B350BE0911C
S11320E07120F0917220E217F307A0F42E1B3F0B2E
S11320F02817390778F0AC014E5F5F4F2417350776
S113210048F04E0F5F1F40937120509372208193CB
S1132110919302C0E0E0F0E0CF01DF91CF91089508
S11321200F931F93CF93DF93009709F48CC0FC01A6
S1132130329712821382009173201091742001153A
S1132140110581F420813181820F931F2091712028
S1132150309172202817390779F5E0937120F093B4
S1132160722071C0D80140E050E0AE17BF0750F4B0
S113217012962D913C911397AD012115310509F16A
S1132180D901F3CF9D01DA01228333836081718108
S1132190860F971F8217930769F4EC012881398110
S11321A0260F371F2E5F3F4F208331838A819B8107
S11321B082839383452B29F4E0937320F093742056
S11321C042C01296ED93FC931397ED0149915991F6
S11321D09E01240F351FE217F30771F4808191816A
S11321E0840F951F02968D939C93119782819381FE
S11321F012968D939C931397E0E0F0E0D801129629
S11322008D919C911397009719F0F8018C01F6CFEA
S11322108D919C9198012E5F3F4F820F931F2091C7
S11322207120309172202817390769F4309729F406
S1132230109273201092742002C0128213820093B1
S1132240712010937220DF91CF911F910F91089507
S1132250FC010590615070400110D8F7809590956D
S11322608E0F9F1F0895DC0101C06D9341505040B3
S1132270E0F70895FC016150704001900110D8F717
S1132280809590958E0F9F1F08950F931F93CF9362
S1132290DF93FB01238121FD03C08FEF9FEF28C053
S11322A022FF16C046815781248135814217530786
S11322B044F4A081B1819D012F5F3F4F208331837E
S11322C08C93268137812F5F3F4F2683378310C03D
S11322D0EB01092F182F0084F185E02D1995892B26
S11322E0E1F68E819F8101968E839F83812F902FAB
S11322F0DF91CF911F910F910895FA01AA272830F9
S113230051F1203181F1E8946F936E7F6E5F7F4FBE
S11323108F4F9F4FAF4FB1E03ED0B4E03CD0670F3A
S1132320781F891F9A1FA11D680F791F8A1F911D8D
S1132330A11D6A0F711D811D911DA11D20D009F4DD
S113234068943F912AE0269F11243019305D31931F
S1132350DEF6CF010895462F4770405D4193B3E008
S11323600FD0C9F7F6CF462F4F70405D4A3318F0AF
S1132370495D31FD4052419302D0A9F7EACFB4E060
S1132380A6959795879577956795BA95C9F7009718
S11323906105710508959B01AC010A2E06945795B9
S11323A0479537952795BA95C9F7620F731F841F10
S10D23B0951FA01D0895F894FFCFB7
S11323BA00007520200000C2010003000154657367
S11323CA743A00466F722074696D653A25690A0089
S11323DA54656D70657261747572652069733A2506
S11323EA690A0072656164206164633A2025690A96
S10F23FA00766F6C743A2025690A00001C
S9030000FC
